:100000000C945D000C94A2020C947B020C9485006D
:100010000C9485000C9485000C9485000C9485004C
:100020000C9485000C9485000C9485000C9485003C
:100030000C9485000C9485000C9485000C9485002C
:100040000C943D050C9485000C94EF020C94C902AD
:100050000C9485000C9485000C9485000C9485000C
:100060000C9421030C94850000000000240027005C
:100070002A0000000000250028002B0004040404CE
:100080000404040402020202020203030303030342
:10009000010204081020408001020408102001021F
:1000A00004081020000000080002010000030407FB
:1000B0000000000000000000350B11241FBECFEF30
:1000C000D8E0DEBFCDBF12E0A0E0B1E0EEEFF9E195
:1000D00002C005900D92AA32B107D9F724E0AAE236
:1000E000B2E001C01D92AA3DB207E1F710E0CDE5F4
:1000F000D0E004C02197FE010E94D10BCC35D1077E
:10010000C9F70E9487050C94FD0C0C94000008951B
:10011000CF92DF92EF92FF920F931F93CF93DF93D3
:100120006C017A018B01C0E0D0E0CE15DF0581F0D3
:10013000D8016D918D01D601ED91FC910190F08176
:10014000E02DC6010995892B11F02196EECF7E0195
:10015000C701DF91CF911F910F91FF90EF90DF903A
:10016000CF900895FC01538D448D252F30E0842FCE
:1001700090E0821B930B541710F0CF9608950197CF
:100180000895FC01918D828D981761F0828DDF01B9
:10019000A80FB11D5D968C91928D9F5F9F73928F7A
:1001A00090E008958FEF9FEF0895FC01918D828D6F
:1001B000981731F0828DE80FF11D858D90E008953C
:1001C0008FEF9FEF0895FC01918D228D892F90E094
:1001D000805C9F4F821B91098F739927089580EF50
:1001E00093E00E94E30021E0892B09F420E0822FB4
:1001F0000895FC01848DDF01A80FB11DA35ABF4FE4
:100200002C91848D90E001968F739927848FA68915
:10021000B7892C93A089B1898C91837080648C9369
:10022000938D848D981306C00288F389E02D808118
:100230008F7D80830895EF92FF920F931F93CF934A
:10024000DF93EC0181E0888F9B8D8C8D981305C026
:10025000E889F989808185FD26C0F62E0B8D10E096
:100260000F5F1F4F0F731127E02E8C8DE8120CC00B
:100270000FB607FCFACFE889F989808185FFF5CFB1
:10028000CE010E94F900F1CF8B8DFE01E80FF11D28
:10029000E35AFF4FF0829FB7F8940B8FEA89FB89EE
:1002A000808180620AC09FB7F894EE89FF896083DD
:1002B000E889F98980818370806480839FBF81E0B1
:1002C00090E0DF91CF911F910F91FF90EF900895F3
:1002D000CF93DF93EC01888D8823C9F0EA89FB89ED
:1002E000808185FD05C0A889B9898C9186FD0FC0E4
:1002F0000FB607FCF5CF808185FFF2CFA889B989B9
:100300008C9185FFEDCFCE010E94F900E7CFDF9100
:10031000CF91089580E090E0892B29F00E94EF00B2
:1003200081110C940000089585ED8093BC008091AC
:10033000BC0084FDFCCF1092770208954091C90360
:10034000262F30E0240F311D21323105DCF42091BD
:1003500077022430C9F4FC0180E090E0861758F45D
:100360003091C9032191DC01A755BC4FA30FB11DEA
:100370002C930196F3CF8091C903680F6093C90352
:1003800080E0089581E0089582E008950895089539
:100390000895E091790280917802E81730F4F0E056
:1003A000E658FD4F808190E008958FEF9FEF08950C
:1003B0009091790280917802981750F4E92FF0E03B
:1003C000E658FD4F208130E09F5F9093790202C094
:1003D0002FEF3FEFC90108958091780290E02091BE
:1003E0007902821B91090895CF92DF92EF92FF92DA
:1003F0000F931F93CF93DF937C01CB018A01209150
:100400004A02222389F0EB016B01C40ED51ECC15E4
:10041000DD0569F06991D701ED91FC910190F081C2
:10042000E02DC7010995F3CF642F0E949E01C801FA
:10043000DF91CF911F910F91FF90EF90DF90CF90C0
:100440000895CF93DF931F92CDB7DEB769832091D4
:100450004A022223D1F020914F02203240F021E0C5
:1004600030E0FC013383228380E090E015C080916E
:100470005002E82FF0E0E65DFD4F998190838F5F99
:100480008093500280934F0205C061E0CE01019637
:100490000E949E0181E090E00F90DF91CF9108953E
:1004A000089580E090E008950E94F80CCF93DF93C8
:1004B000C9E9D4E081E08FAB8EED91E00E94B904F0
:1004C000BE01DD0F880B990B40E10E9478040E9469
:1004D00074042FB7F8946091EC037091ED03809150
:1004E000EE039091EF032FBF4AE00E947804DF9162
:1004F000CF910C9474041F920F920FB60F92112497
:100500002F933F934F935F936F937F938F939F931B
:10051000AF93BF93EF93FF93E0910201F09103013A
:100520000995FF91EF91BF91AF919F918F917F912D
:100530006F915F914F913F912F910F900FBE0F9050
:100540001F9018951F920F920FB60F9211242F93A0
:100550003F934F935F936F937F938F939F93AF934B
:10056000BF93EF93FF93E0910001F0910101099592
:10057000FF91EF91BF91AF919F918F917F916F917B
:100580005F914F913F912F910F900FBE0F901F9051
:1005900018951F920F920FB60F9211242F933F932D
:1005A0004F935F936F937F938F939F93AF93BF937B
:1005B000EF93FF9380EF93E00E94F900FF91EF919A
:1005C000BF91AF919F918F917F916F915F914F916B
:1005D0003F912F910F900FBE0F901F9018951F9273
:1005E0000F920FB60F9211242F938F939F93EF9337
:1005F000FF93E0910004F09101048081E0910604F2
:10060000F091070482FD12C09081809109048F5FF0
:100610008F7320910A04821751F0E0910904F0E0F1
:10062000E051FC4F958F8093090401C08081FF91B8
:10063000EF919F918F912F910F900FBE0F901F9070
:1006400018951F920F920FB60F9211242F933F937C
:100650004F935F936F937F938F939F93AF93BF93CA
:10066000EF93FF938091B900887F803609F49CC096
:1006700068F5883209F45BC090F4803109F454C005
:1006800038F4882309F4F6C0883009F44DC0F6C068
:10069000883109F44CC0803209F45DC0EFC0803469
:1006A00009F468C048F4803309F455C0883309F070
:1006B000E5C080937502D8C0803509F44FC08835F5
:1006C00009F45DC0883409F0D9C0D6C0883909F46E
:1006D000C7C0A8F4883709F467C038F4883609F42D
:1006E00063C0803709F460C0C9C0883809F4B8C055
:1006F000803909F45FC0803809F0C0C05BC0803B1E
:1007000009F486C038F4803A09F466C0883A09F4DE
:100710007FC0B4C0803C09F4A7C0883C09F4A4C0E1
:10072000883B09F48AC0AAC08091720210C09091DF
:10073000740280917302981770F5E091740281E061
:100740008E0F80937402F0E0EF5AFD4F808180930A
:10075000BB0085EC86C0809375028EC0E091740268
:1007600081E08E0F809374028091BB00F0E0EF5A1D
:10077000FD4F808390917402809173026EC0E0916E
:10078000740281E08E0F809374028091BB00F0E0D0
:10079000EF5AFD4F80838091760281116DC081E018
:1007A0008093710284EA61C083E0809377021092A3
:1007B000EB03CFCF8091EB03803208F051C0E09182
:1007C000EB0381E08E0F8093EB038091BB00F0E0A0
:1007D000E553FC4F8083BDCF85EC8093BC00109225
:1007E00077028091EB03803230F4E091EB03F0E08C
:1007F000E553FC4F10826091EB0370E0E0914B02F7
:10080000F0914C028BEC93E009951092EB0336C00B
:1008100084E0809377021092CA031092C903E0919A
:100820004D02F0914E0209958091C903811105C0D6
:1008300081E08093C9031092A903E091CA0381E08B
:100840008E0F8093CA03F0E0E755FC4F80818093C0
:10085000BB009091CA038091C903981708F479CF1F
:1008600085E88093BC000AC085EC8093BC001092A0
:10087000770204C0109275020E949401FF91EF91DB
:10088000BF91AF919F918F917F916F915F914F91A8
:100890003F912F910F900FBE0F901F9018958130B0
:1008A000910549F028F0029749F488E092E008C0E9
:1008B0008AEF91E005C082E092E002C088E192E018
:1008C0000C94B904009769F0FC0101900020E9F74D
:1008D0003197AF01481B590BBC0180EF93E00C949A
:1008E000880080E090E0089587E292E00C94620432
:1008F0008F929F92AF92BF920F931F93CF93DF93EC
:10090000CDB7DEB7A1970FB6F894DEBF0FBECDBF4F
:1009100019A2423008F44AE08E010F5D1F4F842E69
:10092000912CA12CB12CA50194010E94AF0BE62FB4
:10093000B901CA0101501109EA3014F4E05D01C0A7
:10094000E95CD801EC93232B242B252B61F7C801FC
:100950000E946204A1960FB6F894DEBF0FBECDBF11
:10096000DF91CF911F910F91BF90AF909F908F908B
:1009700008950C946204CF92DF92EF92FF92CF938E
:10098000DF936C01990FEE08FF08F7FE19C06DE2C6
:1009900080EF93E00E941B01EC0166277727CB01D3
:1009A0006C197D098E099F094AE00E9478048C0F1A
:1009B0009D1FDF91CF91FF90EF90DF90CF90089532
:1009C0004AE0C701B601DF91CF91FF90EF90DF9031
:1009D000CF900C947804CF93DF930E946204EC01D3
:1009E0000E9474048C0F9D1FDF91CF91089590E0B9
:1009F000FC01EC55FF4F2491FC01E057FF4F34916F
:100A0000FC01E458FF4FE491EE23B1F1222339F1C8
:100A1000233091F038F42130A9F0223001F584B56B
:100A20008F7D12C0273091F02830A1F02430B9F426
:100A3000809180008F7D03C0809180008F778093AC
:100A400080000DC084B58F7784BD09C08091B0004F
:100A50008F7703C08091B0008F7D8093B000F0E06D
:100A6000EE0FFF1FEE58FF4FA591B4918FB7F8948A
:100A7000EC91E32BEC938FBF08951F920F920FB66A
:100A80000F9211242F933F938F939F93AF93BF9314
:100A90008091EC039091ED03A091EE03B091EF03F0
:100AA0003091D50423E0230F2D3720F40196A11DAA
:100AB000B11D05C026E8230F0296A11DB11D20938C
:100AC000D5048093EC039093ED03A093EE03B093D1
:100AD000EF038091D1049091D204A091D304B091FE
:100AE000D4040196A11DB11D8093D1049093D2042A
:100AF000A093D304B093D404BF91AF919F918F91F1
:100B00003F912F910F900FBE0F901F901895CF938C
:100B1000DF93CDB7DEB7CF55D1090FB6F894DEBF5E
:100B20000FBECDBF789484B5826084BD84B58160EA
:100B300084BD85B5826085BD85B5816085BD8091A8
:100B40006E00816080936E00109281008091810020
:100B50008260809381008091810081608093810018
:100B6000809180008160809380008091B1008460DA
:100B70008093B1008091B00081608093B00080913B
:100B80007A00846080937A0080917A0082608093FA
:100B90007A0080917A00816080937A0080917A0057
:100BA000806880937A001092C100E0910004F09177
:100BB000010412E01083E091FC03F091FD03108228
:100BC000E091FE03F091FF0380E18083109208041E
:100BD000E0910404F091050486E08083E091020432
:100BE000F0910304808180618083E0910204F091A0
:100BF0000304808188608083E0910204F091030403
:100C0000808180688083E0910204F09103048081F8
:100C10008F7D808384E391E00E94EB040E94740442
:100C20008DE591E00E94B90481E080939B041093CC
:100C3000A20410929D0410929C04E2E9F0E0249139
:100C4000EEE7F0E084918823C1F090E0880F991FCF
:100C5000FC01E859FF4FA591B491FC01EE58FF4FFC
:100C6000859194914FB7F8943C91209532233C9311
:100C7000DC01EC912E232C934FBF8091A204823093
:100C800019F08330B1F432C480E0E82FF0E0EE0FC9
:100C9000FF1FE050FF4F26E532E031832083813093
:100CA00009F426C4809169008C7F8260809369007A
:100CB000E89A8DE894E090939F0480939E041092AC
:100CC0007902109278021092500210924F02109204
:100CD000770211E0109376021092710282E10E9475
:100CE000F70483E10E94F7048091B9008E7F80931E
:100CF000B9008091B9008D7F8093B90088E480931A
:100D0000B80085E48093BC0086EC91E090934E029D
:100D100080934D0287EC91E090934C0280934B02BC
:100D20008091A00410934A0280939A02109250027C
:100D300010924F0280919E0490919F04DC01ED91EE
:100D4000FC910190F081E02D60E0099580919E0476
:100D500090919F04DC01ED91FC910190F081E02DD8
:100D600060E009959091A00420914F0280919A0231
:100D7000213208F044C0309177023111FCCF32E0CB
:100D800030937702909376029FEF909375021092C2
:100D9000740220937302AAE2B2E0E1E5F2E090E08F
:100DA000291721F03D9131939F5FFACF1092720283
:100DB00090917202880F892B809372028091710248
:100DC000813061F410927102809172028093BB00B5
:100DD0008091BC0083FDF8CF85EC01C085EE809347
:100DE000BC00809177028230E1F3809175028F3FE1
:100DF00031F080917502803211F08091750210926D
:100E0000500210924F0210924A0280E090E00E943D
:100E10004F0488E292E00E94EB0489E791E00E948F
:100E2000B9048091AF04882331F08091A30490919C
:100E3000A4040E946F0C1092AC041092AB041092A8
:100E4000A6041092A5041092A8041092A704109270
:100E5000AE041092AF048BE992E09093A4048093C7
:100E6000A3048AE090E09093AA048093A90481E00F
:100E70008093AD0480E090E00E944F0488E292E00D
:100E80000E94EB0411E08091D004882309F498C1FA
:100E90008091A004909177029111FCCF109377027A
:100EA00010937602BFEFB093750210927402EEE1D8
:100EB000E09373021093720290917202880F892B53
:100EC0008093720280917102813071F410927102EC
:100ED000809172028093BB008091BC0083FDF8CFAB
:100EE000F5ECF093BC0003C025EE2093BC0080918C
:100EF00077028130E1F3809174028F3118F4909180
:100F0000740201C09FE1E1E5F2E0AAE7B2E080E00F
:100F1000891721F021912D938F5FFACF10927902DA
:100F2000809378028F3109F0A6C08FB7F894409073
:100F3000EC035090ED036090EE037090EF038FBFD1
:100F4000F12C80919E0490919F04DC01ED91FC9125
:100F50000084F185E02D0995892BB1F001E00F0D9A
:100F600080919E0490919F04DC01ED91FC9102849C
:100F7000F385E02D0995E1E0F0E0EC0FFD1FEF0DAA
:100F8000F11D8083F02EDDCF8B81082F0F702A8119
:100F900030E0002309F472C08C818F7090E0982FAC
:100FA00088274D81FC01E42BFFAFEEAF8E818F705F
:100FB00090E0982F88274F81BC01642B24967FAF47
:100FC0006EAF2497013009F459C08A858F7090E084
:100FD000982F88274B85DC01A42B2696BFAFAEAF98
:100FE00026978C858F7090E0982F88274D855C011F
:100FF000A42A023009F442C088898F7090E0982FAB
:1010000088274989FC01E42B2296FFAFEEAF229797
:101010008A898F7090E0982F88274B896C01C42AA9
:10102000033061F18E898F7090E0982F88274F8967
:101030004C01842A888D8F7090E0982F8827498DE5
:10104000BC01642B28967FAF6EAF28970430B1F0B7
:101050008C8D8F7090E0982F88274D8DDC01A42B0C
:10106000BDAFACAF8E8D8F7090E0982F88274F8DDD
:101070001C01242A03C081E090E003C0790180E0D4
:1010800090E0892B09F091C01092D0042FB7F8940A
:101090008091EC039091ED03A091EE03B091EF03EA
:1010A0002FBF8093CB049093CC04A093CD04B09336
:1010B000CE048091B004801364C08091B1049091FB
:1010C000B204EEADFFAD8E179F0709F05AC08091B4
:1010D000B3049091B40424962EAD3FAD24978217AB
:1010E000930709F04EC08091B5049091B6042696FE
:1010F0006EAD7FAD26978617970709F042C08091A5
:10110000B7049091B804A816B906D9F58091B9042E
:101110009091BA042296AEADBFAD2297A817B90739
:1011200081F58091BB049091BC04C816D90649F59D
:101130008091BD049091BE048816990611F58091A6
:10114000BF049091C0042896EEADFFAD28978E178E
:101150009F07B9F48091C1049091C2042CAD3DADBC
:101160002817390771F48091C3049091C40428169C
:10117000390639F48091C5049091C6048E159F05F7
:10118000A1F0E091A304F091A404309709F422C2E5
:101190008091A9049091AA04892B09F41BC2809123
:1011A000AD048111ADC11093CF046091AB04709177
:1011B000AC0480E090E04AE00E9478040E9474044D
:1011C0008091AB049091AC04089708F48CC1809195
:1011D000AB049091AC04892B09F485C1E091A30480
:1011E000F091A404309709F450C04091A9045091A3
:1011F000AA044115510509F448C08091AE04882322
:1012000009F443C06091A7047091A8049B012F5F6B
:101210003F4F3093A8042093A704BBE1B69FC001C1
:10122000B79F900D1124E80FF91FDE0111968BE195
:1012300001900D928A95E1F72417350720F010925E
:10124000A8041092A7042091A7043091A8048091CB
:10125000A5049091A6042817390711F41092AE0442
:101260008091AB049091AC049C01215031093093E2
:10127000AC042093AB04892B11F41092CF0410938B
:10128000AD048BE1FE01319605C01092CF048BE1D5
:10129000E0EBF4E0DE01909601900D928A95E1F783
:1012A000E8A1EBAF29A13AA162963FAF2EAF6297BA
:1012B0006BA17CA16C967FAF6EAF6C978DA19EA148
:1012C0002E969FAF8EAF2E97AFA1B8A56A96BFAFEF
:1012D000AEAF6A97E9A5FAA56696FFAFEEAF66973F
:1012E0002BA53CA564963FAF2EAF64976DA57EA558
:1012F00068967FAF6EAF68978FA598A96E969FAFDF
:101300008EAF6E97A9A9BAA96096BFAFAEAF60972E
:10131000EBA9FCA9A096FFAFEEAFA0976FA978AD9F
:1013200089AD9AAD2C966CAF7DAF8EAF9FAF2C97E9
:1013300083E991E00E94B90487EA91E00E94B90430
:101340004AE02C966CAD7DAD8EAD9FAD2C970E9482
:10135000780483EB91E00E94B90487EB91E00E944E
:10136000B904ABAD6A2F70E080E090E04AE00E94E3
:10137000780483EB91E00E94B904BBADBB2309F470
:10138000AFC08BEC91E00E94B90481E090E00E9434
:10139000BB0482ED91E00E94B90462968EAD9FADD0
:1013A00062970E94BB0488ED91E00E94B9046C969C
:1013B0008EAD9FAD6C970E94BB0483EB91E00E94C1
:1013C000B904EBADE23008F48BC08BEC91E00E94E5
:1013D000B90482E090E00E94BB0482ED91E00E949B
:1013E000B9042E968EAD9FAD2E970E94BB0488ED5A
:1013F00091E00E94B9046A968EAD9FAD6A970E94F3
:10140000BB0483EB91E00E94B904FBADF23009F418
:1014100067C08BEC91E00E94B90483E090E00E94E9
:10142000BB0482ED91E00E94B90466968EAD9FAD3B
:1014300066970E94BB0488ED91E00E94B90464960F
:101440008EAD9FAD64970E94BB0483EB91E00E9438
:10145000B9042BAD233009F443C08BEC91E00E941A
:10146000B90484E090E00E94BB0482ED91E00E9408
:10147000B90468968EAD9FAD68970E94BB0488ED55
:1014800091E00E94B9046E968EAD9FAD6E970E945A
:10149000BB0483EB91E00E94B9043BAD343001F111
:1014A0008BEC91E00E94B90485E090E00E94BB04BF
:1014B00082ED91E00E94B90460968EAD9FAD609779
:1014C0000E94BB0488ED91E00E94B904A0968EAD05
:1014D0009FADA0970E94BB0483EB91E00E94B904EA
:1014E0000E94740474CE0E948A01CDCC81E0CDCBE1
:1014F00080916900837F886080936900E99AD9CBE5
:101500002091A5043091A604C90101969093A604E8
:101510008093A5044BE1429FC001439F900D11248D
:10152000E80FF91F00836EAD7FAD7283618324964F
:101530008EAD9FAD2497948383832696AEADBFADC9
:101540002697B683A583B086A78222962EAD3FAD9F
:10155000229732872187D486C386968685862896E9
:101560006EAD7FAD2897708B67878CAD9DAD928BEC
:10157000818B348A238AF68AE58A478A508E618E67
:10158000728E1093AE048091AB049091AC040196DE
:101590009093AC048093AB042091A5043091A604F1
:1015A0008091A9049091AA042817390720F010927D
:1015B000A6041092A5042091A5043091A604809160
:1015C000A7049091A8042817390709F0ECCD1092D0
:1015D000AD04E9CD0093B004AEADBFADB093B2049D
:1015E000A093B1042496EEADFFAD2497F093B4041C
:1015F000E093B30426962EAD3FAD26973093B60404
:101600002093B504B092B804A092B70422966EADB0
:101610007FAD22977093BA046093B904D092BC0452
:10162000C092BB049092BE048092BD0428968EADF9
:101630009FAD28979093C0048093BF04ACADBDAD1F
:10164000B093C204A093C1043092C4042092C30496
:10165000F092C604E092C5044092C7045092C804B8
:101660006092C9047092CA049ECDE0EFF3E0138249
:10167000128288EE93E0A0E0B0E084839583A68395
:10168000B7832EE031E03183208325EC30E03587CD
:10169000248724EC30E03787268720EC30E0318B3C
:1016A000208B21EC30E0338B228B22EC30E0358B29
:1016B000248B26EC30E0378B268B118E128E138E06
:1016C000148EEDE8F4E01382128284839583A6835E
:1016D000B78380E291E091838083E9E9F4E01282AC
:1016E00081E090E0948383831682158288E390E002
:1016F000908787838FEF81871386128615861486DD
:1017000017861686118A108A138A128A148A158AF5
:10171000168A16AA17AA12AA13AA14AA15AA178A11
:10172000118E108E138E128E158E148E178E168EAD
:1017300011A210A213A212A215A214A217A216A2FD
:1017400011A610A613A612A615A614A616A617A6CD
:1017500010AA11AA82E391E0918380830895A1E207
:101760001A2EAA1BBB1BFD010DC0AA1FBB1FEE1F1B
:10177000FF1FA217B307E407F50720F0A21BB30B66
:10178000E40BF50B661F771F881F991F1A9469F7E2
:1017900060957095809590959B01AC01BD01CF013E
:1017A0000895EE0FFF1F0590F491E02D09940F931B
:1017B0001F93CF93DF938230910510F482E090E085
:1017C000E091D804F091D90420E030E0A0E0B0E04E
:1017D000309719F1408151810281138148175907CF
:1017E000C8F08417950769F4109731F012960C939E
:1017F000129713961C9327C00093D8041093D90412
:1018000022C02115310519F04217530718F49A0127
:10181000BD01EF01DF01F801DBCF21153105F9F042
:10182000281B390B2430310580F48A819B81611596
:10183000710521F0FB019383828304C09093D90446
:101840008093D804FE01329644C0FE01E20FF31FDC
:101850008193919322503109398328833AC0209192
:10186000D6043091D704232B41F420910601309106
:1018700007013093D7042093D604209104013091BE
:1018800005012115310541F42DB73EB740910801FE
:1018900050910901241B350BE091D604F091D70437
:1018A000E217F307A0F42E1B3F0B2817390778F037
:1018B000AC014E5F5F4F2417350748F04E0F5F1F96
:1018C0005093D7044093D6048193919302C0E0E0F3
:1018D000F0E0CF01DF91CF911F910F910895CF9349
:1018E000DF93009709F481C0FC01329713821282C2
:1018F000A091D804B091D904109781F4208131814E
:10190000820F931F2091D6043091D70428173907EE
:1019100051F5F093D704E093D60467C0ED0120E0C1
:1019200030E0CE17DF0740F44A815B819E0141150C
:101930005105F1F0EA01F5CFD383C2834081518193
:10194000840F951FC817D90759F488819981840F8E
:10195000951F0296918380838A819B8193838283E2
:101960002115310529F4F093D904E093D8043DC042
:10197000E901FB83EA8349915991C40FD51FEC1704
:10198000FD0761F480819181840F951F0296E90122
:1019900099838883828193819B838A83E0E0F0E04E
:1019A00012968D919C911397009719F0FD01DC011F
:1019B000F7CF8D919C9111979D012E5F3F4F820F24
:1019C000931F2091D6043091D7042817390769F462
:1019D000309729F41092D9041092D80402C01382CF
:1019E0001282B093D704A093D604DF91CF910895CB
:0E19F00081E090E0F8940C94FD0CF894FFCF89
:1019FE00870087000000DA048000000000001B0151
:101A0E008800B2006801E300C100D50000000000AC
:101A1E002102F4015102C801EC01D801C9010000F4
:101A2E000000C8014578616D706C65393939202D1B
:101A3E002054657374696E67202D204654353331FA
:101A4E0036204354502044726976657200426567B1
:101A5E00696E6E696E6720746865204354502E203F
:101A6E005374617475733A2000416464696E672023
:101A7E0061206275666665722E205374617475738B
:101A8E003A2000546F756368207265636F7264202C
:101A9E00696E666F3A200054696D657374616D707E
:101AAE003A2000203A20004E756D626572206F66F6
:101ABE0020746F75636865733A2000546F756368A0
:101ACE0020002C20783A20002C20793A2000496EF4
:101ADE0074657272757074212066726F6D20616408
:101AEE0064726573733A203078004E6F6D696E6163
:101AFE006C004572726F72004E6F7420456E6F757A
:101B0E00676820436F726500556E6B6E6F776E203F
:0A1B1E00737461747573000D0A0002
:00000001FF
