:100000000C9458000C9416030C94EF020C9480008E
:100010000C9480000C9480000C9480000C94800060
:100020000C9480000C9480000C9480000C94800050
:100030000C9480000C9480000C9480000C94800040
:100040000C94A5020C9480000C9473020C944D0245
:100050000C9480000C9480000C9480000C94800020
:100060000C943D030C948000000000002500280043
:100070002B00040404040404040402020202020229
:10008000030303030303010204081020408001025C
:1000900004081020010204081020000000080002DB
:1000A0000100000304070000000000000000400AF7
:1000B00011241FBECFEFD8E0DEBFCDBF11E0A0E01E
:1000C000B1E0E2EDF5E102C005900D92AC3CB10764
:1000D000D9F723E0ACECB1E001C01D92AA36B2071B
:1000E000E1F710E0C8E5D0E004C02197FE010E94CE
:1000F000DC0AC735D107C9F70E943C050C94E70A12
:100100000C940000CF92DF92EF92FF920F931F9317
:10011000CF93DF936C017A018B01C0E0D0E0CE1564
:10012000DF0589F0D8016D918D01D601ED91FC912B
:100130000190F081E02DC6010995892B11F47E0113
:1001400002C02196ECCFC701DF91CF911F910F9193
:10015000FF90EF90DF90CF900895FC01538D448D78
:10016000252F30E0842F90E0821B930B541710F062
:10017000CF96089501970895FC01918D828D98176F
:1001800061F0828DDF01A80FB11D5D968C91928D7B
:100190009F5F9F73928F90E008958FEF9FEF089578
:1001A000FC01918D828D981731F0828DE80FF11D41
:1001B000858D90E008958FEF9FEF0895FC01918D5C
:1001C000228D892F90E0805C9F4F821B91098F7355
:1001D0009927089589E892E00E94DE0021E0892BAA
:1001E00009F420E0822F0895FC01848DDF01A80F1F
:1001F000B11DA35ABF4F2C91848D90E001968F734F
:100200009927848FA689B7892C93A089B1898C916D
:1002100080648C93938D848D981306C00288F38933
:10022000E02D80818F7D80830895EF92FF920F9360
:100230001F93CF93DF93EC0181E0888F9B8D8C8D92
:10024000981305C0E889F989808185FD24C0F62EC0
:100250000B8D10E00F5F1F4F0F731127E02E8C8D59
:10026000E8120CC00FB607FCFACFE889F989808143
:1002700085FFF5CFCE010E94F400F1CF8B8DFE01FA
:10028000E80FF11DE35AFF4FF0820B8FEA89FB89DB
:100290008081806207C0EE89FF896083E889F989DF
:1002A00080818064808381E090E0DF91CF911F9115
:1002B0000F91FF90EF900895CF93DF93EC01888D1D
:1002C0008823C9F0EA89FB89808185FD05C0A8895A
:1002D000B9898C9186FD0FC00FB607FCF5CF8081E0
:1002E00085FFF2CFA889B9898C9185FFEDCFCE012A
:1002F0000E94F400E7CFDF91CF91089580E090E075
:10030000892B29F00E94EA0081110C9400000895C5
:10031000089585ED8093BC008091BC0084FDFCCFE6
:100320001092660208954091EE01262F30E0240FCE
:10033000311D21323105DCF4209166022430C9F4EC
:10034000FC0180E090E0861758F43091EE01219195
:10035000DC01A453BE4FA30FB11D2C930196F3CF24
:100360008091EE01680F6093EE0180E0089581E0D6
:10037000089582E008950895E091680280916702EF
:10038000E81730F4F0E0E759FD4F808190E00895E0
:100390008FEF9FEF08959091680280916702981700
:1003A00050F4E92FF0E0E759FD4F208130E09F5FE6
:1003B0009093680202C02FEF3FEFC901089580912A
:1003C000670290E020916802821B91090895CF9204
:1003D000DF92EF92FF920F931F93CF93DF937C01F5
:1003E000262F972F8A0180913902882391F0C62FFA
:1003F000D72F6E01C40ED51ECC15DD0571F06991A5
:10040000D701ED91FC910190F081E02DC701099594
:10041000F3CF642F822F0E949301C801DF91CF9107
:100420001F910F91FF90EF90DF90CF900895CF93A1
:10043000DF931F92CDB7DEB7698320913902222363
:10044000D1F020913A02203240F021E030E0FC016E
:100450003383228380E090E015C080913B02E82F37
:10046000F0E0E85EFD4F998190838F5F80933B02BF
:1004700080933A0205C061E0CE0101960E9493018B
:1004800081E090E00F90DF91CF910895089580E092
:1004900090E0089508950E94E20A1F920F920FB60D
:1004A0000F9211242F933F934F935F936F937F93FA
:1004B0008F939F93AF93BF93EF93FF9389E892E05D
:1004C0000E94F400FF91EF91BF91AF919F918F91A6
:1004D0007F916F915F914F913F912F910F900FBE40
:1004E0000F901F9018951F920F920FB60F92112424
:1004F0002F938F939F93EF93FF93E0919902F09145
:100500009A028081E0919F02F091A00282FD12C0C8
:1005100090818091A2028F5F8F732091A302821736
:1005200051F0E091A202F0E0E757FD4F958F8093E4
:10053000A20201C08081FF91EF919F918F912F9135
:100540000F900FBE0F901F9018951F920F920FB62D
:100550000F9211242F933F938F939F93AF93BF9349
:1005600080913C0290913D02A0913E02B0913F02E9
:100570003091170223E0230F2D3720F40196A11D9F
:10058000B11D05C026E8230F0296A11DB11D2093C1
:10059000170280933C0290933D02A0933E02B093D9
:1005A0003F028091130290911402A0911502B09124
:1005B00016020196A11DB11D80931302909314029F
:1005C000A0931502B0931602BF91AF919F918F91A6
:1005D0003F912F910F900FBE0F901F9018951F9273
:1005E0000F920FB60F9211242F933F934F935F9367
:1005F0006F937F938F939F93AF93BF93EF93FF93EB
:10060000E0910201F09103010995FF91EF91BF91F3
:10061000AF919F918F917F916F915F914F913F919A
:100620002F910F900FBE0F901F9018951F920F9251
:100630000FB60F9211242F933F934F935F936F93B5
:100640007F938F939F93AF93BF93EF93FF93E0912B
:100650000001F09101010995FF91EF91BF91AF91D8
:100660009F918F917F916F915F914F913F912F91CA
:100670000F900FBE0F901F9018951F920F920FB6FC
:100680000F9211242F933F934F935F936F937F9318
:100690008F939F93AF93BF93EF93FF938091B90094
:1006A000887F803609F49CC068F5883209F45BC005
:1006B00090F4803109F454C038F4882309F4F6C06A
:1006C000883009F44DC0F6C0883109F44CC080323E
:1006D00009F45DC0EFC0803409F468C048F4803389
:1006E00009F455C0883309F0E5C080936402D8C08E
:1006F000803509F44FC0883509F45DC0883409F0AD
:10070000D9C0D6C0883909F4C7C0A8F4883709F41D
:1007100067C038F4883609F463C0803709F460C0D4
:10072000C9C0883809F4B8C0803909F45FC080387E
:1007300009F0C0C05BC0803B09F486C038F4803A41
:1007400009F466C0883A09F47FC0B4C0803C09F45B
:10075000A7C0883C09F4A4C0883B09F48AC0AAC099
:100760008091610210C0909163028091620298179B
:1007700070F5E091630281E08E0F80936302F0E0F8
:10078000E05CFD4F80818093BB0085EC86C0809348
:1007900064028EC0E091630281E08E0F8093630259
:1007A0008091BB00F0E0E05CFD4F8083909163029C
:1007B000809162026EC0E091630281E08E0F8093AF
:1007C00063028091BB00F0E0E05CFD4F808380918C
:1007D000650281116DC081E08093600284EA61C08E
:1007E00083E08093660210921202CFCF80911202B2
:1007F000803208F051C0E091120281E08E0F8093A8
:1008000012028091BB00F0E0EE50FE4F8083BDCF1E
:1008100085EC8093BC0010926602809112028032B7
:1008200030F4E0911202F0E0EE50FE4F1082609141
:10083000120270E0E091F001F091F10182EF91E09D
:1008400009951092120236C084E0809366021092DD
:10085000EF011092EE01E091EC01F091ED010995AC
:100860008091EE01811105C081E08093EE0110922C
:10087000CC01E091EF0181E08E0F8093EF01F0E079
:10088000E453FE4F80818093BB009091EF018091F3
:10089000EE01981708F479CF85E88093BC000AC070
:1008A00085EC8093BC001092660204C01092640232
:1008B0000E948901FF91EF91BF91AF919F918F911C
:1008C0007F916F915F914F913F912F910F900FBE4C
:1008D0000F901F901895009769F0FC01019000207F
:1008E000E9F73197AF01481B590BBC0189E892E049
:1008F0000C94820080E090E008950C946B048F9239
:100900009F92AF92BF920F931F93CF93DF93CDB778
:10091000DEB7A1970FB6F894DEBF0FBECDBF19A208
:10092000423008F44AE08E010F5D1F4F842E912C57
:10093000A12CB12CA50194010E94BA0AE62FB9019D
:10094000CA0101501109EA3014F4E05D01C0E95C0C
:10095000D801EC93232B242B252B61F7C8010E948F
:100960006B04A1960FB6F894DEBF0FBECDBFDF912A
:10097000CF911F910F91BF90AF909F908F9008954E
:10098000CF92DF92EF92FF92CF93DF936C01990F9A
:10099000EE08FF08F7FE1FC0E0918902F0918A027D
:1009A0000190F081E02D6DE289E892E00995EC017B
:1009B00066277727CB016C197D098E099F094AE0CC
:1009C0000E947F048C0F9D1FDF91CF91FF90EF90CD
:1009D000DF90CF9008954AE0C701B601DF91CF9133
:1009E000FF90EF90DF90CF900C947F0490E0FC019B
:1009F000E656FF4F2491FC01EA57FF4F3491FC016A
:100A0000EE58FF4FE491EE23B1F1222339F1233068
:100A100091F038F42130A9F0223001F584B58F7DB2
:100A200012C0273091F02830A1F02430B9F4809121
:100A300080008F7D03C0809180008F77809380003D
:100A40000DC084B58F7784BD09C08091B0008F77C9
:100A500003C08091B0008F7D8093B000F0E0EE0F76
:100A6000FF1FE859FF4FA591B4918FB7F894EC910F
:100A70003E2B3C938FBF0895CF93DF93CDB7DEB766
:100A8000CF55D1090FB6F894DEBF0FBECDBF789415
:100A900084B5826084BD84B5816084BD85B5826083
:100AA00085BD85B5816085BD80916E008160809334
:100AB0006E0010928100809181008260809381009D
:100AC00080918100816080938100809180008160AD
:100AD000809380008091B10084608093B100809108
:100AE000B00081608093B00080917A008460809330
:100AF0007A0080917A00826080937A0080917A00F7
:100B0000816080937A0080917A00806880937A0077
:100B10001092C100E0919902F0919A0282E08083E4
:100B2000E0919502F09196021082E0919702F09187
:100B3000980280E180831092A102E0919D02F091E1
:100B40009E0286E08083E0919B02F0919C0280816E
:100B500080618083E0919B02F0919C02808188609B
:100B60008083E0919B02F0919C0280818068808369
:100B7000E0919B02F0919C0280818F7D80838EE2C8
:100B800091E00E946B048AE591E00E946B048AE583
:100B900091E00E946B048DE591E00E947D0486E265
:100BA00093E0909338038093370310926802109279
:100BB000670210923B0210923A021092660211E014
:100BC000109365021092600282E10E94F60483E1B4
:100BD0000E94F6048091B9008E7F8093B9008091C5
:100BE000B9008D7F8093B90088E48093B80085E4D4
:100BF0008093BC00809139031093390280933802AE
:100C000010923B0210923A02809137039091380380
:100C1000DC01ED91FC910190F081E02D60E00995FF
:100C20008091370390913803DC01ED91FC910190A4
:100C3000F081E02D60E009958091390330913A020E
:100C400020913802313208F045C09091660291112E
:100C5000FCCF92E090936602809365028FEF8093C1
:100C600064021092630230936202A8E1B2E080E471
:100C700092E0FC014E2F481B431718F44D9141930D
:100C8000F9CF1092610280916102220F282B2093EC
:100C9000610280916002813061F410926002809163
:100CA00061028093BB008091BC0083FDF8CF85EC8E
:100CB00001C085EE8093BC00809166028230E1F332
:100CC000809164028F3F31F080916402803211F094
:100CD0008091640210923B0210923A021092390203
:100CE00089E791E00E947D048BE591E00E946B040E
:100CF0008AE591E00E946B0411E0809139039091A4
:100D000066029111FCCF1093660210936502BFEF4B
:100D1000B0936402109263022EE12093620210935A
:100D2000610290916102880F892B8093610280910A
:100D30006002813071F410926002809161028093B0
:100D4000BB008091BC0083FDF8CF35EC3093BC0034
:100D500003C045EE4093BC00809166028130E1F310
:100D6000809163028F3118F48091630201C08FE19A
:100D7000A0E4B2E0E9E6F2E09E2F69E672E0961B9D
:100D8000981718F49D919193F7CF10926802809371
:100D900067028F3109F0A3C08FB7F89420913C020D
:100DA00030913D0240913E0250913F0228962CAF77
:100DB0003DAF4EAF5FAF28978FBFF12C80913703C7
:100DC00090913803DC01ED91FC910084F185E02DD8
:100DD0000995892BB1F001E00F0D809137039091B7
:100DE0003803DC01ED91FC910284F385E02D099537
:100DF000E1E0F0E0EC0FFD1FEF0DF11D8083F02E20
:100E0000DDCF8B81082F0F702A8130E0002309F499
:100E100069C08C818F7090E0982F88274D81BC012C
:100E2000642B24967FAF6EAF24978E818F7090E0F5
:100E3000982F88274F81DC01A42B2296BFAFAEAF3D
:100E40002297013009F44EC08A858F7090E0982F68
:100E500088274B854C01842A8C858F7090E0982FD1
:100E600088274D852C01442A0230E1F188898F7052
:100E700090E0982F882749891C01242A8A898F703D
:100E800090E0982F88274B893C01642A033051F168
:100E90008E898F7090E0982F88274F89BC01642B32
:100EA0007DAF6CAF888D8F7090E0982F8827498D2B
:100EB0006C01C42A0430B1F08C8D8F7090E0982FB3
:100EC00088274D8D5C01A42A8E8D8F7090E0982F1D
:100ED00088274F8DDC01A42BBFAFAEAF03C081E0EC
:100EE00090E003C0790180E090E0892B09F089C08F
:100EF000109269032FB7F89480913C0290913D02C3
:100F0000A0913E02B0913F022FBF80936403909363
:100F10006503A0936603B0936703809149030813A8
:100F20005BC080914A0390914B0324962EAD3FAD58
:100F300024972817390709F04FC080914C039091EE
:100F40004D0322962EAD3FAD22972817390709F0A1
:100F500043C080914E0390914F0388169906E1F5A6
:100F6000809150039091510348165906A9F580913C
:100F70005203909153032816390671F5809154035A
:100F8000909155036816790639F580915603909132
:100F900057032CAD3DAD28173907F1F48091580364
:100FA00090915903C816D906B9F480915A039091CB
:100FB0005B03A816B90681F480915C0390915D03F0
:100FC0002EAD3FAD2817390739F480915E0390911B
:100FD0005F03E816F906A9F020913C0330913D0328
:100FE0002115310509F403C2809142039091430316
:100FF000892B09F4FCC18091460381118FC11093A4
:10100000680380916803882309F485C1E0913C035B
:10101000F0913D03309709F44FC020914203309185
:1010200043032115310509F447C080914703882304
:1010300009F442C06091400370914103AB014F5FDE
:101040005F4F5093410340934003ABE1A69FC00123
:10105000A79F900D1124E80FF91FDE0111968BE177
:1010600001900D928A95E1F74217530720F01092F4
:10107000410310924003209140033091410380913D
:101080003E0390913F032817390711F4109247034C
:1010900080914403909145039C0121503109309384
:1010A000450320934403892B11F410926803109395
:1010B0004603FE01319604C010926803E9E4F3E0B0
:1010C000DE0190968BE101900D928A95E1F728A1BF
:1010D0002BAF29A13AA12C963FAF2EAF2C972BA175
:1010E0003CA168963FAF2EAF68972DA13EA16096B8
:1010F0003FAF2EAF60972FA138A56A963FAF2EAFB6
:101100006A9729A53AA56C963FAF2EAF6C972BA591
:101110003CA56E963FAF2EAF6E972DA53EA52E96A1
:101120003FAF2EAF2E972FA538A92A963FAF2EAFEF
:101130002A9729A93AA966963FAF2EAF66972BA9A1
:101140003CA9A0963FAF2EAFA0976FA978AD89AD0F
:101150009AAD64966CAF7DAF8EAF9FAF649781E818
:1011600091E00E947D0485E991E00E947D044AE0BF
:1011700064966CAD7DAD8EAD9FAD64970E947F048B
:1011800081EA91E00E947D0485EA91E00E947D045D
:101190002BAD622F70E080E090E04AE00E947F0477
:1011A00081EA91E00E947D043BAD332309F4AFC096
:1011B00089EB91E00E947D0481E090E00E94C004F0
:1011C00080EC91E00E947D042C968EAD9FAD2C9713
:1011D0000E94C00486EC91E00E947D0468968EAD6A
:1011E0009FAD68970E94C00481EA91E00E947D044F
:1011F0005BAD523008F48BC089EB91E00E947D0416
:1012000082E090E00E94C00480EC91E00E947D04A6
:1012100060968EAD9FAD60970E94C00486EC91E011
:101220000E947D046A968EAD9FAD6A970E94C004AD
:1012300081EA91E00E947D042BAD223009F467C061
:1012400089EB91E00E947D0483E090E00E94C0045D
:1012500080EC91E00E947D046C968EAD9FAD6C9702
:101260000E94C00486EC91E00E947D046E968EADD3
:101270009FAD6E970E94C00481EA91E00E947D04B8
:101280003BAD333009F443C089EB91E00E947D040B
:1012900084E090E00E94C00480EC91E00E947D0414
:1012A0002E968EAD9FAD2E970E94C00486EC91E0E5
:1012B0000E947D042A968EAD9FAD2A970E94C0049D
:1012C00081EA91E00E947D045BAD543001F189EB2D
:1012D00091E00E947D0485E090E00E94C00480ECD3
:1012E00091E00E947D0466968EAD9FAD66970E9448
:1012F000C00486EC91E00E947D04A0968EAD9FAD67
:10130000A0970E94C00481EA91E00E947D048AE5D2
:1013100091E00E946B040E947E01EFCC40913E035D
:1013200050913F03CA01019690933F0380933E037F
:101330006BE1649FC001659F900D1124F901E80FD6
:10134000F91F008324962EAD3FAD2497328321836D
:1013500022962EAD3FAD22973483238396828582D9
:101360005086478232862186748663862CAD3DADD9
:1013700036872587D08AC786B28AA18A2EAD3FAD2F
:10138000348B238BF68AE58A28962CAD3DAD4EAD85
:101390005FAD2897278B308F418F528F1093470373
:1013A0008091440390914503019690934503809367
:1013B000440320913E0330913F038091420390917A
:1013C00043032817390720F010923F0310923E0381
:1013D00020913E0330913F0380914003909141035F
:1013E0002817390709F00BCE1092460308CE009358
:1013F000490324962EAD3FAD249730934B032093A1
:101400004A0322962EAD3FAD229730934D03209391
:101410004C0390924F0380924E035092510340929E
:1014200050033092530320925203709255036092FE
:1014300054032CAD3DAD3093570320935603D09207
:101440005903C0925803B0925B03A0925A032EAD89
:101450003FAD30935D0320935C03F0925F03E09215
:101460005E0328962CAD3DAD4EAD5FAD2897209321
:101470006003309361034093620350936303BFCDD5
:10148000E9E8F2E01382128288EE93E0A0E0B0E097
:1014900084839583A683B78328E031E0318320835A
:1014A00025EC30E03587248724EC30E03787268729
:1014B00020EC30E0318B208B21EC30E0338B228B21
:1014C00022EC30E0358B248B26EC30E0378B268BFA
:1014D000118E128E138E148EE6E2F3E013821282C6
:1014E00084839583A683B7838AE191E09183808387
:1014F000E2E3F3E0128281E090E09483838316823A
:10150000158288E390E0908787838FEF8187138629
:1015100012861586148617861686118A108A138AF3
:10152000128A148A158A168A16AA17AA12AA13AA48
:1015300014AA15AA178A118E108E138E128E158E6C
:10154000148E178E168E11A210A213A212A215A22B
:1015500014A217A216A211A610A613A612A615A6CB
:1015600014A616A617A610AA11AA8CE291E09183E0
:1015700080830895A1E21A2EAA1BBB1BFD010DC09A
:10158000AA1FBB1FEE1FFF1FA217B307E407F50733
:1015900020F0A21BB30BE40BF50B661F771F881F0F
:1015A000991F1A9469F760957095809590959B01A5
:1015B000AC01BD01CF010895EE0FFF1F0590F4911E
:1015C000E02D099481E090E0F8940C94E70AF894F7
:0215D000FFCF4B
:1015D200880188010000000015018200AD005C0155
:1015E200DE00BC00D000000000001702E701470245
:1015F200BB01DF01CB01BC01000000004A024578BB
:10160200616D706C6531202D2046543533313620A2
:10161200435450204472697665722053696D706C30
:10162200652053656E73696E67000D0A0042656737
:10163200696E6E696E6720746865204354502E206F
:101642005374617475733A20004E6F6D696E616CEC
:1016520000546F756368207265636F726420696EEF
:10166200666F3A200054696D657374616D703A203B
:1016720000203A20004E756D626572206F662074FC
:101682006F75636865733A2000546F756368200054
:0C1692002C20783A20002C20793A20000F
:107E0000112484B714BE81FFF0D085E080938100F7
:107E100082E08093C00088E18093C10086E0809377
:107E2000C20080E18093C4008EE0C9D0259A86E02C
:107E300020E33CEF91E0309385002093840096BBD3
:107E4000B09BFECF1D9AA8958150A9F7CC24DD24C4
:107E500088248394B5E0AB2EA1E19A2EF3E0BF2EE7
:107E6000A2D0813461F49FD0082FAFD0023811F036
:107E7000013811F484E001C083E08DD089C08234E0
:107E800011F484E103C0853419F485E0A6D080C0E4
:107E9000853579F488D0E82EFF2485D0082F10E0AE
:107EA000102F00270E291F29000F111F8ED06801E7
:107EB0006FC0863521F484E090D080E0DECF843638
:107EC00009F040C070D06FD0082F6DD080E0C81688
:107ED00080E7D80618F4F601B7BEE895C0E0D1E017
:107EE00062D089930C17E1F7F0E0CF16F0E7DF06D8
:107EF00018F0F601B7BEE89568D007B600FCFDCFD4
:107F0000A601A0E0B1E02C9130E011968C91119780
:107F100090E0982F8827822B932B1296FA010C0160
:107F200087BEE89511244E5F5F4FF1E0A038BF0790
:107F300051F7F601A7BEE89507B600FCFDCF97BE46
:107F4000E89526C08437B1F42ED02DD0F82E2BD052
:107F50003CD0F601EF2C8F010F5F1F4F84911BD097
:107F6000EA94F801C1F70894C11CD11CFA94CF0C13
:107F7000D11C0EC0853739F428D08EE10CD085E9AC
:107F80000AD08FE07ACF813511F488E018D01DD067
:107F900080E101D065CF982F8091C00085FFFCCF94
:107FA0009093C60008958091C00087FFFCCF809118
:107FB000C00084FD01C0A8958091C6000895E0E648
:107FC000F0E098E1908380830895EDDF803219F02E
:107FD00088E0F5DFFFCF84E1DECF1F93182FE3DFCA
:107FE0001150E9F7F2DF1F91089580E0E8DFEE27F6
:047FF000FF270994CA
:027FFE00040479
:0400000300007E007B
:00000001FF
