:100000000C9458000C9416030C94EF020C9480008E
:100010000C9480000C9480000C9480000C94800060
:100020000C9480000C9480000C9480000C94800050
:100030000C9480000C9480000C9480000C94800040
:100040000C94A5020C9480000C9473020C944D0245
:100050000C9480000C9480000C9480000C94800020
:100060000C943D030C948000000000002500280043
:100070002B00040404040404040402020202020229
:10008000030303030303010204081020408001025C
:1000900004081020010204081020000000080002DB
:1000A0000100000304070000000000000000180B1E
:1000B00011241FBECFEFD8E0DEBFCDBF13E0A0E01C
:1000C000B1E0E0E8F7E102C005900D92AE34B1076F
:1000D000D9F724E0AEE4B3E001C01D92AB3EB20715
:1000E000E1F710E0C8E5D0E004C02197FE010E94CE
:1000F000B30BC735D107C9F70E948D050C94BE0B11
:100100000C940000CF92DF92EF92FF920F931F9317
:10011000CF93DF936C017A018B01C0E0D0E0CE1564
:10012000DF0589F0D8016D918D01D601ED91FC912B
:100130000190F081E02DC6010995892B11F47E0113
:1001400002C02196ECCFC701DF91CF911F910F9193
:10015000FF90EF90DF90CF900895FC01538D448D78
:10016000252F30E0842F90E0821B930B541710F062
:10017000CF96089501970895FC01918D828D98176F
:1001800061F0828DDF01A80FB11D5D968C91928D7B
:100190009F5F9F73928F90E008958FEF9FEF089578
:1001A000FC01918D828D981731F0828DE80FF11D41
:1001B000858D90E008958FEF9FEF0895FC01918D5C
:1001C000228D892F90E0805C9F4F821B91098F7355
:1001D000992708958BE094E00E94DE0021E0892BAE
:1001E00009F420E0822F0895FC01848DDF01A80F1F
:1001F000B11DA35ABF4F2C91848D90E001968F734F
:100200009927848FA689B7892C93A089B1898C916D
:1002100080648C93938D848D981306C00288F38933
:10022000E02D80818F7D80830895EF92FF920F9360
:100230001F93CF93DF93EC0181E0888F9B8D8C8D92
:10024000981305C0E889F989808185FD24C0F62EC0
:100250000B8D10E00F5F1F4F0F731127E02E8C8D59
:10026000E8120CC00FB607FCFACFE889F989808143
:1002700085FFF5CFCE010E94F400F1CF8B8DFE01FA
:10028000E80FF11DE35AFF4FF0820B8FEA89FB89DB
:100290008081806207C0EE89FF896083E889F989DF
:1002A00080818064808381E090E0DF91CF911F9115
:1002B0000F91FF90EF900895CF93DF93EC01888D1D
:1002C0008823C9F0EA89FB89808185FD05C0A8895A
:1002D000B9898C9186FD0FC00FB607FCF5CF8081E0
:1002E00085FFF2CFA889B9898C9185FFEDCFCE012A
:1002F0000E94F400E7CFDF91CF91089580E090E075
:10030000892B29F00E94EA0081110C9400000895C5
:10031000089585ED8093BC008091BC0084FDFCCFE6
:100320001092E803089540917003262F30E0240FC7
:10033000311D21323105DCF42091E8032430C9F469
:10034000FC0180E090E0861758F430917003219111
:10035000DC01A25BBC4FA30FB11D2C930196F3CF20
:1003600080917003680F6093700380E0089581E0CE
:10037000089582E008950895E091EA038091E903E9
:10038000E81730F4F0E0E551FC4F808190E00895EB
:100390008FEF9FEF08959091EA038091E9039817FA
:1003A00050F4E92FF0E0E551FC4F208130E09F5FF1
:1003B0009093EA0302C02FEF3FEFC90108958091A7
:1003C000E90390E02091EA03821B91090895CF92FE
:1003D000DF92EF92FF920F931F93CF93DF937C01F5
:1003E000262F972F8A018091BB03882391F0C62F77
:1003F000D72F6E01C40ED51ECC15DD0571F06991A5
:10040000D701ED91FC910190F081E02DC701099594
:10041000F3CF642F822F0E949301C801DF91CF9107
:100420001F910F91FF90EF90DF90CF900895CF93A1
:10043000DF931F92CDB7DEB769832091BB032223E0
:10044000D1F02091BC03203240F021E030E0FC01EB
:100450003383228380E090E015C08091BD03E82FB4
:10046000F0E0E656FC4F998190838F5F8093BD0347
:100470008093BC0305C061E0CE0101960E94930108
:1004800081E090E00F90DF91CF910895089580E092
:1004900090E0089508950E94B90B1F920F920FB635
:1004A0000F9211242F933F934F935F936F937F93FA
:1004B0008F939F93AF93BF93EF93FF938BE094E061
:1004C0000E94F400FF91EF91BF91AF919F918F91A6
:1004D0007F916F915F914F913F912F910F900FBE40
:1004E0000F901F9018951F920F920FB60F92112424
:1004F0002F938F939F93EF93FF93E0911B04F091C1
:100500001C048081E0912104F091220482FD12C03C
:100510009081809124048F5F8F732091250482172E
:1005200051F0E0912404F0E0E55FFB4F958F80935C
:10053000240401C08081FF91EF919F918F912F91B1
:100540000F900FBE0F901F9018951F920F920FB62D
:100550000F9211242F933F938F939F93AF93BF9349
:100560008091BE039091BF03A091C003B091C103DD
:100570003091990323E0230F2D3720F40196A11D1C
:10058000B11D05C026E8230F0296A11DB11D2093C1
:1005900099038093BE039093BF03A093C003B093CD
:1005A000C1038091950390919603A0919703B09118
:1005B00098030196A11DB11D809395039093960316
:1005C000A0939703B0939803BF91AF919F918F91A0
:1005D0003F912F910F900FBE0F901F9018951F9273
:1005E0000F920FB60F9211242F933F934F935F9367
:1005F0006F937F938F939F93AF93BF93EF93FF93EB
:10060000E0910201F09103010995FF91EF91BF91F3
:10061000AF919F918F917F916F915F914F913F919A
:100620002F910F900FBE0F901F9018951F920F9251
:100630000FB60F9211242F933F934F935F936F93B5
:100640007F938F939F93AF93BF93EF93FF93E0912B
:100650000001F09101010995FF91EF91BF91AF91D8
:100660009F918F917F916F915F914F913F912F91CA
:100670000F900FBE0F901F9018951F920F920FB6FC
:100680000F9211242F933F934F935F936F937F9318
:100690008F939F93AF93BF93EF93FF938091B90094
:1006A000887F803609F49CC068F5883209F45BC005
:1006B00090F4803109F454C038F4882309F4F6C06A
:1006C000883009F44DC0F6C0883109F44CC080323E
:1006D00009F45DC0EFC0803409F468C048F4803389
:1006E00009F455C0883309F0E5C08093E603D8C00B
:1006F000803509F44FC0883509F45DC0883409F0AD
:10070000D9C0D6C0883909F4C7C0A8F4883709F41D
:1007100067C038F4883609F463C0803709F460C0D4
:10072000C9C0883809F4B8C0803909F45FC080387E
:1007300009F0C0C05BC0803B09F486C038F4803A41
:1007400009F466C0883A09F47FC0B4C0803C09F45B
:10075000A7C0883C09F4A4C0883B09F48AC0AAC099
:100760008091E30310C09091E5038091E403981712
:1007700070F5E091E50381E08E0F8093E503F0E0F2
:10078000EE53FC4F80818093BB0085EC86C0809344
:10079000E6038EC0E091E50381E08E0F8093E503D0
:1007A0008091BB00F0E0EE53FC4F80839091E50315
:1007B0008091E4036EC0E091E50381E08E0F8093A9
:1007C000E5038091BB00F0E0EE53FC4F8083809105
:1007D000E70381116DC081E08093E20384EA61C088
:1007E00083E08093E80310929403CFCF8091940329
:1007F000803208F051C0E091940381E08E0F809325
:1008000094038091BB00F0E0EC58FC4F8083BDCF97
:1008100085EC8093BC001092E803809194038032B1
:1008200030F4E0919403F0E0EC58FC4F10826091BA
:10083000940370E0E0917203F091730384E793E016
:1008400009951092940336C084E08093E8031092D7
:10085000710310927003E0916E03F0916F0309959C
:1008600080917003811105C081E080937003109224
:100870004E03E091710381E08E0F80937103F0E0ED
:10088000E25BFC4F80818093BB009091710380916B
:100890007003981708F479CF85E88093BC000AC0EC
:1008A00085EC8093BC001092E80304C01092E6032C
:1008B0000E948901FF91EF91BF91AF919F918F911C
:1008C0007F916F915F914F913F912F910F900FBE4C
:1008D0000F901F901895009769F0FC01019000207F
:1008E000E9F73197AF01481B590BBC018BE094E04D
:1008F0000C94820080E090E008958BE493E00C94E7
:100900006B040C946B048F929F92AF92BF920F93E3
:100910001F93CF93DF93CDB7DEB7A1970FB6F894AF
:10092000DEBF0FBECDBF19A2423008F44AE08E01EF
:100930000F5D1F4F842E912CA12CB12CA501940189
:100940000E94910BE62FB901CA0101501109EA304A
:1009500014F4E05D01C0E95CD801EC93232B242B57
:10096000252B61F7C8010E946B04A1960FB6F8947D
:10097000DEBF0FBECDBFDF91CF911F910F91BF9012
:10098000AF909F908F900895CF92DF92EF92FF9259
:10099000CF93DF936B017C01E0910B04F0910C0489
:1009A0000190F081E02D6DE28BE094E00995EC017F
:1009B00066277727CB016C197D098E099F094AE0CC
:1009C0000E9483048C0F9D1FDF91CF91FF90EF90C9
:1009D000DF90CF900895BC01990F880B990B97FD7C
:1009E0000C94C4044AE00C948304CF93DF93411524
:1009F000510559F4E0910B04F0910C040190F08141
:100A0000E02D8BE094E0099502C00E948304EC0184
:100A10000E947D048C0F9D1FDF91CF910895CF938D
:100A2000DF93AB01672B61F4E0910B04F0910C04B0
:100A30000190F081E02D682F8BE094E009950FC0C4
:100A4000BC01990F880B990B4A30510531F497FF7F
:100A500003C00E94C40403C04AE00E948304EC0166
:100A60000E947D048C0F9D1FDF91CF910895CF933D
:100A7000DF93BC0180E090E04AE00E948304EC0137
:100A80000E947D048C0F9D1FDF91CF91089590E00F
:100A9000FC01E656FF4F2491FC01EA57FF4F3491C9
:100AA000FC01EE58FF4FE491EE23B1F1222339F11E
:100AB000233091F038F42130A9F0223001F584B5CB
:100AC0008F7D12C0273091F02830A1F02430B9F486
:100AD000809180008F7D03C0809180008F7780930C
:100AE00080000DC084B58F7784BD09C08091B000AF
:100AF0008F7703C08091B0008F7D8093B000F0E0CD
:100B0000EE0FFF1FE859FF4FA591B4918FB7F894EE
:100B1000EC913E2B3C938FBF0895CF93DF93CDB7DD
:100B2000DEB7C555D1090FB6F894DEBF0FBECDBFF5
:100B3000789484B5826084BD84B5816084BD85B5B8
:100B4000826085BD85B5816085BD80916E008160C4
:100B500080936E001092810080918100826080936A
:100B6000810080918100816080938100809180006C
:100B70008160809380008091B10084608093B10097
:100B80008091B00081608093B00080917A00846091
:100B900080937A0080917A00826080937A008091BD
:100BA0007A00816080937A0080917A0080688093D7
:100BB0007A001092C100E0911B04F0911C0482E0C5
:100BC0008083E0911704F09118041082E0911904D9
:100BD000F0911A0480E1808310922304E0911F04B5
:100BE000F091200486E08083E0911D04F0911E04C2
:100BF000808180618083E0911D04F0911E048081DA
:100C000088608083E0911D04F0911E0480818068DB
:100C10008083E0911D04F0911E0480818F7D80838C
:100C20008EE291E00E946B040E947D040E947D048C
:100C300087E591E00E94810488EA94E09093BA04E9
:100C40008093B9041092EA031092E9031092BD0355
:100C50001092BC031092E80311E01093E703109286
:100C6000E20382E10E94470583E10E9447058091EB
:100C7000B9008E7F8093B9008091B9008D7F8093F9
:100C8000B90088E48093B80085E48093BC0080912B
:100C9000BB041093BB038093BA031092BD03109260
:100CA000BC038091B9049091BA04DC01ED91FC91F0
:100CB0000190F081E02D60E009958091B904909158
:100CC000BA04DC01ED91FC910190F081E02D60E02F
:100CD00009952091BB049091BC038091BA03913295
:100CE00008F045C03091E8033111FCCF32E0309379
:100CF000E8032093E7032FEF2093E6031092E50328
:100D00009093E403AAE9B3E022EC33E0F9014E2F1B
:100D1000421B491718F44D914193F9CF1092E30308
:100D20009091E303880F892B8093E3038091E20382
:100D3000813061F41092E2038091E3038093BB0061
:100D40008091BC0083FDF8CF85EC01C085EE8093D7
:100D5000BC008091E8038230E1F38091E6038F3F8D
:100D600031F08091E603803211F08091E603109219
:100D7000BD031092BC031092BB0383E791E00E9475
:100D80006B040E947D0483E891E00E94810440E1AD
:100D900050E064EB74E0072E000C880B990B0E9466
:100DA000F50480EA91E00E9481048091B6046AE033
:100DB00070E090E00E940F0582EB91E00E948104B8
:100DC00060E170E08091B7049091B8040E940F0533
:100DD0008CEB91E00E94810440E150E069EB74E00B
:100DE000072E000C880B990B0E94F50488ED91E00A
:100DF0000E9481046091B9047091BA04072E000C1E
:100E0000880B990B40E150E00E94F50483EF91E0DC
:100E10000E94810460E170E08091BB049091BC0469
:100E20000E940F0583E092E00E9481046091BD045E
:100E300070E080E090E04AE00E9483040E947D041C
:100E400083E192E00E94810440E150E06EEB74E0A7
:100E5000072E000C880B990B0E94F50486E392E0A4
:100E60000E9481046091BE047091BF04072E000CA3
:100E7000880B990B40E150E00E94F50487E592E071
:100E80000E9481048091C0049091C1040E943705A2
:100E900086E692E00E9481048091C2049091C3048E
:100EA0000E94370584E792E00E9481048091C40487
:100EB0009091C5040E94370583E892E00E94810466
:100EC0008091C6049091C7040E94370587E992E09B
:100ED0000E9481048091C8046AE070E090E00E9462
:100EE0000F0582EA92E00E9481048091C9046AE0C1
:100EF00070E090E00E940F058CEA92E00E9481046D
:100F00008091CA046AE070E090E00E940F0582ECD4
:100F100092E00E9481048091E9046AE070E090E030
:100F20000E940F058DEC92E00E9481046091E5041F
:100F30007091E6048091E7049091E8044AE050E063
:100F40000E94F50486EE92E00E94810440E150E0A8
:100F50006BEC74E0072E000C880B990B0E94F504D3
:100F60000E947D040E947D0411E08AE1282E809178
:100F7000BB049091E8039111FCCF1093E803109308
:100F8000E703BFEFB093E6031092E5032EE1209351
:100F9000E4031093E3039091E303880F892B80937C
:100FA000E3038091E203813071F41092E2038091B7
:100FB000E3038093BB008091BC0083FDF8CF35EC48
:100FC0003093BC0003C045EE4093BC008091E80321
:100FD0008130E1F38091E5038F3118F48091E503CE
:100FE00001C08FE1A2ECB3E0EBEEF3E09E2F2BEE1D
:100FF00033E0921B981718F49D919193F7CF1092BC
:10100000EA038093E9038F3119F081E090E08EC00C
:10101000312C8091B9049091BA04DC01ED91FC91DE
:101020000084F185E02D0995892BB1F001E0030DD5
:101030008091B9049091BA04DC01ED91FC91028495
:10104000F385E02D0995E1E0F0E0EC0FFD1FE30DE5
:10105000F11D8083302EDDCF8B81082F0F7009F4B6
:1010600063C08C818F7090E0982F88272D81AC0110
:10107000422B22965FAF4EAF22978E818F7090E009
:10108000982F88272F81DC01A22BBFAFAEAF013094
:1010900009F44AC08A858F7090E0982F88272B85A5
:1010A000AC01422B5DAF4CAF8C858F7090E0982FD8
:1010B00088272D854C01822A0230B1F188898F70F2
:1010C00090E0982F882729896C01C22A8A898F701D
:1010D00090E0982F88272B897C01E22A033021F1A8
:1010E0008E898F7090E0982F88272F895C01A22A23
:1010F000888D8F7090E0982F8827298D3C01622A77
:10110000043091F08C8D8F7090E0982F88272D8D72
:10111000DC01A22BBBAFAAAF8E8D8F7090E0982F11
:1011200088272F8D2C01422A80E090E0892B09F03E
:1011300084C01092EA042FB7F8948091BE03909176
:10114000BF03A091C003B091C1032FBF8093E504FA
:101150009093E604A093E704B093E8048091CB0455
:10116000081356C08091CC049091CD0422962EADE8
:101170003FAD22972817390709F04AC08091CE0465
:101180009091CF042EAD3FAD2817390709F040C02C
:101190008091D0049091D1042CAD3DAD2817390732
:1011A000B9F58091D2049091D3048816990681F5FF
:1011B0008091D4049091D504C816D90649F5809140
:1011C000D6049091D704E816F90611F58091D80459
:1011D0009091D904A816B906D9F48091DA049091B7
:1011E000DB0468167906A1F48091DC049091DD049B
:1011F0002AAD3BAD2817390759F48091DE04909150
:10120000DF044816590621F48091E0048823A9F0F0
:101210002091BE043091BF042115310509F4D3C1DA
:101220008091C4049091C504892B09F4CCC18091AC
:10123000C80481116EC11093E9048091E9048823E8
:1012400009F464C1E091BE04F091BF04309709F441
:101250004EC02091C4043091C5042115310509F414
:1012600046C08091C904882309F441C06091C2043A
:101270007091C304AB014F5F5F4F5093C304409321
:10128000C204269EC001279E900D1124E80FF91F6D
:10129000DE011196822D01900D928A95E1F7421799
:1012A000530720F01092C3041092C2042091C2048C
:1012B0003091C3048091C0049091C104281739076C
:1012C00011F41092C9048091C6049091C7049C0146
:1012D000215031093093C7042093C604892B11F49F
:1012E0001092E9041093C804FE01319604C01092D4
:1012F000E904EBECF4E0DE019096822D01900D9272
:101300008A95E1F738A029A13AA124963FAF2EAFE4
:1013100024972BA13CA12E963FAF2EAF2E972DA147
:101320003EA160963FAF2EAF60972FA138A52C96B7
:101330003FAF2EAF2C9729A53AA562963FAF2EAFAF
:1013400062972BA53CA52A963FAF2EAF2A972DA5D5
:101350003EA564963FAF2EAF64972FA538A9289677
:101360003FAF2EAF289729A93AA966963FAF2EAF77
:1013700066972BA93CA926963FAF2EAF26978CE007
:1013800093E00E94810480E293E00E948104632D37
:1013900070E080E090E04AE00E94830484E393E000
:1013A0000E948104332009F4AFC088E393E00E94D7
:1013B000810481E090E00E94EB048FE393E00E94BF
:1013C000810424968EAD9FAD24970E94EB0485E4A2
:1013D00093E00E9481042E968EAD9FAD2E970E94C1
:1013E000EB0484E393E00E94810431E0331508F0BC
:1013F0008BC088E393E00E94810482E090E00E9429
:10140000EB048FE393E00E94810460968EAD9FAD64
:1014100060970E94EB0485E493E00E9481042C967F
:101420008EAD9FAD2C970E94EB0484E393E00E9465
:10143000810442E0341609F467C088E393E00E9417
:10144000810483E090E00E94EB048FE393E00E942C
:10145000810462968EAD9FAD62970E94EB0485E495
:1014600093E00E9481042A968EAD9FAD2A970E9438
:10147000EB0484E393E00E94810453E0351609F401
:1014800043C088E393E00E94810484E090E00E94DE
:10149000EB048FE393E00E94810464968EAD9FADD0
:1014A00064970E94EB0485E493E00E9481042896EF
:1014B0008EAD9FAD28970E94EB0484E393E00E94D9
:1014C000810484E0381601F188E393E00E948104EE
:1014D00085E090E00E94EB048FE393E00E9481049A
:1014E00066968EAD9FAD66970E94EB0485E493E00F
:1014F0000E94810426968EAD9FAD26970E94EB0434
:1015000084E393E00E9481040E947D040E947E0196
:101510002ECD4091C0045091C104CA010196909310
:10152000C1048093C004249EC001259E900D112407
:10153000F901E80FF91F008322962EAD3FAD2297E7
:10154000328321832EAD3FAD348323832CAD3DAD5B
:101550003683258390868782D286C186F486E38689
:10156000B686A586708A67862AAD3BAD328B218B05
:10157000548A438A1093C9048091C6049091C70489
:1015800001969093C7048093C6042091C0043091C3
:10159000C1048091C4049091C5042817390720F034
:1015A0001092C1041092C0042091C0043091C10473
:1015B0008091C2049091C3042817390709F03BCEEB
:1015C0001092C80438CE0093CB0422962EAD3FADC6
:1015D00022973093CD042093CC042EAD3FAD3093B1
:1015E000CF042093CE042CAD3DAD3093D104209395
:1015F000D0049092D3048092D204D092D504C092A9
:10160000D404F092D704E092D604B092D904A09208
:10161000D8047092DB046092DA042AAD3BAD3093BB
:10162000DD042093DC045092DF044092DE0403CEFC
:10163000EBE0F4E01382128288EE93E0A0E0B0E0E9
:1016400084839583A683B78328E031E031832083A8
:1016500025EC30E03587248724EC30E03787268777
:1016600020EC30E0318B208B21EC30E0338B228B6F
:1016700022EC30E0358B248B26EC30E0378B268B48
:10168000118E128E138E148EE8EAF4E01382128209
:1016900084839583A683B7838AE191E091838083D5
:1016A000E4EBF4E0128281E090E09483838316827D
:1016B000158288E390E0908787838FEF8187138678
:1016C00012861586148617861686118A108A138A42
:1016D000128A148A158A168A15AA16AA11AA12AA9B
:1016E00013AA14AA178A118E108E138E128E158EBD
:1016F000148E178E168E11A210A213A212A215A27A
:1017000014A217A216A211A610A613A612A614A61A
:1017100015A616A617A610AA8CE291E091838083E5
:101720000895A1E21A2EAA1BBB1BFD010DC0AA1F22
:10173000BB1FEE1FFF1FA217B307E407F50720F03A
:10174000A21BB30BE40BF50B661F771F881F991FB5
:101750001A9469F760957095809590959B01AC01FE
:10176000BD01CF010895EE0FFF1F0590F491E02D0C
:10177000099481E090E0F8940C94BE0BF894FFCFAC
:10178000880188010000000015018200AD005C01A5
:10179000DE00BC00D000000000001702E701470295
:1017A000BB01DF01CB01BC01000000004A0245780B
:1017B000616D706C65393939202D205465737469F9
:1017C0006E67202D20465435333136204354502047
:1017D00044726976657200426567696E6E696E670C
:1017E00020746865204354502E20537461747573BF
:1017F0003A200041667465722027626567696E2829
:1018000029270041646472657373206F66207468D1
:1018100065204654206F626A6563743A2030780010
:101820005F68617320696E74657272757074733A63
:1018300020005F6D6F64653A203078004164647207
:10184000657373206F66207769726520706F696EAB
:101850007465723A2030780056616C7565206F6649
:10186000205F7769726520706F696E7465723A20C7
:1018700030780049324320616464726573733A20A2
:10188000307800496E746572727570742070696E7C
:101890003A200041646472657373206F662062753C
:1018A00066666572206865616420706F696E746534
:1018B000723A2030780056616C7565206F66206240
:1018C0007566666572206865616420706F696E7404
:1018D00065723A203078005F77726974654F66668A
:1018E0007365743A20005F726561644F6666736564
:1018F000743A20005F7265636F7264446570746847
:101900003A20005F7265636F726473417661696C3F
:1019100061626C653A20005F77726974654F4B3A7B
:1019200020005F726561644F4B3A20005F6275660C
:10193000666572576173416C6C6F63617465643A7C
:1019400020006E6577546F7563683A200054696DA6
:1019500065206F66206C61737420757064617465B6
:1019600020286D7329004164647265737320776861
:10197000657265206C617374546F75636820697358
:101980002073746F7265643A20307800546F756309
:1019900068207265636F726420696E666F3A20001A
:1019A0004E756D626572206F6620746F7563686531
:1019B000733A2000203A2000546F75636820002C91
:0E19C00020783A20002C20793A20000D0A00F1
:00000001FF
