:100000000C945D000C9481020C945A020C948500AF
:100010000C9485000C9485000C9485000C9485004C
:100020000C9485000C9485000C9485000C9485003C
:100030000C9485000C9485000C9485000C9485002C
:100040000C941A050C9485000C94CE020C94A80212
:100050000C9485000C9485000C9485000C9485000C
:100060000C9400030C94850000000000240027007D
:100070002A0000000000250028002B0004040404CE
:100080000404040402020202020203030303030342
:10009000010204081020408001020408102001021F
:1000A00004081020000000080002010000030407FB
:1000B0000000000000000000180B11241FBECFEF4D
:1000C000D8E0DEBFCDBF12E0A0E0B1E0E4ECF9E1A2
:1000D00002C005900D92AE30B107D9F724E0AEE032
:1000E000B2E001C01D92AE3BB207E1F710E0CDE5F2
:1000F000D0E004C02197FE010E94B40BCC35D1079B
:10010000C9F70E9464050C94E00C0C94000008955B
:10011000CF92DF92EF92FF920F931F93CF93DF93D3
:100120006C017A018B01C0E0D0E0CE15DF0581F0D3
:10013000D8016D918D01D601ED91FC910190F08176
:10014000E02DC6010995892B11F02196EECF7E0195
:10015000C701DF91CF911F910F91FF90EF90DF903A
:10016000CF900895FC01538D448D252F30E0842FCE
:1001700090E0821B930B541710F0CF9608950197CF
:100180000895FC01918D828D981761F0828DDF01B9
:10019000A80FB11D5D968C91928D9F5F9F73928F7A
:1001A00090E008958FEF9FEF0895FC01918D828D6F
:1001B000981731F0828DE80FF11D858D90E008953C
:1001C0008FEF9FEF0895FC01918D228D892F90E094
:1001D000805C9F4F821B91098F739927089584ED4E
:1001E00093E00E94E30021E0892B09F420E0822FB4
:1001F0000895FC01848DDF01A80FB11DA35ABF4FE4
:100200002C91848D90E001968F739927848FA68915
:10021000B7892C93A089B1898C91837080648C9369
:10022000938D848D981306C00288F389E02D808118
:100230008F7D80830895EF92FF920F931F93CF934A
:10024000DF93EC0181E0888F9B8D8C8D981305C026
:10025000E889F989808185FD26C0F62E0B8D10E096
:100260000F5F1F4F0F731127E02E8C8DE8120CC00B
:100270000FB607FCFACFE889F989808185FFF5CFB1
:10028000CE010E94F900F1CF8B8DFE01E80FF11D28
:10029000E35AFF4FF0829FB7F8940B8FEA89FB89EE
:1002A000808180620AC09FB7F894EE89FF896083DD
:1002B000E889F98980818370806480839FBF81E0B1
:1002C00090E0DF91CF911F910F91FF90EF900895F3
:1002D000CF93DF93EC01888D8823C9F0EA89FB89ED
:1002E000808185FD05C0A889B9898C9186FD0FC0E4
:1002F0000FB607FCF5CF808185FFF2CFA889B989B9
:100300008C9185FFEDCFCE010E94F900E7CFDF9100
:10031000CF91089580E090E0892B29F00E94EF00B2
:1003200081110C940000089585ED8093BC008091AC
:10033000BC0084FDFCCF10925B0208954091AD0398
:10034000262F30E0240F311D21323105DCF42091BD
:100350005B022430C9F4FC0180E090E0861758F479
:100360003091AD032191DC01A357BC4FA30FB11D08
:100370002C930196F3CF8091AD03680F6093AD038A
:1003800080E0089581E0089582E008950895089539
:100390000895E0915D0280915C02E81730F4F0E08E
:1003A000E25AFD4F808190E008958FEF9FEF08950E
:1003B00090915D0280915C02981750F4E92FF0E073
:1003C000E25AFD4F208130E09F5F90935D0202C0B2
:1003D0002FEF3FEFC901089580915C0290E02091DA
:1003E0005D02821B91090895CF92DF92EF92FF92F6
:1003F0000F931F93CF93DF937C01CB018A01209150
:100400002E02222389F0EB016B01C40ED51ECC1500
:10041000DD0569F06991D701ED91FC910190F081C2
:10042000E02DC7010995F3CF642F0E949E01C801FA
:10043000DF91CF911F910F91FF90EF90DF90CF90C0
:100440000895CF93DF931F92CDB7DEB769832091D4
:100450002E022223D1F020913302203240F021E0FD
:1004600030E0FC013383228380E090E015C080916E
:100470003402E82FF0E0E25FFD4F998190838F5FB7
:10048000809334028093330205C061E0CE0101966F
:100490000E949E0181E090E00F90DF91CF9108953E
:1004A000089580E090E0089581E08093B404089579
:1004B0000E94DB0C1F920F920FB60F9211242F9304
:1004C0003F934F935F936F937F938F939F93AF93DC
:1004D000BF93EF93FF93E0910201F091030109951F
:1004E000FF91EF91BF91AF919F918F917F916F910C
:1004F0005F914F913F912F910F900FBE0F901F90E2
:1005000018951F920F920FB60F9211242F933F93BD
:100510004F935F936F937F938F939F93AF93BF930B
:10052000EF93FF93E0910001F09101010995FF9194
:10053000EF91BF91AF919F918F917F916F915F915B
:100540004F913F912F910F900FBE0F901F901895D4
:100550001F920F920FB60F9211242F933F934F9338
:100560005F936F937F938F939F93AF93BF93EF931B
:10057000FF9384ED93E00E94F900FF91EF91BF910A
:10058000AF919F918F917F916F915F914F913F912B
:100590002F910F900FBE0F901F9018951F920F92E2
:1005A0000FB60F9211242F938F939F93EF93FF9386
:1005B000E091E403F091E5038081E091EA03F0919A
:1005C000EB0382FD12C090818091ED038F5F8F73EA
:1005D0002091EE03821751F0E091ED03F0E0EC5230
:1005E000FC4F958F8093ED0301C08081FF91EF91C7
:1005F0009F918F912F910F900FBE0F901F90189584
:100600001F920F920FB60F9211242F933F934F9387
:100610005F936F937F938F939F93AF93BF93EF936A
:10062000FF938091B900887F803609F49CC068F5FB
:10063000883209F45BC090F4803109F454C038F476
:10064000882309F4F6C0883009F44DC0F6C088311B
:1006500009F44CC0803209F45DC0EFC0803409F465
:1006600068C048F4803309F455C0883309F0E5C008
:1006700080935902D8C0803509F44FC0883509F4F9
:100680005DC0883409F0D9C0D6C0883909F4C7C024
:10069000A8F4883709F467C038F4883609F463C0D1
:1006A000803709F460C0C9C0883809F4B8C08039FF
:1006B00009F45FC0803809F0C0C05BC0803B09F41A
:1006C00086C038F4803A09F466C0883A09F47FC0DD
:1006D000B4C0803C09F4A7C0883C09F4A4C0883B9E
:1006E00009F48AC0AAC08091560210C090915802A5
:1006F00080915702981770F5E091580281E08E0FB3
:1007000080935802F0E0EB5CFD4F80818093BB004A
:1007100085EC86C0809359028EC0E091580281E03A
:100720008E0F809358028091BB00F0E0EB5CFD4F90
:10073000808390915802809157026EC0E0915802D8
:1007400081E08E0F809358028091BB00F0E0EB5C5B
:10075000FD4F808380915A0281116DC081E08093AA
:10076000550284EA61C083E080935B021092CF035C
:10077000CFCF8091CF03803208F051C0E091CF03FA
:1007800081E08E0F8093CF038091BB00F0E0E155B4
:10079000FC4F8083BDCF85EC8093BC0010925B0240
:1007A0008091CF03803230F4E091CF03F0E0E15547
:1007B000FC4F10826091CF0370E0E0912F02F09126
:1007C00030028FEA93E009951092CF0336C084E09F
:1007D00080935B021092AE031092AD03E091310260
:1007E000F091320209958091AD03811105C081E03D
:1007F0008093AD0310928D03E091AE0381E08E0FE4
:100800008093AE03F0E0E357FC4F80818093BB0000
:100810009091AE038091AD03981708F479CF85E8E5
:100820008093BC000AC085EC8093BC0010925B02F0
:1008300004C0109259020E949401FF91EF91BF9160
:10084000AF919F918F917F916F915F914F913F9168
:100850002F910F900FBE0F901F901895813091052A
:1008600049F028F0029749F48FEE91E008C081EE3C
:1008700091E005C089EE91E002C08FEF91E00C9409
:100880005304009769F0FC0101900020E9F73197CB
:10089000AF01481B590BBC0184ED93E00C94880018
:1008A00080E090E008950C9441048F929F92AF9263
:1008B000BF920F931F93CF93DF93CDB7DEB7A1976E
:1008C0000FB6F894DEBF0FBECDBF19A2423008F4B8
:1008D0004AE08E010F5D1F4F842E912CA12CB12C6C
:1008E000A50194010E94920BE62FB901CA010150A3
:1008F0001109EA3014F4E05D01C0E95CD801EC9321
:10090000232B242B252B61F7C8010E944104A196BB
:100910000FB6F894DEBF0FBECDBFDF91CF911F9110
:100920000F91BF90AF909F908F900895CF92DF92DC
:10093000EF92FF92CF93DF936C01990FEE08FF08BF
:10094000F7FE19C06DE284ED93E00E941B01EC01FB
:1009500066277727CB016C197D098E099F094AE02C
:100960000E9455048C0F9D1FDF91CF91FF90EF9057
:10097000DF90CF9008954AE0C701B601DF91CF9193
:10098000FF90EF90DF90CF900C945504CF93DF93BE
:100990000E944104EC018DE591E00E9441048C0F1E
:1009A0009D1FDF91CF91089590E0FC01EC55FF4F22
:1009B0002491FC01E057FF4F3491FC01E458FF4FB4
:1009C000E491EE23B1F1222339F1233091F038F490
:1009D0002130A9F0223001F584B58F7D12C0273077
:1009E00091F02830A1F02430B9F4809180008F7DFF
:1009F00003C0809180008F77809380000DC084B504
:100A00008F7784BD09C08091B0008F7703C080913B
:100A1000B0008F7D8093B000F0E0EE0FFF1FEE5826
:100A2000FF4FA591B4918FB7F894EC91E32BEC9321
:100A30008FBF08951F920F920FB60F9211242F931C
:100A40003F938F939F93AF93BF938091D0039091E7
:100A5000D103A091D203B091D3033091B90423E024
:100A6000230F2D3720F40196A11DB11D05C026E8E6
:100A7000230F0296A11DB11D2093B9048093D003CA
:100A80009093D103A093D203B093D3038091B50484
:100A90009091B604A091B704B091B8040196A11D3D
:100AA000B11D8093B5049093B604A093B704B0939E
:100AB000B804BF91AF919F918F913F912F910F906B
:100AC0000FBE0F901F901895CF93DF93CDB7DEB771
:100AD000CF55D1090FB6F894DEBF0FBECDBF7894C5
:100AE00084B5826084BD84B5816084BD85B5826033
:100AF00085BD85B5816085BD80916E0081608093E4
:100B00006E0010928100809181008260809381004C
:100B1000809181008160809381008091800081605C
:100B2000809380008091B10084608093B1008091B7
:100B3000B00081608093B00080917A0084608093DF
:100B40007A0080917A00826080937A0080917A00A6
:100B5000816080937A0080917A00806880937A0027
:100B60001092C100E091E403F091E50312E01083DC
:100B7000E091E003F091E1031082E091E203F09153
:100B8000E30380E180831092EC03E091E803F091AD
:100B9000E90386E08083E091E603F091E70380813A
:100BA00080618083E091E603F091E70380818860B3
:100BB0008083E091E603F091E70380818068808381
:100BC000E091E603F091E70380818F7D808384E3E9
:100BD00091E00E94C6048DE591E00E94410480E608
:100BE00091E00E94530481E080937F041093860477
:100BF0001092810410928004E2E9F0E02491EEE783
:100C0000F0E084918823C1F090E0880F991FFC01E7
:100C1000E859FF4FA591B491FC01EE58FF4F859123
:100C200094914FB7F8943C91209532233C93DC018A
:100C3000EC912E232C934FBF80918604823019F0C3
:100C40008330B1F436C480E0E82FF0E0EE0FFF1FF0
:100C5000E050FF4F24E532E031832083813009F4F6
:100C60002AC4809169008C7F826080936900E89A31
:100C700081E794E0909383048093820410925D0254
:100C800010925C02109234021092330210925B02B6
:100C900011E010935A021092550282E10E94D4048E
:100CA00083E10E94D4048091B9008E7F8093B900C3
:100CB0008091B9008D7F8093B90088E48093B8005B
:100CC00085E48093BC0086EC91E09093320280939F
:100CD000310287EC91E09093300280932F02809153
:100CE000840410932E0280937E021092340210929C
:100CF00033028091820490918304DC01ED91FC9198
:100D00000190F081E02D60E009958091820490913E
:100D10008304DC01ED91FC910190F081E02D60E015
:100D20000995909184042091330280917E022132B2
:100D300008F044C030915B023111FCCF32E03093B7
:100D40005B0290935A029FEF9093590210925802BF
:100D500020935702EEE0F2E0A5E3B2E090E029171D
:100D600021F031913D939F5FFACF109256029091FE
:100D70005602880F892B809356028091550281304C
:100D800061F410925502809156028093BB008091CD
:100D9000BC0083FDF8CF85EC01C085EE8093BC00DC
:100DA00080915B028230E1F3809159028F3F31F0F4
:100DB00080915902803211F08091590210923402D0
:100DC0001092330210922E0280E090E00E942E04D6
:100DD0008EE591E00E94C6048CE791E00E945304E6
:100DE00080919304882331F0809187049091880446
:100DF0000E94520C1092900410928F0410928A0458
:100E00001092890410928C0410928B041092920418
:100E1000109293048FE792E0909388048093870464
:100E20008AE090E090938E0480938D0481E080931B
:100E3000910480E090E00E942E048EE591E00E94F3
:100E4000C60411E08091B404882309F49AC180910A
:100E5000840490915B029111FCCF10935B0210937C
:100E60005A02BFEFB093590210925802EEE1E0939C
:100E700057021093560290915602880F892B809347
:100E8000560280915502813071F410925502809182
:100E900056028093BB008091BC0083FDF8CFF5EC37
:100EA000F093BC0003C025EE2093BC0080915B0250
:100EB0008130E1F3809158028F3118F490915802FB
:100EC00001C09FE1E5E3F2E0AEE5B2E080E0891722
:100ED00021F021912D938F5FFACF10925D028093C4
:100EE0005C028F3109F0A6C08FB7F8944090D00310
:100EF0005090D1036090D2037090D3038FBFF12C38
:100F00008091820490918304DC01ED91FC91008436
:100F1000F185E02D0995892BB1F001E00F0D80914D
:100F2000820490918304DC01ED91FC910284F385AD
:100F3000E02D0995E1E0F0E0EC0FFD1FEF0DF11D54
:100F40008083F02EDDCF8B81082F0F702A8130E057
:100F5000002309F472C08C818F7090E0982F88274D
:100F60004D81FC01E42B2496FFAFEEAF24978E81D8
:100F70008F7090E0982F88274F81BC01642B2296B8
:100F80007FAF6EAF2297013009F457C08A858F700A
:100F900090E0982F88274B85DC01A42B2696BFAFC5
:100FA000AEAF26978C858F7090E0982F88274D855F
:100FB0004C01842A023009F440C088898F7090E087
:100FC000982F88274989FC01E42BFFAFEEAF8A896F
:100FD0008F7090E0982F88274B895C01A42A0330FA
:100FE00061F18E898F7090E0982F88274F896C016E
:100FF000C42A888D8F7090E0982F8827498DBC0176
:10100000642B28967FAF6EAF28970430B1F08C8D9B
:101010008F7090E0982F88274D8D1C01242A8E8D8B
:101020008F7090E0982F88274F8DDC01A42BBDAFE7
:10103000ACAF03C081E090E003C0790180E090E0B4
:10104000892B09F091C01092B4042FB7F8948091C5
:10105000D0039091D103A091D203B091D3032FBFBD
:101060008093AF049093B004A093B104B093B20402
:1010700080919404801364C08091950490919604AB
:101080002496EEADFFAD24978E179F0709F058C048
:10109000809197049091980422962EAD3FAD2297AF
:1010A0008217930709F04CC08091990490919A049B
:1010B00026966EAD7FAD26978617970709F040C03C
:1010C00080919B0490919C0488169906C9F58091A3
:1010D0009D0490919E04AEADBFADA817B90781F5F0
:1010E00080919F049091A004A816B90649F58091BB
:1010F000A1049091A204C816D90611F58091A30409
:101100009091A4042896EEADFFAD28978E179F0707
:10111000B9F48091A5049091A6042816390681F4AB
:101120008091A7049091A8042CAD3DAD28173907F4
:1011300039F48091A9049091AA04E816F906A1F067
:10114000E0918704F0918804309709F426C28091D9
:101150008D0490918E04892B09F41FC28091910413
:101160008111B1C11093B30460918F047091900408
:1011700080E090E04AE00E9455048DE591E00E94F5
:10118000410480918F0490919004089708F48EC1D7
:1011900080918F0490919004892B09F487C1E0918C
:1011A0008704F0918804309709F450C040918D0471
:1011B00050918E044115510509F448C08091920464
:1011C000882309F443C060918B0470918C049B01C7
:1011D0002F5F3F4F30938C0420938B04BBE1B69F6D
:1011E000C001B79F900D1124E80FF91FDE01119681
:1011F0008BE101900D928A95E1F72417350720F0D5
:1012000010928C0410928B0420918B0430918C04EA
:101210008091890490918A042817390711F410925B
:10122000920480918F04909190049C012150310987
:101230003093900420938F04892B11F41092B304FF
:10124000109391048BE1FE01319605C01092B30416
:101250008BE1E4E9F4E0DE01909601900D928A952D
:10126000E1F7E8A1EBAF29A13AA164963FAF2EAF19
:1012700064976BA17CA16C967FAF6EAF6C978DA1CC
:101280009EA16E969FAF8EAF6E97AFA1B8A52A961E
:10129000BFAFAEAF2A97E9A5FAA52C96FFAFEEAF88
:1012A0002C972BA53CA56A963FAF2EAF6A976DA5EC
:1012B0007EA566967FAF6EAF66978FA598A962965A
:1012C0009FAF8EAF6297A9A9BAA96896BFAFAEAF1C
:1012D0006897EBA9FCA9A096FFAFEEAFA0976FA906
:1012E00078AD89AD9AAD60966CAF7DAF8EAF9FAF94
:1012F000609786E991E00E9453048AEA91E00E9497
:1013000053044AE060966CAD7DAD8EAD9FAD6097A5
:101310000E94550486EB91E00E9453048AEB91E011
:101320000E945304ABAD6A2F70E080E090E04AE089
:101330000E94550486EB91E00E945304BBADBB2391
:1013400009F4AFC08EEC91E00E94530481E090E07C
:101350000E94960485ED91E00E94530464968EAD40
:101360009FAD64970E9496048BED91E00E94530418
:101370006C968EAD9FAD6C970E94960486EB91E0C3
:101380000E945304EBADE23008F48BC08EEC91E088
:101390000E94530482E090E00E94960485ED91E063
:1013A0000E9453046E968EAD9FAD6E970E94960478
:1013B0008BED91E00E9453042A968EAD9FAD2A9743
:1013C0000E94960486EB91E00E945304FBADF2303C
:1013D00009F467C08EEC91E00E94530483E090E032
:1013E0000E94960485ED91E00E9453042C968EADE8
:1013F0009FAD2C970E9496048BED91E00E945304C0
:101400006A968EAD9FAD6A970E94960486EB91E036
:101410000E9453042BAD233009F443C08EEC91E0BD
:101420000E94530484E090E00E94960485ED91E0D0
:101430000E94530466968EAD9FAD66970E949604F7
:101440008BED91E00E94530462968EAD9FAD629742
:101450000E94960486EB91E00E9453043BAD343029
:1014600001F18EEC91E00E94530485E090E00E942F
:10147000960485ED91E00E94530468968EAD9FAD71
:1014800068970E9496048BED91E00E945304A09609
:101490008EAD9FADA0970E94960486EB91E00E94CE
:1014A00053048DE591E00E94410472CE0E948A01AE
:1014B000C9CC81E0C9CB80916900837F886080932B
:1014C0006900E99AD5CB2091890430918A04C90139
:1014D000019690938A04809389044BE1429FC00156
:1014E000439F900D1124E80FF91F008324966EADE1
:1014F0007FAD24977283618322968EAD9FAD229734
:10150000948383832696AEADBFAD2697B683A5831D
:10151000908687822EAD3FAD32872187B486A38621
:10152000D686C58628966EAD7FAD2897708B678767
:10153000328A218A8CAD9DAD948B838BF68AE58AA5
:10154000478A508E618E728E1093920480918F0420
:101550009091900401969093900480938F04209131
:10156000890430918A0480918D0490918E0428170B
:10157000390720F010928A0410928904209189047E
:1015800030918A0480918B0490918C04281739073C
:1015900009F0E8CD10929104E5CD009394042496CF
:1015A000AEADBFAD2497B0939604A0939504229658
:1015B000EEADFFAD2297F0939804E0939704269642
:1015C0002EAD3FAD269730939A04209399049092C4
:1015D0009C0480929B046EAD7FAD70939E046093DB
:1015E0009D04B092A004A0929F04D092A204C09245
:1015F000A10428968EAD9FAD28979093A404809364
:10160000A3043092A6042092A504ACADBDADB09366
:10161000A804A093A704F092AA04E092A90440921F
:10162000AB045092AC046092AD047092AE049ACDBB
:10163000E4EDF3E01382128288EE93E0A0E0B0E0E4
:1016400084839583A683B7832EE031E031832083A2
:1016500025EC30E03587248724EC30E03787268777
:1016600020EC30E0318B208B21EC30E0338B228B6F
:1016700022EC30E0358B248B26EC30E0378B268B48
:10168000118E128E138E148EE1E7F4E01382128213
:1016900084839583A683B78380E291E091838083DE
:1016A000EDE7F4E0128281E090E094838383168278
:1016B000158288E390E0908787838FEF8187138678
:1016C00012861586148617861686118A108A138A42
:1016D000128A148A158A168A16AA17AA12AA13AA97
:1016E00014AA15AA178A118E108E138E128E158EBB
:1016F000148E178E168E11A210A213A212A215A27A
:1017000014A217A216A211A610A613A612A615A619
:1017100014A616A617A610AA11AA82E391E0918337
:1017200080830895A1E21A2EAA1BBB1BFD010DC0E8
:10173000AA1FBB1FEE1FFF1FA217B307E407F50781
:1017400020F0A21BB30BE40BF50B661F771F881F5D
:10175000991F1A9469F760957095809590959B01F3
:10176000AC01BD01CF010895EE0FFF1F0590F4916C
:10177000E02D09940F931F93CF93DF93823091054F
:1017800010F482E090E0E091BC04F091BD0420E010
:1017900030E0A0E0B0E0309719F140815181028142
:1017A000138148175907C8F08417950769F41097F3
:1017B00031F012960C93129713961C9327C0009346
:1017C000BC041093BD0422C02115310519F0421745
:1017D000530718F49A01BD01EF01DF01F801DBCFD7
:1017E00021153105F9F0281B390B2430310580F41F
:1017F0008A819B816115710521F0FB0193838283AE
:1018000004C09093BD048093BC04FE01329644C092
:10181000FE01E20FF31F8193919322503109398326
:1018200028833AC02091BA043091BB04232B41F4A1
:1018300020910601309107013093BB042093BA0434
:1018400020910401309105012115310541F42DB796
:101850003EB74091080150910901241B350BE091DE
:10186000BA04F091BB04E217F307A0F42E1B3F0B60
:101870002817390778F0AC014E5F5F4F2417350702
:1018800048F04E0F5F1F5093BB044093BA048193FE
:10189000919302C0E0E0F0E0CF01DF91CF911F9182
:1018A0000F910895CF93DF93009709F481C0FC0155
:1018B000329713821282A091BC04B091BD0410979C
:1018C00081F420813181820F931F2091BA043091DD
:1018D000BB042817390751F5F093BB04E093BA0411
:1018E00067C0ED0120E030E0CE17DF0740F44A8109
:1018F0005B819E0141155105F1F0EA01F5CFD383DB
:10190000C28340815181840F951FC817D90759F4AC
:1019100088819981840F951F0296918380838A81A3
:101920009B81938382832115310529F4F093BD04B3
:10193000E093BC043DC0E901FB83EA8349915991DE
:10194000C40FD51FEC17FD0761F480819181840FCE
:10195000951F0296E90199838883828193819B83F5
:101960008A83E0E0F0E012968D919C9113970097A6
:1019700019F0FD01DC01F7CF8D919C9111979D012C
:101980002E5F3F4F820F931F2091BA043091BB040A
:101990002817390769F4309729F41092BD04109282
:1019A000BC0402C013821282B093BB04A093BA0499
:1019B000DF91CF91089581E090E0F8940C94E00CD1
:0419C000F894FFCFC9
:1019C400870087000000BE048000000000001B01A7
:1019D4008800B2006801E300C100D50000000000E7
:1019E4002102F4015102C801EC01D801C90100002F
:1019F4000000C8014578616D706C65393939202D56
:101A04002054657374696E67202D20465435333134
:101A1400362043545020447269766572000D0A00E2
:101A2400426567696E6E696E672074686520435409
:101A3400502E205374617475733A200041646469B4
:101A44006E672061206275666665722E205374612C
:101A54007475733A2000546F756368207265636F00
:101A6400726420696E666F3A200054696D65737400
:101A7400616D703A2000203A20004E756D626572E7
:101A8400206F6620746F75636865733A2000546F25
:101A940075636820002C20783A20002C20793A20A5
:101AA400004E6F6D696E616C004572726F72004E0C
:101AB4006F7420456E6F75676820436F72650055BB
:0E1AC4006E6B6E6F776E2073746174757300B5
:00000001FF
