:100000000C9458000C9416030C94EF020C9480008E
:100010000C9480000C9480000C9480000C94800060
:100020000C9480000C9480000C9480000C94800050
:100030000C9480000C9480000C9480000C94800040
:100040000C94A5020C9480000C9473020C944D0245
:100050000C9480000C9480000C9480000C94800020
:100060000C943D030C948000000000002500280043
:100070002B00040404040404040402020202020229
:10008000030303030303010204081020408001025C
:1000900004081020010204081020000000080002DB
:1000A0000100000304070000000000000000480AEF
:1000B00011241FBECFEFD8E0DEBFCDBF11E0A0E01E
:1000C000B1E0E0EEF5E102C005900D92AA3CB10767
:1000D000D9F723E0AAECB1E001C01D92A736B20720
:1000E000E1F710E0C8E5D0E004C02197FE010E94CE
:1000F000E30AC735D107C9F70E9437050C94EE0A09
:100100000C940000CF92DF92EF92FF920F931F9317
:10011000CF93DF936C017A018B01C0E0D0E0CE1564
:10012000DF0589F0D8016D918D01D601ED91FC912B
:100130000190F081E02DC6010995892B11F47E0113
:1001400002C02196ECCFC701DF91CF911F910F9193
:10015000FF90EF90DF90CF900895FC01538D448D78
:10016000252F30E0842F90E0821B930B541710F062
:10017000CF96089501970895FC01918D828D98176F
:1001800061F0828DDF01A80FB11D5D968C91928D7B
:100190009F5F9F73928F90E008958FEF9FEF089578
:1001A000FC01918D828D981731F0828DE80FF11D41
:1001B000858D90E008958FEF9FEF0895FC01918D5C
:1001C000228D892F90E0805C9F4F821B91098F7355
:1001D0009927089587E892E00E94DE0021E0892BAC
:1001E00009F420E0822F0895FC01848DDF01A80F1F
:1001F000B11DA35ABF4F2C91848D90E001968F734F
:100200009927848FA689B7892C93A089B1898C916D
:1002100080648C93938D848D981306C00288F38933
:10022000E02D80818F7D80830895EF92FF920F9360
:100230001F93CF93DF93EC0181E0888F9B8D8C8D92
:10024000981305C0E889F989808185FD24C0F62EC0
:100250000B8D10E00F5F1F4F0F731127E02E8C8D59
:10026000E8120CC00FB607FCFACFE889F989808143
:1002700085FFF5CFCE010E94F400F1CF8B8DFE01FA
:10028000E80FF11DE35AFF4FF0820B8FEA89FB89DB
:100290008081806207C0EE89FF896083E889F989DF
:1002A00080818064808381E090E0DF91CF911F9115
:1002B0000F91FF90EF900895CF93DF93EC01888D1D
:1002C0008823C9F0EA89FB89808185FD05C0A8895A
:1002D000B9898C9186FD0FC00FB607FCF5CF8081E0
:1002E00085FFF2CFA889B9898C9185FFEDCFCE012A
:1002F0000E94F400E7CFDF91CF91089580E090E075
:10030000892B29F00E94EA0081110C9400000895C5
:10031000089585ED8093BC008091BC0084FDFCCFE6
:100320001092640208954091EC01262F30E0240FD2
:10033000311D21323105DCF4209164022430C9F4EE
:10034000FC0180E090E0861758F43091EC01219197
:10035000DC01A653BE4FA30FB11D2C930196F3CF22
:100360008091EC01680F6093EC0180E0089581E0DA
:10037000089582E008950895E091660280916502F3
:10038000E81730F4F0E0E959FD4F808190E00895DE
:100390008FEF9FEF08959091660280916502981704
:1003A00050F4E92FF0E0E959FD4F208130E09F5FE4
:1003B0009093660202C02FEF3FEFC901089580912C
:1003C000650290E020916602821B91090895CF9208
:1003D000DF92EF92FF920F931F93CF93DF937C01F5
:1003E000262F972F8A0180913702882391F0C62FFC
:1003F000D72F6E01C40ED51ECC15DD0571F06991A5
:10040000D701ED91FC910190F081E02DC701099594
:10041000F3CF642F822F0E949301C801DF91CF9107
:100420001F910F91FF90EF90DF90CF900895CF93A1
:10043000DF931F92CDB7DEB7698320913702222365
:10044000D1F020913802203240F021E030E0FC0170
:100450003383228380E090E015C080913902E82F39
:10046000F0E0EA5EFD4F998190838F5F80933902BF
:100470008093380205C061E0CE0101960E9493018D
:1004800081E090E00F90DF91CF910895089580E092
:1004900090E0089508950E94E90A1F920F920FB606
:1004A0000F9211242F933F934F935F936F937F93FA
:1004B0008F939F93AF93BF93EF93FF9387E892E05F
:1004C0000E94F400FF91EF91BF91AF919F918F91A6
:1004D0007F916F915F914F913F912F910F900FBE40
:1004E0000F901F9018951F920F920FB60F92112424
:1004F0002F938F939F93EF93FF93E0919702F09147
:1005000098028081E0919D02F0919E0282FD12C0CE
:1005100090818091A0028F5F8F732091A10282173A
:1005200051F0E091A002F0E0E957FD4F958F8093E4
:10053000A00201C08081FF91EF919F918F912F9137
:100540000F900FBE0F901F9018951F920F920FB62D
:100550000F9211242F933F938F939F93AF93BF9349
:1005600080913A0290913B02A0913C02B0913D02F1
:100570003091150223E0230F2D3720F40196A11DA1
:10058000B11D05C026E8230F0296A11DB11D2093C1
:10059000150280933A0290933B02A0933C02B093E1
:1005A0003D028091110290911202A0911302B0912C
:1005B00014020196A11DB11D8093110290931202A5
:1005C000A0931302B0931402BF91AF919F918F91AA
:1005D0003F912F910F900FBE0F901F9018951F9273
:1005E0000F920FB60F9211242F933F934F935F9367
:1005F0006F937F938F939F93AF93BF93EF93FF93EB
:10060000E0910201F09103010995FF91EF91BF91F3
:10061000AF919F918F917F916F915F914F913F919A
:100620002F910F900FBE0F901F9018951F920F9251
:100630000FB60F9211242F933F934F935F936F93B5
:100640007F938F939F93AF93BF93EF93FF93E0912B
:100650000001F09101010995FF91EF91BF91AF91D8
:100660009F918F917F916F915F914F913F912F91CA
:100670000F900FBE0F901F9018951F920F920FB6FC
:100680000F9211242F933F934F935F936F937F9318
:100690008F939F93AF93BF93EF93FF938091B90094
:1006A000887F803609F49CC068F5883209F45BC005
:1006B00090F4803109F454C038F4882309F4F6C06A
:1006C000883009F44DC0F6C0883109F44CC080323E
:1006D00009F45DC0EFC0803409F468C048F4803389
:1006E00009F455C0883309F0E5C080936202D8C090
:1006F000803509F44FC0883509F45DC0883409F0AD
:10070000D9C0D6C0883909F4C7C0A8F4883709F41D
:1007100067C038F4883609F463C0803709F460C0D4
:10072000C9C0883809F4B8C0803909F45FC080387E
:1007300009F0C0C05BC0803B09F486C038F4803A41
:1007400009F466C0883A09F47FC0B4C0803C09F45B
:10075000A7C0883C09F4A4C0883B09F48AC0AAC099
:1007600080915F0210C090916102809160029817A1
:1007700070F5E091610281E08E0F80936102F0E0FC
:10078000E25CFD4F80818093BB0085EC86C0809346
:1007900062028EC0E091610281E08E0F809361025F
:1007A0008091BB00F0E0E25CFD4F8083909161029C
:1007B000809160026EC0E091610281E08E0F8093B3
:1007C00061028091BB00F0E0E25CFD4F808380918C
:1007D000630281116DC081E080935E0284EA61C092
:1007E00083E08093640210921002CFCF80911002B8
:1007F000803208F051C0E091100281E08E0F8093AA
:1008000010028091BB00F0E0E051FE4F8083BDCF2D
:1008100085EC8093BC0010926402809110028032BB
:1008200030F4E0911002F0E0E051FE4F1082609150
:10083000100270E0E091EE01F091EF0180EF91E0A5
:1008400009951092100236C084E0809364021092E1
:10085000ED011092EC01E091EA01F091EB010995B4
:100860008091EC01811105C081E08093EC01109230
:10087000CA01E091ED0181E08E0F8093ED01F0E07F
:10088000E653FE4F80818093BB009091ED018091F3
:10089000EC01981708F479CF85E88093BC000AC072
:1008A00085EC8093BC001092640204C01092620236
:1008B0000E948901FF91EF91BF91AF919F918F911C
:1008C0007F916F915F914F913F912F910F900FBE4C
:1008D0000F901F901895009769F0FC01019000207F
:1008E000E9F73197AF01481B590BBC0187E892E04B
:1008F0000C94820080E090E008950C946B048F9239
:100900009F92AF92BF920F931F93CF93DF93CDB778
:10091000DEB7A1970FB6F894DEBF0FBECDBF19A208
:10092000423008F44AE08E010F5D1F4F842E912C57
:10093000A12CB12CA50194010E94C10AE62FB90196
:10094000CA0101501109EA3014F4E05D01C0E95C0C
:10095000D801EC93232B242B252B61F7C8010E948F
:100960006B04A1960FB6F894DEBF0FBECDBFDF912A
:10097000CF911F910F91BF90AF909F908F9008954E
:10098000CF92DF92EF92FF92CF93DF936B017C01C6
:10099000E0918702F09188020190F081E02D6DE2F4
:1009A00087E892E00995EC0166277727CB016C195F
:1009B0007D098E099F094AE00E947F048C0F9D1FCC
:1009C000DF91CF91FF90EF90DF90CF900895BC0121
:1009D000990F880B990B97FD0C94C0044AE00C9476
:1009E0007F0490E0FC01E656FF4F2491FC01EA579A
:1009F000FF4F3491FC01EE58FF4FE491EE23B1F12B
:100A0000222339F1233091F038F42130A9F022303B
:100A100001F584B58F7D12C0273091F02830A1F008
:100A20002430B9F4809180008F7D03C080918000D4
:100A30008F77809380000DC084B58F7784BD09C007
:100A40008091B0008F7703C08091B0008F7D80933C
:100A5000B000F0E0EE0FFF1FE859FF4FA591B491F1
:100A60008FB7F894EC913E2B3C938FBF0895CF93B2
:100A7000DF93CDB7DEB7CD55D1090FB6F894DEBF01
:100A80000FBECDBF789484B5826084BD84B581608B
:100A900084BD85B5826085BD85B5816085BD809149
:100AA0006E00816080936E001092810080918100C1
:100AB00082608093810080918100816080938100B9
:100AC000809180008160809380008091B10084607B
:100AD0008093B1008091B00081608093B0008091DC
:100AE0007A00846080937A0080917A00826080939B
:100AF0007A0080917A00816080937A0080917A00F8
:100B0000806880937A001092C100E0919702F09182
:100B1000980282E08083E0919302F0919402108227
:100B2000E0919502F091960280E1808310929F02FD
:100B3000E0919B02F0919C0286E08083E091990213
:100B4000F0919A02808180618083E0919902F09116
:100B50009A02808188608083E0919902F0919A02E4
:100B6000808180688083E0919902F0919A0280816F
:100B70008F7D80838EE291E00E946B0487E591E097
:100B80000E946B0487E591E00E946B048AE591E086
:100B90000E947D0484E293E09093360380933503B2
:100BA0001092660210926502109239021092380279
:100BB0001092640211E01093630210925E0282E1CF
:100BC0000E94F10483E10E94F1048091B9008E7FBC
:100BD0008093B9008091B9008D7F8093B90088E43B
:100BE0008093B80085E48093BC0080913703109314
:100BF00037028093360210923902109238028091A7
:100C0000350390913603DC01ED91FC910190F08168
:100C1000E02D60E009958091350390913603DC0169
:100C2000ED91FC910190F081E02D60E009958091BB
:100C300037033091380220913602313208F045C036
:100C4000909164029111FCCF92E0909364028093A2
:100C500063028FEF80936202109261023093600210
:100C6000A6E1B2E08EE392E0FC014E2F481B431751
:100C700018F44D914193F9CF10925F0280915F0279
:100C8000220F282B20935F0280915E02813061F455
:100C900010925E0280915F028093BB008091BC0045
:100CA00083FDF8CF85EC01C085EE8093BC00809178
:100CB00064028230E1F3809162028F3F31F08091D3
:100CC0006202803211F08091620210923902109219
:100CD00038021092370286E791E00E947D0487E592
:100CE00091E00E946B0411E08091370390916402BF
:100CF0009111FCCF1093640210936302BFEFB09385
:100D00006202109261022EE12093600210935F0252
:100D100090915F02880F892B80935F0280915E0221
:100D2000813071F410925E0280915F028093BB006B
:100D30008091BC0083FDF8CF35EC3093BC0003C03C
:100D400045EE4093BC00809164028130E1F38091D4
:100D500061028F3118F48091610201C08FE1AEE32E
:100D6000B2E0E7E6F2E09E2F27E632E0921B98170A
:100D700018F49D919193F7CF1092660280936502CB
:100D80008F3109F0AAC02FB7F89480913A02909160
:100D90003B02A0913C02B0913D022FBF26968FAF3F
:100DA000269727969FAF27972896AFAF2897299623
:100DB000BFAF299700E08091350390913603DC01A5
:100DC000ED91FC910084F185E02D0995892BE1F0EE
:100DD00021E0200F8091350390913603DC01ED91E5
:100DE000FC910284F385E02D6E962FAF6E970995E6
:100DF000E1E0F0E0EC0FFD1FE00FF11D80836E9647
:100E00002FAD6E97022FD7CF8B81082F0F7009F46B
:100E100067C08C818F7090E0982F88272D81AC015E
:100E2000422B25965FAF4EAF25978E818F7090E055
:100E3000982F88272F81DC01A22B2396BFAFAEAF5E
:100E40002397013009F44CC08A858F7090E0982F69
:100E500088272B851C01222A8C858F7090E0982F83
:100E600088272D85AC01422B5CAF4BAF0230C1F11E
:100E700088898F7090E0982F882729896C01C22A71
:100E80008A898F7090E0982F88272B895C01A22A8D
:100E9000033031F18E898F7090E0982F88272F8949
:100EA0007C01E22A888D8F7090E0982F8827298D09
:100EB0004C01822A0430A1F08C8D8F7090E0982F25
:100EC00088272D8D2C01422A8E8D8F7090E0982FCF
:100ED00088272F8D3C01622A03C081E090E002C088
:100EE00080E090E0892B09F083C0109266032FB751
:100EF000F89480913A0290913B02A0913C02B0910B
:100F00003D022FBF8093610390936203A09363031C
:100F1000B093640380914703081355C08091480340
:100F20009091490325962EAD3FAD25972817390797
:100F300009F049C080914A0390914B0323962EAD4E
:100F40003FAD239728173907F1F580914C03909115
:100F50004D0328163906B9F580914E0390914F0341
:100F60002BAD3CAD2817390771F580915003909156
:100F70005103C816D90639F5809152039091530355
:100F8000A816B90601F58091540390915503E8160F
:100F9000F906C9F480915603909157038816990673
:100FA00091F480915803909159034816590659F4C9
:100FB00080915A0390915B036816790621F4809121
:100FC0005C038823A9F020913A0330913B0321155B
:100FD000310509F414C28091400390914103892B9B
:100FE00009F40DC28091440381119EC110936503E1
:100FF00080916503882309F494C1E0913A03F0914C
:101000003B03309709F44FC02091400330914103D6
:101010002115310509F447C080914503882309F45F
:1010200042C060913E0370913F03AB014F5F5F4F41
:1010300050933F0340933E03AAE1A69FC001A79FA0
:10104000900D1124E80FF91FDE0111968AE101903D
:101050000D928A95E1F74217530720F010923F0353
:1010600010923E0320913E0330913F0380913C0358
:1010700090913D032817390711F410924503809190
:101080004203909143039C01215031093093430363
:1010900020934203892B11F41092650310934403AB
:1010A000FE01319604C010926503E7E4F3E0DE012F
:1010B00090968AE101900D928A95E1F728A12AAFD6
:1010C00029A13AA169963FAF2EAF69972BA13CA108
:1010D0002F963FAF2EAF2F972DA13EA16B963FAF1E
:1010E0002EAF6B972FA138A52D963FAF2EAF2D9722
:1010F00029A53AA56D963FAF2EAF6D972BA53CA5C0
:101100002B963FAF2EAF2B972DA53EA563963FAFF5
:101110002EAF63972FA538A961963FAF2EAF619789
:1011200029A93AA965963FAF2EAF65972BA93CA98F
:1011300067963FAF2EAF67972EA93FA948AD59AD2F
:1011400021962CAF3DAF4EAF5FAF21978EE791E078
:101150000E947D0482E991E00E947D0421962CADDD
:101160003DAD4EAD5FAD219757FF05C0CA01B90136
:101170000E94C00409C04AE021966CAD7DAD8EADE1
:101180009FAD21970E947F048EE991E00E947D042B
:1011900082EA91E00E947D043AAD832F90E0A0E0C6
:1011A000B0E04AE0BC01CD010E947F048EE991E0ED
:1011B0000E947D045AAD552309F4AFC086EB91E03F
:1011C0000E947D0481E090E00E94E7048DEB91E0B5
:1011D0000E947D0469968EAD9FAD69970E94E704D9
:1011E00083EC91E00E947D042F968EAD9FAD2F97EA
:1011F0000E94E7048EE991E00E947D042AAD22302E
:1012000008F48BC086EB91E00E947D0482E090E0C0
:101210000E94E7048DEB91E00E947D046B968EADF9
:101220009FAD6B970E94E70483EC91E00E947D04E0
:101230002D968EAD9FAD2D970E94E7048EE991E02B
:101240000E947D043AAD323009F467C086EB91E02C
:101250000E947D0483E090E00E94E7048DEB91E022
:101260000E947D046D968EAD9FAD6D970E94E70440
:1012700083EC91E00E947D042B968EAD9FAD2B9761
:101280000E94E7048EE991E00E947D045AAD53303C
:1012900009F443C086EB91E00E947D0484E090E075
:1012A0000E94E7048DEB91E00E947D0463968EAD71
:1012B0009FAD63970E94E70483EC91E00E947D0458
:1012C00061968EAD9FAD61970E94E7048EE991E033
:1012D0000E947D042AAD243001F186EB91E00E944A
:1012E0007D0485E090E00E94E7048DEB91E00E9490
:1012F0007D0465968EAD9FAD65970E94E70483ECF3
:1013000091E00E947D0467968EAD9FAD67970E9425
:10131000E7048EE991E00E947D0487E591E00E9458
:101320006B040E947E01E0CC40913C0350913D0350
:10133000CA01019690933D0380933C036AE1649F48
:10134000C001659F900D1124F901E80FF91F00837A
:1013500025962EAD3FAD25973283218323962EAD62
:101360003FAD239734832383368225822BAD3CAD5A
:1013700030872783D286C186B486A386F686E58623
:10138000908A8786528A418A748A638A26963FADFC
:101390002697368B27965FAD2797578B28962FADCC
:1013A0002897208F29963FAD2997318F10934503B9
:1013B000809142039091430301969093430380935D
:1013C000420320913C0330913D0380914003909172
:1013D00041032817390720F010923D0310923C0377
:1013E00020913C0330913D0380913E0390913F0357
:1013F0002817390709F0FACD10924403F7CD00936E
:10140000470325962EAD3FAD259730934903209392
:10141000480323962EAD3FAD239730934B03209383
:101420004A0330924D0320924C032BAD3CAD3093D8
:101430004F0320934E03D0925103C0925003B092B9
:101440005303A0925203F0925503E09254039092FA
:10145000570380925603509259034092580370925A
:101460005B0360925A0326963FAD269730935D0347
:1014700027965FAD279750935E0328962FAD289748
:1014800020935F0329963FAD299730936003AECD3B
:10149000E7E8F2E01382128288EE93E0A0E0B0E089
:1014A00084839583A683B78328E031E0318320834A
:1014B00025EC30E03587248724EC30E03787268719
:1014C00020EC30E0318B208B21EC30E0338B228B11
:1014D00022EC30E0358B248B26EC30E0378B268BEA
:1014E000118E128E138E148EE4E2F3E013821282B8
:1014F00084839583A683B7838AE191E09183808377
:10150000E0E3F3E0128281E090E09483838316822B
:10151000158288E390E0908787838FEF8187138619
:1015200012861586148617861686118A108A138AE3
:10153000128A148A158A168A15AA16AA11AA12AA3C
:1015400013AA14AA178A118E108E138E128E158E5E
:10155000148E178E168E11A210A213A212A215A21B
:1015600014A217A216A211A610A613A612A614A6BC
:1015700015A616A617A610AA8CE291E09183808387
:101580000895A1E21A2EAA1BBB1BFD010DC0AA1FC4
:10159000BB1FEE1FFF1FA217B307E407F50720F0DC
:1015A000A21BB30BE40BF50B661F771F881F991F57
:1015B0001A9469F760957095809590959B01AC01A0
:1015C000BD01CF010895EE0FFF1F0590F491E02DAE
:1015D000099481E090E0F8940C94EE0AF894FFCF1F
:1015E000880188010000000015018200AD005C0147
:1015F000DE00BC00D000000000001702E701470237
:10160000BB01DF01CB01BC01000000004A024578AC
:10161000616D706C65393939202D2054657374699A
:101620006E67202D204654353331362043545020E8
:10163000447269766572000D0A00426567696E6ED4
:10164000696E6720746865204354502E205374617E
:101650007475733A20004E6F6D696E616C00546F43
:10166000756368207265636F726420696E666F3A95
:10167000200054696D657374616D703A2000203AE2
:1016800020004E756D626572206F6620746F756301
:101690006865733A2000546F75636820002C2078C9
:0A16A0003A20002C20793A200000C7
:00000001FF
