:100000000C9458000C9478020C9451020C948000CB
:100010000C9480000C9480000C9480000C94800060
:100020000C9480000C9480000C9480000C94800050
:100030000C9480000C9480000C9480000C94800040
:100040000C94A1050C9480000C94C5020C949F02A2
:100050000C9480000C9480000C9480000C94800020
:100060000C94F7020C94800000000000250028008A
:100070002B00040404040404040402020202020229
:10008000030303030303010204081020408001025C
:1000900004081020010204081020000000080002DB
:1000A0000100000304070000000000000000870AB0
:1000B00011241FBECFEFD8E0DEBFCDBF11E0A0E01E
:1000C000B1E0E0E6F6E102C005900D92A23FB10773
:1000D000D9F723E0A2EFB1E001C01D92A039B20729
:1000E000E1F710E0C8E5D0E004C02197FE010E94CE
:1000F000230BC735D107C9F70E94EB050C942E0BD3
:100100000C9400000895CF92DF92EF92FF920F932C
:100110001F93CF93DF936C017A018B01C0E0D0E095
:10012000CE15DF0581F0D8016D918D01D601ED91DD
:10013000FC910190F081E02DC6010995892B11F009
:100140002196EECF7E01C701DF91CF911F910F91D4
:10015000FF90EF90DF90CF900895FC01538D448D78
:10016000252F30E0842F90E0821B930B541710F062
:10017000CF96089501970895FC01918D828D98176F
:1001800061F0828DDF01A80FB11D5D968C91928D7B
:100190009F5F9F73928F90E008958FEF9FEF089578
:1001A000FC01918D828D981731F0828DE80FF11D41
:1001B000858D90E008958FEF9FEF0895FC01918D5C
:1001C000228D892F90E0805C9F4F821B91098F7355
:1001D0009927089589EA92E00E94DE0021E0892BA8
:1001E00009F420E0822F0895FC01848DDF01A80F1F
:1001F000B11DA35ABF4F2C91848D90E001968F734F
:100200009927848FA689B7892C93A089B1898C916D
:10021000837080648C93938D848D981306C00288BC
:10022000F389E02D80818F7D80830895EF92FF9286
:100230000F931F93CF93DF93EC0181E0888F9B8D09
:100240008C8D981305C0E889F989808185FD26C0C9
:10025000F62E0B8D10E00F5F1F4F0F731127E02E4E
:100260008C8DE8120CC00FB607FCFACFE889F9892B
:10027000808185FFF5CFCE010E94F400F1CF8B8DF8
:10028000FE01E80FF11DE35AFF4FF0829FB7F8948B
:100290000B8FEA89FB89808180620AC09FB7F8943E
:1002A000EE89FF896083E889F989808183708064A1
:1002B00080839FBF81E090E0DF91CF911F910F91EC
:1002C000FF90EF900895CF93DF93EC01888D882302
:1002D000C9F0EA89FB89808185FD05C0A889B989B3
:1002E0008C9186FD0FC00FB607FCF5CF808185FF8E
:1002F000F2CFA889B9898C9185FFEDCFCE010E94FC
:10030000F400E7CFDF91CF91089580E090E0892B52
:1003100029F00E94EA0081110C940000089585EDF7
:100320008093BC008091BC0084FDFCCF1092A4029D
:10033000089540911202262F30E0240F311D213202
:100340003105DCF42091A4022430C9F4FC0180E0E2
:1003500090E0861758F4309112022191DC01AE50E2
:10036000BE4FA30FB11D2C930196F3CF80911202C3
:10037000680F6093120280E0089581E0089582E0A2
:100380000895089508950895E091A8028091A70224
:10039000E81730F4F0E0EB5CFD4F808190E00895C9
:1003A0008FEF9FEF08959091A8028091A702981770
:1003B00050F4E92FF0E0EB5CFD4F208130E09F5FCF
:1003C0009093A80202C02FEF3FEFC90108958091DA
:1003D000A70290E02091A802821B91090895CF9274
:1003E000DF92EF92FF920F931F93CF93DF937C01E5
:1003F000CB018A0120919D02222389F0EB016B0140
:10040000C40ED51ECC15DD0569F06991D701ED91BB
:10041000FC910190F081E02DC7010995F3CF642F85
:100420000E949901C801DF91CF911F910F91FF9018
:10043000EF90DF90CF900895CF93DF931F92CDB7C9
:10044000DEB7698320919D022223D1F02091A5027D
:10045000203240F021E030E0FC013383228380E051
:1004600090E015C08091A602E82FF0E0E358FD4F20
:10047000998190838F5F8093A6028093A50205C027
:1004800061E0CE0101960E94990181E090E00F9019
:10049000DF91CF910895089580E090E008950E9443
:1004A000290B1F920F920FB60F9211242F933F9397
:1004B0004F935F936F937F938F939F93AF93BF936C
:1004C000EF93FF93E0910201F09103010995FF91F1
:1004D000EF91BF91AF919F918F917F916F915F91BC
:1004E0004F913F912F910F900FBE0F901F90189535
:1004F0001F920F920FB60F9211242F933F934F9399
:100500005F936F937F938F939F93AF93BF93EF937B
:10051000FF93E0910001F09101010995FF91EF91A6
:10052000BF91AF919F918F917F916F915F914F910B
:100530003F912F910F900FBE0F901F9018951F9213
:100540000F920FB60F9211242F933F934F935F9307
:100550006F937F938F939F93AF93BF93EF93FF938B
:1005600089EA92E00E94F400FF91EF91BF91AF9170
:100570009F918F917F916F915F914F913F912F91BB
:100580000F900FBE0F901F9018951F920F920FB6ED
:100590000F9211242F938F939F93EF93FF93E091EA
:1005A000B902F091BA028081E091BF02F091C002DD
:1005B00082FD12C090818091C2028F5F8F73209163
:1005C000C302821751F0E091C202F0E0E755FD4FFF
:1005D000958F8093C20201C08081FF91EF919F911E
:1005E0008F912F910F900FBE0F901F9018951F9213
:1005F0000F920FB60F9211242F933F934F935F9357
:100600006F937F938F939F93AF93BF93EF93FF93DA
:100610008091B900887F803609F49CC068F58832E3
:1006200009F45BC090F4803109F454C038F4882395
:1006300009F4F6C0883009F44DC0F6C0883109F4D9
:100640004CC0803209F45DC0EFC0803409F468C04A
:1006500048F4803309F455C0883309F0E5C080932D
:100660007C02D8C0803509F44FC0883509F45DC0DC
:10067000883409F0D9C0D6C0883909F4C7C0A8F4B5
:10068000883709F467C038F4883609F463C08037C6
:1006900009F460C0C9C0883809F4B8C0803909F4C9
:1006A0005FC0803809F0C0C05BC0803B09F486C0E1
:1006B00038F4803A09F466C0883A09F47FC0B4C0BF
:1006C000803C09F4A7C0883C09F4A4C0883B09F425
:1006D0008AC0AAC08091590210C090917B0280917B
:1006E0007A02981770F5E0917B0281E08E0F80937B
:1006F0007B02F0E0E65AFD4F80818093BB0085ECE1
:1007000086C080937C028EC0E0917B0281E08E0FD8
:1007100080937B028091BB00F0E0E65AFD4F80831E
:1007200090917B0280917A026EC0E0917B0281E021
:100730008E0F80937B028091BB00F0E0E65AFD4F64
:1007400080838091A30281116DC081E08093A20219
:1007500084EA61C083E08093A40210923402CFCF78
:1007600080913402803208F051C0E091340281E07F
:100770008E0F809334028091BB00F0E0EC5EFD4F61
:100780008083BDCF85EC8093BC001092A402809141
:100790003402803230F4E0913402F0E0EC5EFD4F40
:1007A00010826091340270E0E0919E02F0919F020D
:1007B00084E192E009951092340236C084E080937F
:1007C000A4021092130210921202E091A002F09182
:1007D000A102099580911202811105C081E08093E8
:1007E00012021092F201E091130281E08E0F8093C9
:1007F0001302F0E0EE50FE4F80818093BB00909199
:10080000130280911202981708F479CF85E880933B
:10081000BC000AC085EC8093BC001092A40204C006
:1008200010927C020E948F01FF91EF91BF91AF91D6
:100830009F918F917F916F915F914F913F912F91F8
:100840000F900FBE0F901F90189590E0FC01E65698
:10085000FF4F2491FC01EA57FF4F3491FC01EE5801
:10086000FF4FE491EE23B1F1222339F1233091F0CF
:1008700038F42130A9F0223001F584B58F7D12C003
:10088000273091F02830A1F02430B9F48091800015
:100890008F7D03C0809180008F77809380000DC092
:1008A00084B58F7784BD09C08091B0008F7703C075
:1008B0008091B0008F7D8093B000F0E0EE0FFF1FBD
:1008C000E859FF4FA591B4918FB7F894EC91E32BC1
:1008D000EC938FBF0895009769F0FC010190002010
:1008E000E9F73197AF01481B590BBC0189EA92E047
:1008F0000C94830080E090E008950C946B048F9238
:100900009F92AF92BF920F931F93CF93DF93CDB778
:10091000DEB7A1970FB6F894DEBF0FBECDBF19A208
:10092000423008F44AE08E010F5D1F4F842E912C57
:10093000A12CB12CA50194010E94010BE62FB90155
:10094000CA0101501109EA3014F4E05D01C0E95C0C
:10095000D801EC93232B242B252B61F7C8010E948F
:100960006B04A1960FB6F894DEBF0FBECDBFDF912A
:10097000CF911F910F91BF90AF909F908F9008954E
:10098000CF92DF92EF92FF92CF93DF936C01990F9A
:10099000EE08FF08F7FE19C06DE289EA92E00E94B6
:1009A0001601EC0166277727CB016C197D098E09AA
:1009B0009F094AE00E947F048C0F9D1FDF91CF9119
:1009C000FF90EF90DF90CF9008954AE0C701B60105
:1009D000DF91CF91FF90EF90DF90CF900C947F0448
:1009E000CF9386E493E0909358038093570310923B
:1009F000A8021092A7021092A6021092A5021092CD
:100A0000A402C1E0C093A3021092A20282E10E945C
:100A1000250483E10E9425048091B9008E7F809394
:100A2000B9008091B9008D7F8093B90088E48093EC
:100A3000B80085E48093BC0081EC91E09093A10222
:100A40008093A00282EC91E090939F0280939E029B
:100A500080915903C0939D0280938F031092A60248
:100A60001092A5028091570390915803DC01ED91FB
:100A7000FC910190F081E02D60E009958091570391
:100A800090915803DC01ED91FC910190F081E02DF3
:100A900060E009952091A502213208F048C08091BC
:100AA000A4028111FCCF9091590380918F0332E011
:100AB0003093A4029093A3029FEF90937C02109234
:100AC0007B0220937A02ADE7B2E0EAE5F2E090E043
:100AD000291721F03D9131939F5FFACF109259026F
:100AE00090915902880F892B809359028091A2021C
:100AF000813061F41092A202809159028093BB0070
:100B00008091BC0083FDF8CF85EC01C085EE809319
:100B1000BC008091A4028230E1F380917C028F3F7F
:100B200031F080917C02803211F080917C02109231
:100B3000A6021092A50210929D0280E090E0CF9153
:100B400008951F920F920FB60F9211242F933F9387
:100B50008F939F93AF93BF938091550290915602CC
:100B6000A0915702B091580230918E0323E0230FD9
:100B70002D3720F40196A11DB11D05C026E8230FD5
:100B80000296A11DB11D20938E0380935502909370
:100B90005602A0935702B093580280918A03909115
:100BA0008B03A0918C03B0918D030196A11DB11D03
:100BB00080938A0390938B03A0938C03B0938D034F
:100BC000BF91AF919F918F913F912F910F900FBE49
:100BD0000F901F901895CF93DF93CDB7DEB7CE550A
:100BE000D1090FB6F894DEBF0FBECDBF789484B59F
:100BF000826084BD84B5816084BD85B5826085BD19
:100C000085B5816085BD80916E00816080936E00A6
:100C10001092810080918100826080938100809198
:100C20008100816080938100809180008160809349
:100C300080008091B10084608093B1008091B00009
:100C400081608093B00080917A00846080937A0004
:100C500080917A00826080937A0080917A0081602E
:100C600080937A0080917A00806880937A00109255
:100C7000C100E091B902F091BA0282E08083E09174
:100C8000B502F091B6021082E091B702F091B8027D
:100C900080E180831092C102E091BD02F091BE021A
:100CA00086E08083E091BB02F091BC02808180618C
:100CB0008083E091BB02F091BC02808188608083D8
:100CC000E091BB02F091BC02808180688083E0915A
:100CD000BB02F091BC0280818F7D80838EE291E027
:100CE0000E946B048AE591E00E946B048AE591E022
:100CF0000E946B048DE591E00E947D040E94F00447
:100D00008130910549F028F0029749F487E891E095
:100D100008C089E791E005C081E891E002C087E959
:100D200091E00E947D048BE591E00E946B048AE5CE
:100D300091E00E946B040E94F0048091590390910D
:100D4000A4029111FCCF21E02093A4022093A302DE
:100D50003FEF30937C0210927B024EE140937A0287
:100D60002093590290915902880F892B8093590240
:100D70008091A202813071F41092A20280915902F6
:100D80008093BB008091BC0083FDF8CF65EC60933D
:100D9000BC0003C075EE7093BC008091A40281304A
:100DA000E1F380917B028F3118F490917B0201C0B6
:100DB0009FE1AAE5B2E0E5E3F2E080E0891721F0E7
:100DC0002D9121938F5FFACF1092A8028093A702F2
:100DD0008F3109F0B0C08FB7F89480905502909091
:100DE0005602A0905702B09058028FBF10E0809139
:100DF000570390915803DC01ED91FC910084F1853B
:100E0000E02D0995892BB1F001E0010F8091570386
:100E100090915803DC01ED91FC910284F385E02D63
:100E20000995E1E0F0E0EC0FFD1FE10FF11D80837B
:100E3000102FDDCF8B818F708BAF2A8130E088231C
:100E400009F47CC08C818F7090E0982F88274D81A9
:100E50007C01E42A8E818F7090E0982F88274F8143
:100E60006C01C42ABBADB13009F468C08A858F70AB
:100E700090E0982F88274B85BC01642B27967FAF85
:100E80006EAF27978C858F7090E0982F88274D85BF
:100E9000DC01A42BBEAFADAFBBADB23009F44EC088
:100EA00088898F7090E0982F88274989BC01642B2E
:100EB00021967FAF6EAF21978A898F7090E0982F2F
:100EC00088274B89DC01A42B2996BFAFAEAF2997A9
:100ED000BBADB33099F18E898F7090E0982F882741
:100EE0004F89BC01642B2B967FAF6EAF2B97888DFB
:100EF0008F7090E0982F8827498DDC01A42B2596D0
:100F0000BFAFAEAF2597BBADB430C1F08C8D8F7045
:100F100090E0982F88274D8D1C01242A8E8D8F708C
:100F200090E0982F88274F8DBC01642B23967FAFCC
:100F30006EAF239703C081E090E003C0890180E099
:100F400090E0892B09F09AC0109289032FB7F8948A
:100F50008091550290915602A0915702B09158028B
:100F60002FBF8093840390938503A0938603B0934F
:100F70008703809169037BAD87136BC080916A03FF
:100F800090916B038E159F0509F063C080916C03EF
:100F900090916D038C159D0509F05BC080916E03E7
:100FA00090916F032796AEADBFAD27978A179B0729
:100FB00009F04FC080917003909171032DAD3EAD4B
:100FC0002817390709F045C0809172039091730387
:100FD00021966EAD7FAD219768177907D1F5809185
:100FE0007403909175032996AEADBFAD29978A170A
:100FF0009B0779F580917603909177032B962EAD20
:101000003FAD2B978217930721F58091780390913C
:10101000790325966EAD7FAD259786179707C9F49E
:1010200080917A0390917B032816390691F4809180
:101030007C0390917D032396AEADBFAD23978A17B5
:101040009B0739F480917E0390917F03081719075D
:10105000A9F0E0915C03F0915D03309709F405C2BB
:101060008091620390916303892B09F4FEC1809102
:101070006603811188C1B1E0B09388038091880331
:10108000882309F47DC1E0915C03F0915D03309702
:1010900009F451C040916203509163034115510519
:1010A00009F449C080916703882309F444C0609122
:1010B0006003709161039B012F5F3F4F3093610389
:1010C00020936003ABE1A69FC001A79F900D112460
:1010D000E80FF91FDE0111968BE101900D928A95C0
:1010E000E1F72417350720F0109261031092600396
:1010F000209160033091610380915E0390915F03C2
:101100002817390711F410926703809164039091B6
:1011100065039C01215031093093650320936403DA
:10112000892B11F410928803B1E0B09366038BE130
:10113000FE01319605C0109288038BE1E9E6F3E0E9
:10114000DE01909601900D928A95E1F728A12CAFCF
:1011500069A17AA12D967FAF6EAF2D978BA19CA12F
:1011600067969FAF8EAF6797ADA1BEA12F96BFAF19
:10117000AEAF2F972FA138A569963FAF2EAF6997D5
:1011800069A57AA561967FAF6EAF61978BA59CA587
:101190006B969FAF8EAF6B97ADA5BEA56396BFAFA5
:1011A000AEAF63972FA538A96D963FAF2EAF6D9761
:1011B00069A97AA965967FAF6EAF65978BA99CA93F
:1011C0006F969FAF8EAF6F974FA858AC69AC7AAC53
:1011D00086EA91E00E947D048AEB91E00E947D0402
:1011E0004AE0C301B2010E947F0486EC91E00E94B4
:1011F0007D048AEC91E00E947D04ACAD6A2F70E022
:1012000080E090E04AE00E947F0486EC91E00E943A
:101210007D04BCADBB2309F4AFC08EED91E00E940C
:101220007D0481E090E00E94C00485EE91E00E9480
:101230007D042D968EAD9FAD2D970E94C0048BEE40
:1012400091E00E947D0467968EAD9FAD67970E94E6
:10125000C00486EC91E00E947D042CAD223008F49D
:101260008BC08EED91E00E947D0482E090E00E94B0
:10127000C00485EE91E00E947D042F968EAD9FAD57
:101280002F970E94C0048BEE91E00E947D04699626
:101290008EAD9FAD69970E94C00486EC91E00E94DC
:1012A0007D043CAD323009F467C08EED91E00E94C0
:1012B0007D0483E090E00E94C00485EE91E00E94EE
:1012C0007D0461968EAD9FAD61970E94C0048BEE48
:1012D00091E00E947D046B968EAD9FAD6B970E944E
:1012E000C00486EC91E00E947D044CAD433009F4CB
:1012F00043C08EED91E00E947D0484E090E00E9466
:10130000C00485EE91E00E947D0463968EAD9FAD92
:1013100063970E94C0048BEE91E00E947D046D965D
:101320008EAD9FAD6D970E94C00486EC91E00E9447
:101330007D046CAD643001F18EED91E00E947D047E
:1013400085E090E00E94C00485EE91E00E947D045B
:1013500065968EAD9FAD65970E94C0048BEE91E0BF
:101360000E947D046F968EAD9FAD6F970E94C00462
:1013700086EC91E00E947D048AE591E00E946B0476
:101380000E948501D8CC20915E0330915F03C90192
:10139000019690935F0380935E03BBE1B29FC0010F
:1013A000B39F900D1124E80FF91F2BAD2083F2821B
:1013B000E182D482C38227966EAD7FAD2797768374
:1013C00065838DAD9EAD908787832196AEADBFAD11
:1013D0002197B287A18729962EAD3FAD29973487F3
:1013E00023872B966EAD7FAD2B97768765872596E5
:1013F0008EAD9FAD2597908B8787328A218A239661
:10140000AEADBFAD2397B48BA38B168B058B878AAC
:10141000908EA18EB28EB1E0B09367038091640389
:1014200090916503019690936503809364032091E6
:101430005E0330915F0380916203909163032817EC
:10144000390720F010925F0310925E0320915E0333
:1014500030915F03809160039091610328173907F1
:1014600009F009CE1092660306CE2BAD20936903D6
:10147000F0926B03E0926A03D0926D03C0926C030A
:1014800027966EAD7FAD279770936F0360936E03C1
:101490008DAD9EAD90937103809370032196AEAD98
:1014A000BFAD2197B0937303A093720329962EAD1D
:1014B0003FAD299730937503209374032B966EAD3F
:1014C0007FAD2B97709377036093760325968EAD4F
:1014D0009FAD2597909379038093780330927B0397
:1014E00020927A032396AEADBFAD2397B0937D03D0
:1014F000A0937C0310937F0300937E03809280036C
:1015000090928103A0928203B0928303B4CDE9EA62
:10151000F2E01382128288EE93E0A0E0B0E08483D0
:101520009583A683B78328E031E03183208325ECBF
:1015300030E03587248724EC30E03787268720EC9D
:1015400030E0318B208B21EC30E0338B228B22EC8E
:1015500030E0358B248B26EC30E0378B268B118ED8
:10156000128E138E148EE6E4F3E0138212828483CB
:101570009583A683B7838AE191E091838083E2E536
:10158000F3E0128281E090E09483838316821582D7
:1015900088E390E0908787838FEF81871386128698
:1015A0001586148617861686118A108A138A128A5F
:1015B000148A158A168A16AA17AA12AA13AA14AA96
:1015C00015AA178A118E108E138E128E158E148EF8
:1015D000178E168E11A210A213A212A215A214A287
:1015E00017A216A211A610A613A612A615A614A637
:1015F00016A617A610AA11AA8CE291E09183808307
:101600000895A1E21A2EAA1BBB1BFD010DC0AA1F43
:10161000BB1FEE1FFF1FA217B307E407F50720F05B
:10162000A21BB30BE40BF50B661F771F881F991FD6
:101630001A9469F760957095809590959B01AC011F
:10164000BD01CF010895EE0FFF1F0590F491E02D2D
:10165000099481E090E0F8940C942E0BF894FFCF5D
:10166000820082000000000016018300AD006301CB
:10167000DE00BC00D000000000001C02EF014C02A4
:10168000C301E701D301C40100000000C301457894
:10169000616D706C6531202D204654353331362014
:1016A000435450204472697665722053696D706CA2
:1016B000652053656E73696E67000D0A00426567A9
:1016C000696E6E696E6720746865204354502E20E1
:1016D0005374617475733A20004E6F6D696E616C5E
:1016E000004572726F72004E6F7420456E6F7567A1
:1016F0006820436F726500556E6B6E6F776E207356
:10170000746174757300546F756368207265636FDC
:10171000726420696E666F3A200054696D65737457
:10172000616D703A2000203A20004E756D6265723E
:10173000206F6620746F75636865733A2000546F7C
:1017400075636820002C20783A20002C20793A20FC
:02175000000097
:00000001FF
