:100000000C945D000C941F030C94F8020C94850072
:100010000C9485000C9485000C9485000C9485004C
:100020000C9485000C9485000C9485000C9485003C
:100030000C9485000C9485000C9485000C9485002C
:100040000C94AE020C9485000C947C020C94560225
:100050000C9485000C9485000C9485000C9485000C
:100060000C9446030C948500000000002400270037
:100070002A0000000000250028002B0004040404CE
:100080000404040402020202020203030303030342
:10009000010204081020408001020408102001021F
:1000A00004081020000000080002010000030407FB
:1000B00000000000000000008C0B11241FBECFEFD9
:1000C000D8E0DEBFCDBF14E0A0E0B1E0E2ECFAE1A1
:1000D00002C005900D92A234B107D9F725E0A2E441
:1000E000B4E001C01D92A33EB207E1F710E0CDE5F8
:1000F000D0E004C02197FE010E94270CCC35D10727
:10010000C9F70E94B8060C945F0D0C940000CF92C2
:10011000DF92EF92FF920F931F93CF93DF936C01C7
:100120007A018B01C0E0D0E0CE15DF0589F0D8015F
:100130006D918D01D601ED91FC910190F081E02D42
:10014000C6010995892B11F47E0102C02196ECCFDE
:10015000C701DF91CF911F910F91FF90EF90DF903A
:10016000CF900895FC01538D448D252F30E0842FCE
:1001700090E0821B930B541710F0CF9608950197CF
:100180000895FC01918D828D981761F0828DDF01B9
:10019000A80FB11D5D968C91928D9F5F9F73928F7A
:1001A00090E008958FEF9FEF0895FC01918D828D6F
:1001B000981731F0828DE80FF11D858D90E008953C
:1001C0008FEF9FEF0895FC01918D228D892F90E094
:1001D000805C9F4F821B91098F73992708958FEF41
:1001E00094E00E94E30021E0892B09F420E0822FB3
:1001F0000895FC01848DDF01A80FB11DA35ABF4FE4
:100200002C91848D90E001968F739927848FA68915
:10021000B7892C93A089B1898C9180648C93938D3C
:10022000848D981306C00288F389E02D80818F7D2C
:1002300080830895EF92FF920F931F93CF93DF93E4
:10024000EC0181E0888F9B8D8C8D981305C0E88927
:10025000F989808185FD24C0F62E0B8D10E00F5F9B
:100260001F4F0F731127E02E8C8DE8120CC00FB6B4
:1002700007FCFACFE889F989808185FFF5CFCE01A7
:100280000E94F900F1CF8B8DFE01E80FF11DE35ABA
:10029000FF4FF0820B8FEA89FB898081806207C063
:1002A000EE89FF896083E889F98980818064808391
:1002B00081E090E0DF91CF911F910F91FF90EF903F
:1002C0000895CF93DF93EC01888D8823C9F0EA89E4
:1002D000FB89808185FD05C0A889B9898C9186FD3F
:1002E0000FC00FB607FCF5CF808185FFF2CFA8893C
:1002F000B9898C9185FFEDCFCE010E94F900E7CF3F
:10030000DF91CF91089580E090E0892B29F00E9441
:10031000EF0081110C9400000895089585ED8093FD
:10032000BC008091BC0084FDFCCF10928F04089526
:100330004091D504262F30E0240F311D21323105A4
:10034000DCF420918F042430C9F4FC0180E090E0BB
:10035000861758F43091D5042191DC01AD54BB4F80
:10036000A30FB11D2C930196F3CF8091D504680F94
:100370006093D50480E0089581E0089582E00895B7
:100380000895E091910480919004E81730F4F0E032
:10039000EE56FB4F808190E008958FEF9FEF089518
:1003A0009091910480919004981750F4E92FF0E017
:1003B000EE56FB4F208130E09F5F9093910402C086
:1003C0002FEF3FEFC90108958091900490E02091B4
:1003D0009104821B91090895CF92DF92EF92FF92D0
:1003E0000F931F93CF93DF937C01262F972F8A01C2
:1003F00080916204882391F0C62FD72F6E01C40E1E
:10040000D51ECC15DD0571F06991D701ED91FC91F8
:100410000190F081E02DC7010995F3CF642F822F61
:100420000E949801C801DF91CF911F910F91FF9019
:10043000EF90DF90CF900895CF93DF931F92CDB7C9
:10044000DEB76983209162042223D1F020916304F6
:10045000203240F021E030E0FC013383228380E051
:1004600090E015C080916404E82FF0E0EE5BFB4F54
:10047000998190838F5F809364048093630405C0A7
:1004800061E0CE0101960E94980181E090E00F901A
:10049000DF91CF910895089580E090E00895089548
:1004A0000E945A0D81E08093DE0508951F920F92FD
:1004B0000FB60F9211242F933F934F935F936F9337
:1004C0007F938F939F93AF93BF93EF93FF938FEFA0
:1004D00094E00E94F900FF91EF91BF91AF919F913D
:1004E0008F917F916F915F914F913F912F910F90DD
:1004F0000FBE0F901F9018951F920F920FB60F927C
:1005000011242F938F939F93EF93FF93E0910F0507
:10051000F09110058081E0911505F091160582FD9E
:1005200012C09081809118058F5F8F7320911905FB
:10053000821751F0E0911805F0E0E150FB4F958FE4
:100540008093180501C08081FF91EF919F918F9159
:100550002F910F900FBE0F901F9018951F920F9222
:100560000FB60F9211242F933F938F939F93AF93C6
:10057000BF938091650490916604A0916704B09147
:1005800068043091FE0423E0230F2D3720F40196F8
:10059000A11DB11D05C026E8230F0296A11DB11DA6
:1005A0002093FE048093650490936604A0936704EF
:1005B000B09368048091FA049091FB04A091FC042C
:1005C000B091FD040196A11DB11D8093FA04909392
:1005D000FB04A093FC04B093FD04BF91AF919F91E5
:1005E0008F913F912F910F900FBE0F901F901895F4
:1005F0001F920F920FB60F9211242F933F934F9398
:100600005F936F937F938F939F93AF93BF93EF937A
:10061000FF93E0910201F09103010995FF91EF91A1
:10062000BF91AF919F918F917F916F915F914F910A
:100630003F912F910F900FBE0F901F9018951F9212
:100640000F920FB60F9211242F933F934F935F9306
:100650006F937F938F939F93AF93BF93EF93FF938A
:10066000E0910001F09101010995FF91EF91BF9197
:10067000AF919F918F917F916F915F914F913F913A
:100680002F910F900FBE0F901F9018951F920F92F1
:100690000FB60F9211242F933F934F935F936F9355
:1006A0007F938F939F93AF93BF93EF93FF9380912B
:1006B000B900887F803609F49CC068F5883209F457
:1006C0005BC090F4803109F454C038F4882309F4F5
:1006D000F6C0883009F44DC0F6C0883109F44CC02A
:1006E000803209F45DC0EFC0803409F468C048F47A
:1006F000803309F455C0883309F0E5C080938D0438
:10070000D8C0803509F44FC0883509F45DC08834FD
:1007100009F0D9C0D6C0883909F4C7C0A8F4883711
:1007200009F467C038F4883609F463C0803709F4E7
:1007300060C0C9C0883809F4B8C0803909F45FC006
:10074000803809F0C0C05BC0803B09F486C038F433
:10075000803A09F466C0883A09F47FC0B4C0803C8E
:1007600009F4A7C0883C09F4A4C0883B09F48AC0F6
:10077000AAC080918A0410C090918C0480918B044F
:10078000981770F5E0918C0481E08E0F80938C04B3
:10079000F0E0E759FB4F80818093BB0085EC86C079
:1007A00080938D048EC0E0918C0481E08E0F809345
:1007B0008C048091BB00F0E0E759FB4F808390915F
:1007C0008C0480918B046EC0E0918C0481E08E0FCC
:1007D00080938C048091BB00F0E0E759FB4F80834D
:1007E00080918E0481116DC081E08093890484EA38
:1007F00061C083E080938F041092F904CFCF809181
:10080000F904803208F051C0E091F90481E08E0FC4
:100810008093F9048091BB00F0E0E752FB4F8083A6
:10082000BDCF85EC8093BC0010928F048091F904B9
:10083000803230F4E091F904F0E0E752FB4F10828F
:100840006091F90470E0E091D704F091D80489ED4B
:1008500094E009951092F90436C084E080938F04E7
:100860001092D6041092D504E091D304F091D404F0
:1008700009958091D504811105C081E08093D5044C
:100880001092B304E091D60481E08E0F8093D604D9
:10089000F0E0ED54FB4F80818093BB009091D60433
:1008A0008091D504981708F479CF85E88093BC002F
:1008B0000AC085EC8093BC0010928F0404C0109293
:1008C0008D040E948E01FF91EF91BF91AF919F9196
:1008D0008F917F916F915F914F913F912F910F90E9
:1008E0000FBE0F901F9018958130910541F0823016
:1008F000910541F0892B49F483E192E008C08BE136
:1009000092E005C081E292E002C081E392E00C94A3
:100910009B04009769F0FC0101900020E9F73197F2
:10092000AF01481B590BBC018FEF94E00C9487007A
:1009300080E090E008950C9489048F929F92AF928A
:10094000BF920F931F93CF93DF93CDB7DEB7A197DD
:100950000FB6F894DEBF0FBECDBF19A2423008F427
:100960004AE08E010F5D1F4F842E912CA12CB12CDB
:10097000A50194010E94050CE62FB901CA0101509E
:100980001109EA3014F4E05D01C0E95CD801EC9390
:10099000232B242B252B61F7C8010E948904A196E3
:1009A0000FB6F894DEBF0FBECDBFDF91CF911F9180
:1009B0000F91BF90AF909F908F900895CF92DF924C
:1009C000EF92FF92CF93DF936B017C01E091FF04E4
:1009D000F09100050190F081E02D6DE28FEF94E041
:1009E0000995EC0166277727CB016C197D098E09E3
:1009F0009F094AE00E949D048C0F9D1FDF91CF91BB
:100A0000FF90EF90DF90CF90089580E492E00C94F7
:100A10008904CF93DF934115510559F4E091FF0408
:100A2000F09100050190F081E02D8FEF94E00995A1
:100A300002C00E949D04EC010E9405058C0F9D1FC1
:100A4000DF91CF910895CF93DF93AB01672B61F4D2
:100A5000E091FF04F09100050190F081E02D682FF6
:100A60008FEF94E009950FC0BC01990F880B990B8B
:100A70004A30510531F497FF03C00E94DE0403C0E1
:100A80004AE00E949D04EC010E9405058C0F9D1F09
:100A9000DF91CF9108950F931F93CF93DF93EC01D4
:100AA0008B0183E492E00E949B04CE010E947404B7
:100AB0008DE492E00E949B04B80180E090E04AE05F
:100AC0000E949D0487E592E00E949B0481E692E0EB
:100AD0000E949B0481EB91E00E949B04DF91CF91E7
:100AE0001F910F910C940505CF93DF93BC0180E01B
:100AF00090E04AE00E949D04EC010E9405058C0FE5
:100B00009D1FDF91CF910895BC01990F880B990B20
:100B100097FD0C94DE044AE00C949D04CF93DF9380
:100B200088EB92E00E949B04C8EAD5E0BE010D2E3E
:100B3000000C880B990B40E150E00E94090585EDFF
:100B400092E00E949B048A816AE070E090E00E943B
:100B5000230587EE92E00E949B0460E170E08B81A8
:100B60009C810E94230581EF92E00E949B0440E15A
:100B700050E06DEA75E0072E000C880B990B0E947F
:100B800009058DE093E00E949B046D817E81072E14
:100B9000000C880B990B40E150E00E94090588E2A7
:100BA00093E00E949B0460E170E08F8198850E9431
:100BB000230588E393E00E949B04698570E080E050
:100BC00090E04AE00E949D040E94050588E493E0BD
:100BD0000E949B0440E150E062EB75E0072E000CA0
:100BE000880B990B0E9409058BE693E00E949B04F9
:100BF0006A857B85072E000C880B990B40E150E03D
:100C00000E9409058CE893E00E949B048C859D85D9
:100C10000E9474058BE993E00E949B048E859F855A
:100C20000E94740589EA93E00E949B04888999894F
:100C30000E94740588EB93E00E949B048A899B893B
:100C40000E9474058CEC93E00E949B048C896AE0FE
:100C500070E090E00E94230587ED93E00E949B04E2
:100C60008D896AE070E090E00E94230581EE93E0B8
:100C70000E949B048E896AE070E090E00E94230548
:100C800087EF93E00E949B048DA96AE070E090E0FA
:100C90000E94230582E094E00E949B0469A97AA93E
:100CA0008BA99CA94AE050E00E9409058BE194E0E1
:100CB0000E949B0440E150E06FEB75E0072E000CB2
:100CC000880B990BDF91CF910C940905CF93DF939B
:100CD0000E948904EC010E9405058C0F9D1FDF9185
:100CE000CF91089590E0FC01EC55FF4F2491FC0159
:100CF000E057FF4F3491FC01E458FF4FE491EE239D
:100D0000B1F1222339F1233091F038F42130A9F0E8
:100D1000223001F584B58F7D12C0273091F0283044
:100D2000A1F02430B9F4809180008F7D03C08091C0
:100D300080008F77809380000DC084B58F7784BD4D
:100D400009C08091B0008F7703C08091B0008F7D83
:100D50008093B000F0E0EE0FFF1FEE58FF4FA5911B
:100D6000B4918FB7F894EC913E2B3C938FBF0895CC
:100D7000CF93DF93CDB7DEB7A6970FB6F894DEBF5B
:100D80000FBECDBF789484B5826084BD84B5816088
:100D900084BD85B5826085BD85B5816085BD809146
:100DA0006E00816080936E001092810080918100BE
:100DB00082608093810080918100816080938100B6
:100DC000809180008160809380008091B100846078
:100DD0008093B1008091B00081608093B0008091D9
:100DE0007A00846080937A0080917A008260809398
:100DF0007A0080917A00816080937A0080917A00F5
:100E0000806880937A001092C100E0910F05F09104
:100E1000100582E08083E0910B05F0910C051082B3
:100E2000E0910D05F0910E0580E180831092170589
:100E3000E0911305F091140586E08083E09111059F
:100E4000F0911205808180618083E0911105F0911D
:100E50001205808188608083E0911105F091120570
:100E6000808180688083E0911105F0911205808176
:100E70008F7D808384E391E00E9466060E940505D1
:100E80008DE591E00E9466060E948E050E94050590
:100E90000E94050584E791E00E949B048091BE05B5
:100EA000882331F08091B2059091B3050E94C20C65
:100EB0001092BB051092BA051092B5051092B405B8
:100EC0001092B7051092B6051092BD051092BE059E
:100ED0001092B3051092B2051092BC0584E091E027
:100EE0000E942D0C009749F469ED70E082E090E0DB
:100EF0000E944B0582E090E011C09093B30580936F
:100F0000B2058AE090E09093B9058093B80581E03E
:100F10008093BE058093BC0580E090E00E9474043D
:100F20000E94050581E492E00E94660681E08093BC
:100F3000AA0582E08093B1051092AC051092AB0532
:100F4000E2E9F0E02491EEE7F0E044914423C1F0BF
:100F500050E0440F551FFA01E859FF4F85919491D5
:100F6000FA01EE58FF4FA591B4914FB7F894FC01E8
:100F70003081209532233083EC912E232C934FBF68
:100F80008091B105823019F08330B1F4A9C280E0BC
:100F9000E82FF0E0EE0FFF1FE050FF4F22E532E0B8
:100FA00031832083813009F49DC2809169008C7F58
:100FB000826080936900E89A88E991E00E94660661
:100FC0008CE995E09093AE058093AD051092910465
:100FD00010929004109264041092630410928F0493
:100FE0002224239420928E041092890482E10E948C
:100FF000720683E10E9472068091B9008E7F809311
:10100000B9008091B9008D7F8093B90088E4809306
:10101000B80085E48093BC008091AF052092620403
:101020008093B20410926404109263048091AD0521
:101030009091AE05DC01ED91FC910190F081E02DE5
:1010400060E009958091AD059091AE05DC01ED91D0
:10105000FC910190F081E02D60E009952091AF05B1
:10106000909163048091B204913208F045C03091B0
:101070008F043111FCCF32E030938F0420938E0423
:101080002FEF20938D0410928C0490938B04A2E494
:10109000B4E029E634E0F9014E2F421B491718F459
:1010A0004D914193F9CF10928A0490918A04880F50
:1010B000892B80938A0480918904813061F4109295
:1010C000890480918A048093BB008091BC0083FDD9
:1010D000F8CF85EC01C085EE8093BC0080918F0431
:1010E0008230E1F380918D048F3F31F080918D0447
:1010F000803211F080918D04109264041092630488
:101100001092620483EA91E00E9466060E948E05B6
:101110000E9405050E94050583EB91E00E9466068A
:1011200084ED91E00E949B0488EE91E00E949B0474
:101130006091BF0570E080E090E04AE00E949D046D
:101140008CEF91E00E949B048091BF05882301F100
:1011500080E092E00E949B0481E090E00E94840580
:1011600087E092E00E949B048091C0059091C105A8
:101170000E9484058DE092E00E949B048091C2054C
:101180009091C3050E9484058CEF91E00E949B041E
:101190008091BF05823000F180E092E00E949B04C4
:1011A00082E090E00E94840587E092E00E949B0428
:1011B0008091C4059091C5050E9484058DE092E060
:1011C0000E949B048091C6059091C7050E948405EA
:1011D0008CEF91E00E949B048091BF05833000F169
:1011E00080E092E00E949B0483E090E00E948405EE
:1011F00087E092E00E949B048091C8059091C90508
:101200000E9484058DE092E00E949B048091CA05B3
:101210009091CB050E9484058CEF91E00E949B0485
:101220008091BF05843000F180E092E00E949B0431
:1012300084E090E00E94840587E092E00E949B0495
:101240008091CC059091CD050E9484058DE092E0BF
:101250000E949B048091CE059091CF050E94840549
:101260008CEF91E00E949B048091BF05853000F1D6
:1012700080E092E00E949B0485E090E00E9484055B
:1012800087E092E00E949B048091D0059091D10567
:101290000E9484058DE092E00E949B048091D2051B
:1012A0009091D3050E9484058CEF91E00E949B04ED
:1012B0000E940505222423948091DE05882309F4E9
:1012C0000CC18091AF0590918F049111FCCF2092B9
:1012D0008F0420928E04BFEFB0938D0410928C0483
:1012E000EEE1E0938B0420928A0490918A04880FA7
:1012F000892B80938A0480918904813071F4109243
:10130000890480918A048093BB008091BC0083FD96
:10131000F8CFF5ECF093BC0003C025EE2093BC00A1
:1013200080918F048130E1F380918C048F3118F427
:1013300080918C0401C08FE1A9E6B4E0E2E9F4E019
:101340009E2F42E954E0941B981718F49D919193B5
:10135000F7CF10929104809390048F3109F091C0DF
:10136000312C8091AD059091AE05DC01ED91FC91A1
:101370000084F185E02D0995892BC1F021E0230D32
:101380008091AD059091AE05DC01ED91FC91028458
:10139000F385E02D2EA30995E1E0F0E0EC0FFD1FB1
:1013A000E30DF11D80832EA1322EDBCF8B818F7058
:1013B000382E09F40CC18C818F70E82EF12CFE2C94
:1013C000EE248D81E82A0E810F7010E0102F002787
:1013D0008F81082BB1E03B1609F4F9C08A858F7024
:1013E000482E512C542C44248B85482A8C858F7090
:1013F00090E0982F88272D85FC01E22BF9A3E8A324
:10140000F2E03F1609F4E3C088898F7090E0982FCE
:1014100088272989AC01422B5DA34CA38A898F7050
:1014200090E0982F88272B89DC01A22BBBA3AAA3CD
:10143000B3E03B1609F4CBC08E898F70682E712CF7
:10144000762C66248F89682A888D8F70882E912C3F
:10145000982C8824898D882AE4E03E1609F4B7C0C8
:101460008C8D8F70A82EB12CBA2CAA248D8DA82A11
:101470008E8D8F70C82ED12CDC2CCC248F8DC82A59
:10148000A6C06DE770E081E090E00E944B0581E02E
:1014900090E0892B79F16FE371E081E090E00E94A8
:1014A0004B058091BA059091BB05089780F010928A
:1014B000BB051092BA051092B5051092B4051092B2
:1014C000B7051092B6052092BC051092BD0580911B
:1014D000BA059091BB050E9474050E948301ECCE71
:1014E00081E056CD80916900837F88608093690098
:1014F000E99A62CD1092DE052FB7F89480916504C9
:1015000090916604A0916704B09168042FBF809306
:10151000D9059093DA05A093DB05B093DC058091A3
:10152000BF05381257C08091C0059091C105E816DB
:10153000F90609F04FC08091C2059091C3050817C4
:10154000190709F047C08091C4059091C505481658
:10155000590609F03FC08091C6059091C70528A1A2
:1015600039A128173907B1F58091C8059091C905AF
:101570002CA13DA12817390769F58091CA059091E2
:10158000CB052AA13BA12817390721F58091CC056D
:101590009091CD0568167906E9F48091CE05909179
:1015A000CF0588169906B1F48091D0059091D105A8
:1015B000A816B90679F48091D2059091D305C81682
:1015C000D90641F48091D405811104C06ACF80E02E
:1015D00090E05FCFE091B205F091B305309709F448
:1015E00068C08091B8059091B905892B09F461C054
:1015F0008091BC05882309F455C02091B405309131
:10160000B505C90101969093B5058093B4054AE1EB
:10161000429FC001439F900D1124E80FF91F3082B3
:10162000F282E182148303835682458228A139A184
:10163000308727832CA13DA1328721872AA13BA196
:101640003487238776866586908A8786B28AA18AC0
:10165000D48AC38A2092BD058091BA059091BB05BA
:1016600001969093BB058093BA052091B405309103
:10167000B5058091B8059091B9052817390720F074
:101680001092B5051092B4052091B4053091B505BE
:101690008091B6059091B70528173907D1F51092BA
:1016A000BC0537C068E970E081E090E00E944B051E
:1016B00030C03092BF05F092C105E092C005109392
:1016C000C3050093C2055092C5054092C40528A1E8
:1016D00039A13093C7052093C6052CA13DA13093B5
:1016E000C9052093C8052AA13BA13093CB052093BF
:1016F000CA057092CD056092CC059092CF0580927C
:10170000CE05B092D105A092D005D092D305C0925B
:10171000D2052092DD05C5CEEFEFF4E013821282F0
:1017200088EE93E0A0E0B0E084839583A683B7833E
:101730002EE031E03183208325EC30E035872487AB
:1017400024EC30E03787268720EC30E0318B208B8B
:1017500021EC30E0338B228B22EC30E0358B248B74
:1017600026EC30E0378B268B118E128E138E148E62
:10177000ECE9F5E01382128284839583A683B78314
:1017800080E291E091838083E8EAF5E0128281E0D3
:1017900090E0948383831682158288E390E090879B
:1017A00087838FEF818713861286158614861786A6
:1017B0001686118A108A138A128A148A158A168A42
:1017C00015AA16AA11AA12AA13AA14AA178A118E68
:1017D000108E138E128E158E148E178E168E11A2E9
:1017E00010A213A212A215A214A217A216A211A649
:1017F00010A613A612A614A615A616A617A610AA1A
:1018000082E391E0918380830895A1E21A2EAA1BBE
:10181000BB1BFD010DC0AA1FBB1FEE1FFF1FA217A0
:10182000B307E407F50720F0A21BB30BE40BF50B9D
:10183000661F771F881F991F1A9469F76095709526
:10184000809590959B01AC01BD01CF010895EE0FED
:10185000FF1F0590F491E02D0994CF93DF93823020
:10186000910510F482E090E0E091E105F091E2054D
:1018700020E030E0C0E0D0E0309711F140815181AC
:1018800048175907C0F04817590761F482819381BE
:10189000209719F09B838A832BC09093E205809355
:1018A000E10526C02115310519F04217530718F438
:1018B0009A01BE01DF01EF010280F381E02DDCCF50
:1018C0002115310509F1281B390B2430310590F41D
:1018D00012968D919C9113976115710521F0FB0172
:1018E0009383828304C09093E2058093E105FD0118
:1018F000329644C0FD01E20FF31F81939193225071
:1019000031092D933C933AC02091DF053091E005D9
:10191000232B41F420910601309107013093E0051B
:101920002093DF0520910401309105012115310537
:1019300041F42DB73EB74091080150910901241B95
:10194000350BE091DF05F091E005E217F307A0F415
:101950002E1B3F0B2817390778F0AC014E5F5F4F05
:101960002417350748F04E0F5F1F5093E005409352
:10197000DF058193919302C0E0E0F0E0CF01DF91B9
:10198000CF9108950F931F93CF93DF93009709F49E
:101990008CC0FC013297138212820091E1051091F4
:1019A000E2050115110581F420813181820F931F19
:1019B0002091DF053091E0052817390779F5F0937C
:1019C000E005E093DF0571C0D80140E050E0AE17BC
:1019D000BF0750F412962D913C911397AD0121153C
:1019E000310509F1D901F3CF9D01DA013383228357
:1019F00060817181860F971F8217930769F4EC014C
:101A000028813981260F371F2E5F3F4F3183208376
:101A10008A819B8193838283452B29F4F093E2058D
:101A2000E093E10542C01396FC93EE931297ED010B
:101A3000499159919E01240F351FE217F30771F464
:101A400080819181840F951F029611969C938E93AD
:101A50008281938113969C938E931297E0E0F0E03D
:101A6000D80112968D919C911397009719F0F80167
:101A70008C01F6CF8D919C9198012E5F3F4F820F84
:101A8000931F2091DF053091E0052817390769F48D
:101A9000309729F41092E2051092E10502C01382FA
:101AA00012821093E0050093DF05DF91CF911F9123
:101AB0000F91089581E090E0F8940C945F0DF894F4
:021AC000FFCF56
:101AC2008D018D010000E3058000000000001A0175
:101AD2008700B2006101E300C100D50000000000F0
:101AE2001C02EC014C02C001E401D001C101000062
:101AF20000004F024578616D706C65393939202DCF
:101B02002054657374696E67202D20465435333135
:101B1200362043545020447269766572004A7573C8
:101B220074206166746572206465636C61726174AD
:101B3200696F6E00547279696E6720746F20656EEA
:101B420061626C6520612062756666657221205350
:101B520074617475733A200068657265206261620F
:101B620079210041667465722027626567696E2873
:101B720029270048657265206973207468652069A9
:101B82006E697469616C20746F7563682072656335
:101B92006F726400546F756368207265636F72645C
:101BA20020696E666F3A20004E756D626572206F15
:101BB2006620746F75636865733A2000203A2000CE
:101BC200546F75636820002C20783A20002C20790D
:101BD2003A20004E6F6D696E616C004572726F72D1
:101BE200004E6F7420456E6F75676820436F726593
:101BF20000556E6B6E6F776E20737461747573002F
:101C02000D0A0052657475726E656420002061745D
:101C1200206C696E652000206F662066696C6527FE
:101C220000433A5C55736572735C6F77656E2E6C18
:101C3200796B655C446F63756D656E74735C41723C
:101C42006475696E6F5C6C69627261726965735CFE
:101C5200537061726B46756E5F4654357878365CA8
:101C62007372635C537061726B46756E5F46543576
:101C72007878362E637070004164647265737320E5
:101C82006F6620746865204654206F626A656374CB
:101C92003A203078005F68617320696E74657272F1
:101CA200757074733A20005F6D6F64653A20307806
:101CB2000041646472657373206F66207769726590
:101CC20020706F696E7465723A2030780056616CCC
:101CD2007565206F66205F7769726520706F696E27
:101CE2007465723A2030780049324320616464722C
:101CF2006573733A20307800496E7465727275703C
:101D0200742070696E3A20004164647265737320B6
:101D12006F66206275666665722068656164207010
:101D22006F696E7465723A2030780056616C756521
:101D3200206F662062756666657220686561642040
:101D4200706F696E7465723A203078005F777269DD
:101D520074654F66667365743A20005F72656164EC
:101D62004F66667365743A20005F7265636F7264D2
:101D720044657074683A20005F7265636F726473C1
:101D8200417661696C61626C653A20005F777269C5
:101D920074654F4B3A20005F726561644F4B3A2085
:101DA200005F627566666572576173416C6C6F6342
:101DB200617465643A20006E6577546F7563683AA2
:101DC200200054696D65206F66206C617374207504
:101DD200706461746520286D7329004164647265C2
:101DE2007373207768657265206C617374546F75C4
:101DF20063682069732073746F7265643A20307867
:021E02000000DE
:107E0000112484B714BE81FFF0D085E080938100F7
:107E100082E08093C00088E18093C10086E0809377
:107E2000C20080E18093C4008EE0C9D0259A86E02C
:107E300020E33CEF91E0309385002093840096BBD3
:107E4000B09BFECF1D9AA8958150A9F7CC24DD24C4
:107E500088248394B5E0AB2EA1E19A2EF3E0BF2EE7
:107E6000A2D0813461F49FD0082FAFD0023811F036
:107E7000013811F484E001C083E08DD089C08234E0
:107E800011F484E103C0853419F485E0A6D080C0E4
:107E9000853579F488D0E82EFF2485D0082F10E0AE
:107EA000102F00270E291F29000F111F8ED06801E7
:107EB0006FC0863521F484E090D080E0DECF843638
:107EC00009F040C070D06FD0082F6DD080E0C81688
:107ED00080E7D80618F4F601B7BEE895C0E0D1E017
:107EE00062D089930C17E1F7F0E0CF16F0E7DF06D8
:107EF00018F0F601B7BEE89568D007B600FCFDCFD4
:107F0000A601A0E0B1E02C9130E011968C91119780
:107F100090E0982F8827822B932B1296FA010C0160
:107F200087BEE89511244E5F5F4FF1E0A038BF0790
:107F300051F7F601A7BEE89507B600FCFDCF97BE46
:107F4000E89526C08437B1F42ED02DD0F82E2BD052
:107F50003CD0F601EF2C8F010F5F1F4F84911BD097
:107F6000EA94F801C1F70894C11CD11CFA94CF0C13
:107F7000D11C0EC0853739F428D08EE10CD085E9AC
:107F80000AD08FE07ACF813511F488E018D01DD067
:107F900080E101D065CF982F8091C00085FFFCCF94
:107FA0009093C60008958091C00087FFFCCF809118
:107FB000C00084FD01C0A8958091C6000895E0E648
:107FC000F0E098E1908380830895EDDF803219F02E
:107FD00088E0F5DFFFCF84E1DECF1F93182FE3DFCA
:107FE0001150E9F7F2DF1F91089580E0E8DFEE27F6
:047FF000FF270994CA
:027FFE00040479
:0400000300007E007B
:00000001FF
