:100000000C945D000C9481020C945A020C948500AF
:100010000C9485000C9485000C9485000C9485004C
:100020000C9485000C9485000C9485000C9485003C
:100030000C9485000C9485000C9485000C9485002C
:100040000C94F9040C9485000C94CE020C94A80234
:100050000C9485000C9485000C9485000C9485000C
:100060000C9400030C94850000000000240027007D
:100070002A0000000000250028002B0004040404CE
:100080000404040402020202020203030303030342
:10009000010204081020408001020408102001021F
:1000A00004081020000000080002010000030407FB
:1000B0000000000000000000010B11241FBECFEF64
:1000C000D8E0DEBFCDBF12E0A0E0B1E0E4E5F7E1AB
:1000D00002C005900D92A632B107D9F723E0A6E23F
:1000E000B2E001C01D92A43CB207E1F710E0CDE5FB
:1000F000D0E004C02197FE010E949D0BCC35D107B2
:10010000C9F70E9443050C94A80B0C9400000895B5
:1001100008950895CF92DF92EF92FF920F931F936D
:10012000CF93DF936C017A018B01C0E0D0E0CE1554
:10013000DF0581F0D8016D918D01D601ED91FC9123
:100140000190F081E02DC6010995892B11F02196CF
:10015000EECF7E01C701DF91CF911F910F91FF90EC
:10016000EF90DF90CF900895FC01538D448D252FA3
:1001700030E0842F90E0821B930B541710F0CF9641
:10018000089501970895FC01918D828D981761F073
:10019000828DDF01A80FB11D5D968C91928D9F5FBE
:1001A0009F73928F90E008958FEF9FEF0895FC0169
:1001B000918D828D981731F0828DE80FF11D858D1C
:1001C00090E008958FEF9FEF0895FC01918D228DAF
:1001D000892F90E0805C9F4F821B91098F73992734
:1001E00008958EED92E00E94E50021E0892B09F44C
:1001F00020E0822F0895FC01848DDF01A80FB11D3E
:10020000A35ABF4F2C91848D90E001968F7399274C
:10021000848FA689B7892C93A089B1898C9183702A
:1002200080648C93938D848D981306C00288F38923
:10023000E02D80818F7D80830895EF92FF920F9350
:100240001F93CF93DF93EC0181E0888F9B8D8C8D82
:10025000981305C0E889F989808185FD26C0F62EAE
:100260000B8D10E00F5F1F4F0F731127E02E8C8D49
:10027000E8120CC00FB607FCFACFE889F989808133
:1002800085FFF5CFCE010E94FB00F1CF8B8DFE01E3
:10029000E80FF11DE35AFF4FF0829FB7F8940B8FE0
:1002A000EA89FB89808180620AC09FB7F894EE8951
:1002B000FF896083E889F989808183708064808305
:1002C0009FBF81E090E0DF91CF911F910F91FF9050
:1002D000EF900895CF93DF93EC01888D8823C9F0C8
:1002E000EA89FB89808185FD05C0A889B9898C913F
:1002F00086FD0FC00FB607FCF5CF808185FFF2CFDA
:10030000A889B9898C9185FFEDCFCE010E94FB00B1
:10031000E7CFDF91CF91089580E090E0892B29F01D
:100320000E94F10081110C940000089585ED8093E6
:10033000BC008091BC0084FDFCCF1092B7020895F0
:1003400040914602262F30E0240F311D2132310525
:10035000DCF42091B7022430C9F4FC0180E090E085
:10036000861758F4309146022191DC01AA5DBD4FF9
:10037000A30FB11D2C930196F3CF80914602680F15
:100380006093460280E0089581E0089582E0089538
:100390000895E091B9028091B802E81730F4F0E0D6
:1003A000E654FD4F808190E008958FEF9FEF089510
:1003B0009091B9028091B802981750F4E92FF0E0BB
:1003C000E654FD4F208130E09F5F9093B90202C058
:1003D0002FEF3FEFC90108958091B80290E020917E
:1003E000B902821B91090895CF92DF92EF92FF929A
:1003F0000F931F93CF93DF937C01CB018A01209150
:100400008A02222389F0EB016B01C40ED51ECC15A4
:10041000DD0569F06991D701ED91FC910190F081C2
:10042000E02DC7010995F3CF642F0E94A001C801F8
:10043000DF91CF911F910F91FF90EF90DF90CF90C0
:100440000895CF93DF931F92CDB7DEB769832091D4
:100450008A022223D1F020918F02203240F021E045
:1004600030E0FC013383228380E090E015C080916E
:100470009002E82FF0E0E759FD4F998190838F5F5C
:100480008093900280938F0205C061E0CE010196B7
:100490000E94A00181E090E00F90DF91CF9108953C
:1004A000089580E090E0089581E08093BE03089570
:1004B0000E94A30B1F920F920FB60F9211242F933D
:1004C0003F934F935F936F937F938F939F93AF93DC
:1004D000BF93EF93FF93E0910201F091030109951F
:1004E000FF91EF91BF91AF919F918F917F916F910C
:1004F0005F914F913F912F910F900FBE0F901F90E2
:1005000018951F920F920FB60F9211242F933F93BD
:100510004F935F936F937F938F939F93AF93BF930B
:10052000EF93FF93E0910001F09101010995FF9194
:10053000EF91BF91AF919F918F917F916F915F915B
:100540004F913F912F910F900FBE0F901F901895D4
:100550001F920F920FB60F9211242F933F934F9338
:100560005F936F937F938F939F93AF93BF93EF931B
:10057000FF938EED92E00E94FB00FF91EF91BF91FF
:10058000AF919F918F917F916F915F914F913F912B
:100590002F910F900FBE0F901F9018951F920F92E2
:1005A0000FB60F9211242F938F939F93EF93FF9386
:1005B000E091EE02F091EF028081E091F402F0917F
:1005C000F50282FD12C090818091F7028F5F8F73D8
:1005D0002091F802821751F0E091F702F0E0E25228
:1005E000FD4F958F8093F70201C08081FF91EF91BD
:1005F0009F918F912F910F900FBE0F901F90189584
:100600001F920F920FB60F9211242F933F934F9387
:100610005F936F937F938F939F93AF93BF93EF936A
:10062000FF938091B900887F803609F49CC068F5FB
:10063000883209F45BC090F4803109F454C038F476
:10064000882309F4F6C0883009F44DC0F6C088311B
:1006500009F44CC0803209F45DC0EFC0803409F465
:1006600068C048F4803309F455C0883309F0E5C008
:100670008093B502D8C0803509F44FC0883509F49D
:100680005DC0883409F0D9C0D6C0883909F4C7C024
:10069000A8F4883709F467C038F4883609F463C0D1
:1006A000803709F460C0C9C0883809F4B8C08039FF
:1006B00009F45FC0803809F0C0C05BC0803B09F41A
:1006C00086C038F4803A09F466C0883A09F47FC0DD
:1006D000B4C0803C09F4A7C0883C09F4A4C0883B9E
:1006E00009F48AC0AAC08091B20210C09091B402ED
:1006F0008091B302981770F5E091B40281E08E0FFB
:100700008093B402F0E0EF56FD4F80818093BB00F0
:1007100085EC86C08093B5028EC0E091B40281E082
:100720008E0F8093B4028091BB00F0E0EF56FD4F36
:1007300080839091B4028091B3026EC0E091B402C4
:1007400081E08E0F8093B4028091BB00F0E0EF5601
:10075000FD4F80838091B60281116DC081E080934E
:10076000B10284EA61C083E08093B702109268020C
:10077000CFCF80916802803208F051C0E0916802CA
:1007800081E08E0F809368028091BB00F0E0E85B0F
:10079000FD4F8083BDCF85EC8093BC001092B702E3
:1007A00080916802803230F4E0916802F0E0E85B0A
:1007B000FD4F10826091680270E0E0918B02F09131
:1007C0008C0288E492E009951092680236C084E0B9
:1007D0008093B7021092470210924602E0918D0278
:1007E000F0918E02099580914602811105C081E049
:1007F0008093460210922602E091470281E08E0F1C
:1008000080934702F0E0EA5DFD4F80818093BB005A
:100810009091470280914602981708F479CF85E8B5
:100820008093BC000AC085EC8093BC001092B70294
:1008300004C01092B5020E949601FF91EF91BF9102
:10084000AF919F918F917F916F915F914F913F9168
:100850002F910F900FBE0F901F901895009769F081
:10086000FC0101900020E9F73197AF01481B590BBB
:10087000BC018EED92E00C948A0080E090E0089537
:100880000C942E0490E0FC01EC55FF4F2491FC01E8
:10089000E057FF4F3491FC01E458FF4FE491EE2301
:1008A000B1F1222339F1233091F038F42130A9F04D
:1008B000223001F584B58F7D12C0273091F02830A9
:1008C000A1F02430B9F4809180008F7D03C0809125
:1008D00080008F77809380000DC084B58F7784BDB2
:1008E00009C08091B0008F7703C08091B0008F7DE8
:1008F0008093B000F0E0EE0FFF1FEE58FF4FA59180
:10090000B4918FB7F894EC91E32BEC938FBF0895DB
:100910008F929F92AF92BF920F931F93CF93DF93CB
:10092000CDB7DEB7A1970FB6F894DEBF0FBECDBF2F
:1009300019A2423008F44AE08E010F5D1F4F842E49
:10094000912CA12CB12CA50194010E947B0BE62FC8
:10095000B901CA0101501109EA3014F4E05D01C087
:10096000E95CD801EC93232B242B252B61F7C801DC
:100970000E942E04A1960FB6F894DEBF0FBECDBF25
:10098000DF91CF911F910F91BF90AF909F908F906B
:100990000895CF92DF92EF92FF92CF93DF936C0195
:1009A000990FEE08FF08F7FE19C06DE28EED92E098
:1009B0000E941D01EC0166277727CB016C197D0988
:1009C0008E099F094AE00E9488048C0F9D1FDF91C9
:1009D000CF91FF90EF90DF90CF9008954AE0C7014C
:1009E000B601DF91CF91FF90EF90DF90CF900C9404
:1009F00088041F920F920FB60F9211242F933F93EA
:100A00008F939F93AF93BF938091DA029091DB0213
:100A1000A091DC02B091DD023091C30323E0230FEB
:100A20002D3720F40196A11DB11D05C026E8230F26
:100A30000296A11DB11D2093C3038093DA02909307
:100A4000DB02A093DC02B093DD028091BF039091A2
:100A5000C003A091C103B091C2030196A11DB11DB5
:100A60008093BF039093C003A093C103B093C203CC
:100A7000BF91AF919F918F913F912F910F900FBE9A
:100A80000F901F901895CF93DF93CDB7DEB7C15667
:100A9000D1090FB6F894DEBF0FBECDBF789484B5F0
:100AA000826084BD84B5816084BD85B5826085BD6A
:100AB00085B5816085BD80916E00816080936E00F8
:100AC00010928100809181008260809381008091EA
:100AD000810081608093810080918000816080939B
:100AE00080008091B10084608093B1008091B0005B
:100AF00081608093B00080917A00846080937A0056
:100B000080917A00826080937A0080917A0081607F
:100B100080937A0080917A00806880937A001092A6
:100B2000C100E091EE02F091EF0202E00083E0915B
:100B3000EA02F091EB021082E091EC02F091ED02FA
:100B400080E180831092F602E091F202F091F302CC
:100B500086E08083E091F002F091F1028081806173
:100B60008083E091F002F091F102808188608083BF
:100B7000E091F002F091F102808180688083E09141
:100B8000F002F091F10280818F7D80838EE291E00E
:100B90000E942E0487E591E00E942E0487E591E0F3
:100BA0000E942E048AE591E00E94400481E0809337
:100BB00089030093900310928B0310928A03E2E959
:100BC000F0E02491EEE7F0E084918823C1F090E01A
:100BD000880F991FFC01E859FF4FA591B491FC01C2
:100BE000EE58FF4F859194914FB7F8943C91209522
:100BF00032233C93DC01EC912E232C934FBF809148
:100C00009003823019F08330B1F434C480E0E82FCF
:100C1000F0E0EE0FFF1FE050FF4F24E532E031839C
:100C20002083813009F428C4809169008C7F826020
:100C300080936900E89A8BE793E090938D0380930B
:100C40008C031092B9021092B80210929002109286
:100C50008F021092B70201E00093B6021092B10227
:100C600082E10E94420483E10E9442048091B90023
:100C70008E7F8093B9008091B9008D7F8093B900F9
:100C800088E48093B80085E48093BC0087E890E016
:100C900090938E0280938D0288E890E090938C026E
:100CA00080938B0280918E0300938A028093890245
:100CB0001092900210928F0280918C0390918D037C
:100CC000DC01ED91FC910190F081E02D60E009954F
:100CD00080918C0390918D03DC01ED91FC9101904A
:100CE000F081E02D60E0099590918E0320918F02B4
:100CF00080918902213208F044C03091B70231114D
:100D0000FCCF32E03093B7029093B6029FEF9093FE
:100D1000B5021092B4022093B302A9E6B2E0E1E971
:100D2000F2E090E0291721F03D9131939F5FFACFD7
:100D30001092B2029091B202880F892B8093B20276
:100D40008091B102813061F41092B1028091B202BF
:100D50008093BB008091BC0083FDF8CF85EC01C07F
:100D600085EE8093BC008091B7028230E1F38091E0
:100D7000B5028F3F31F08091B502803211F0809141
:100D8000B5021092900210928F0210928A0286E7AA
:100D900091E00E94400488E591E00E942E0487E5DE
:100DA00091E00E942E0401E08091BE03882309F4A3
:100DB0005EC380918E039091B7029111FCCF009396
:100DC000B7020093B602BFEFB093B5021092B4021F
:100DD000EEE1E093B3020093B2029091B202880F69
:100DE000892B8093B2028091B102813071F410920C
:100DF000B1028091B2028093BB008091BC0083FD60
:100E0000F8CFF5ECF093BC0003C025EE2093BC00B6
:100E10008091B7028130E1F38091B4028F3118F4F0
:100E20009091B40201C09FE1A1E9B2E0EAEBF2E0E7
:100E300080E0891721F02D9121938F5FFACF1092D6
:100E4000B9028093B8028F3109F0AAC08FB7F89425
:100E50004090DA025090DB026090DC027090DD027C
:100E60008FBF10E080918C0390918D03DC01ED9198
:100E7000FC910084F185E02D0995892BB9F0FF24C0
:100E8000F394F10E80918C0390918D03DC01ED9130
:100E9000FC910284F385E02D0995E1E0F0E0EC0F90
:100EA000FD1FE10FF11D80831F2DDCCF1B811F7003
:100EB0002A8130E0112309F476C08C818F7090E094
:100EC000982F88274D81FC01E42B2896FFAFEEAFC9
:100ED00028978E818F7090E0982F88274F81BC01D2
:100EE000642B26967FAF6EAF2697113009F45BC056
:100EF0008A858F7090E0982F88274B85DC01A42B82
:100F00002A96BFAFAEAF2A978C858F7090E0982F4E
:100F100088274D85FC01E42B2296FFAFEEAF229788
:100F2000123009F440C088898F7090E0982F88278C
:100F300049891C01242A8A898F7090E0982F88277C
:100F40004B89BC01642B7FAF6EAF133061F18E898A
:100F50008F7090E0982F88274F89DC01A42B24966E
:100F6000BFAFAEAF2497888D8F7090E0982F882701
:100F7000498D4C01842A1430B1F08C8D8F7090E033
:100F8000982F88274D8D5C01A42A8E8D8F7090E05C
:100F9000982F88274F8DFC01E42BFDAFECAF03C0E9
:100FA00081E090E003C0690180E090E0892B09F0C6
:100FB00095C01092BE032FB7F8948091DA029091F9
:100FC000DB02A091DC02B091DD022FBF8093B90358
:100FD0009093BA03A093BB03B093BC0380919E038C
:100FE000811368C080919F039091A00328962EAD35
:100FF0003FAD28978217930709F05CC08091A10349
:101000009091A20326966EAD7FAD2697861797071F
:1010100009F050C08091A3039091A4032A96AEAD2D
:10102000BFAD2A978A179B0709F044C08091A5039A
:101030009091A6032296EEADFFAD2297E817F9072F
:10104000C9F58091A7039091A8032816390691F558
:101050008091A9039091AA032EAD3FAD28173907BF
:1010600049F58091AB039091AC0324966EAD7FADB2
:10107000249768177907F1F48091AD039091AE033E
:1010800088169906B9F48091AF039091B003A81621
:10109000B90681F48091B1039091B203ACADBDADBE
:1010A000A817B90739F48091B3039091B403C81617
:1010B000D906A1F0E0919103F0919203309709F4E1
:1010C00051C28091970390919803892B09F44AC2E9
:1010D00080919B038111D8C10093BD038091BD0312
:1010E000882309F4C4C1E0919103F09192033097F1
:1010F00009F450C040919703509198034115510550
:1011000009F448C080919C03882309F443C060918E
:101110009503709196039B012F5F3F4F3093960389
:1011200020939503ABE1A69FC001A79F900D1124CA
:10113000E80FF91FDE0111968BE101900D928A955F
:10114000E1F72417350720F01092960310929503CB
:10115000209195033091960380919303909194038D
:101160002817390711F410929C03809199039091EC
:101170009A039C012150310930939A0320939903DB
:10118000892B11F41092BD0300939B038BE1FE01A8
:10119000319605C01092BD038BE1EEE9F3E0DE016C
:1011A000909601900D928A95E1F7B8A1BBAFE9A1A5
:1011B000FAA12C96FFAFEEAF2C972BA13CA166961F
:1011C0003FAF2EAF66976DA17EA12E967FAF6EAF1B
:1011D0002E978FA198A568969FAF8EAF6897A9A507
:1011E000BAA56096BFAFAEAF6097EBA5FCA56A96B7
:1011F000FFAFEEAF6A972DA53EA562963FAF2EAF2B
:1012000062976FA578A96C967FAF6EAF6C9789A92E
:101210009AA964969FAF8EAF6497ABA9BCA96E964E
:10122000BFAFAEAF6E97EDA8FEA86FA978AD89AD40
:101230009AADA2966CAF7DAF8EAF9FAFA2978EE7AF
:1012400091E00E94400482E991E00E9440044AE05B
:10125000A2966CAD7DAD8EAD9FADA2970E94880425
:101260008EE991E00E94400482EA91E00E944004ED
:10127000ABAD6A2F70E080E090E04AE00E94880405
:101280008EE991E00E94400486EB91E00E944004C8
:10129000B8E1EB16F10419F168F4F0E1EF16F1048E
:1012A000C1F024E1E216F104B9F0EF2809F580EC71
:1012B00091E020C038E4E316F104A1F049E4E4161B
:1012C000F10499F06CE1E616F10491F487EE91E0F7
:1012D00011C08BEC91E00EC083ED91E00BC08DED61
:1012E00091E008C082EF91E005C08AEF91E002C072
:1012F00083E092E00E9440048EE991E00E94400465
:101300007BAD772309F4AFC083E192E00E944004F3
:1013100081E090E00E94C9048AE192E00E944004CA
:101320002C968EAD9FAD2C970E94C90480E292E06E
:101330000E94400466968EAD9FAD66970E94C904D8
:101340008EE991E00E9440048BAD823008F48BC09E
:1013500083E192E00E94400482E090E00E94C90490
:101360008AE192E00E9440042E968EAD9FAD2E97AA
:101370000E94C90480E292E00E94400468968EAD0B
:101380009FAD68970E94C9048EE991E00E944004D5
:101390009BAD923009F467C083E192E00E94400463
:1013A00083E090E00E94C9048AE192E00E94400438
:1013B00060968EAD9FAD60970E94C90480E292E076
:1013C0000E9440046A968EAD9FAD6A970E94C90440
:1013D0008EE991E00E944004ABADA33009F443C014
:1013E00083E192E00E94400484E090E00E94C904FE
:1013F0008AE192E00E94400462968EAD9FAD6297B2
:101400000E94C90480E292E00E9440046C968EAD76
:101410009FAD6C970E94C9048EE991E00E94400440
:10142000BBADB43001F183E192E00E94400485E05D
:1014300090E00E94C9048AE192E00E944004649610
:101440008EAD9FAD64970E94C90480E292E00E9435
:1014500040046E968EAD9FAD6E970E94C9048EE9D2
:1014600091E00E94400487E591E00E942E040E94D2
:101470008C019ACC81E0CBCB80916900837F88601E
:1014800080936900E99AD7CB20919303309194031C
:10149000C90101969093940380939303BBE1B29F9B
:1014A000C001B39F900D1124E80FF91F10832896F7
:1014B0002EAD3FAD28973283218326966EAD7FAD4A
:1014C0002697748363832A968EAD9FAD2A97968361
:1014D00085832296AEADBFAD2297B087A7833286B3
:1014E00021862EAD3FAD3487238724966EAD7FAD28
:1014F000249776876587908A8786B28AA18A8CAD81
:101500009DAD948B838BD68AC58A478A508E618E17
:10151000728E00939C038091990390919A03019697
:1015200090939A03809399032091930330919403AD
:1015300080919703909198032817390720F0109213
:10154000940310929303209193033091940380911C
:101550009503909196032817390709F0BDCD109295
:101560009B03BACD10939E032896AEADBFAD2897CE
:10157000B093A003A0939F032696EEADFFAD2697F0
:10158000F093A203E093A1032A962EAD3FAD2A97D4
:101590003093A4032093A30322966EAD7FAD2297D0
:1015A0007093A6036093A5033092A8032092A7032B
:1015B0008EAD9FAD9093AA038093A9032496AEAD00
:1015C000BFAD2497B093AC03A093AB039092AE034E
:1015D0008092AD03B092B003A092AF03ECADFDAD2D
:1015E000F093B203E093B103D092B403C092B3037B
:1015F0004092B5035092B6036092B7037092B8035D
:101600006BCDEEEDF2E01382128288EE93E0A0E063
:10161000B0E084839583A683B78328E031E03183EB
:10162000208325EC30E03587248724EC30E03787B1
:10163000268720EC30E0318B208B21EC30E0338B9F
:10164000228B22EC30E0358B248B26EC30E0378B7C
:10165000268B118E128E138E148EEBE7F3E013821D
:10166000128284839583A683B7838AE191E0918374
:101670008083E7E8F3E0128281E090E09483838343
:101680001682158288E390E0908787838FEF8187A9
:10169000138612861586148617861686118A108A76
:1016A000138A128A148A158A168A16AA17AA12AAE7
:1016B00013AA14AA15AA178A118E108E138E128ED1
:1016C000158E148E178E168E11A210A213A212A2BE
:1016D00015A214A217A216A211A610A613A612A64E
:1016E00015A614A616A617A610AA11AA8CE291E0B8
:1016F000918380830895A1E21A2EAA1BBB1BFD01D2
:101700000DC0AA1FBB1FEE1FFF1FA217B307E407E0
:10171000F50720F0A21BB30BE40BF50B661F771F38
:10172000881F991F1A9469F7609570958095909518
:101730009B01AC01BD01CF010895EE0FFF1F059085
:10174000F491E02D099481E090E0F8940C94A80BBA
:04175000F894FFCF3B
:1017540089008900000000001D018A00B4006A01AC
:10176400E500C300D700000000002102F40151028B
:10177400C801EC01D801C90100000000C801457886
:10178400616D706C65393939202D20546573746925
:101794006E67202D20465435333136204354502073
:1017A400447269766572000D0A00426567696E6E5F
:1017B400696E6720746865204354502E2053746109
:1017C4007475733A20004E6F6D696E616C00546FCE
:1017D400756368207265636F726420696E666F3A20
:1017E400200054696D657374616D703A2000203A6D
:1017F40020004E756D626572206F6620746F75638C
:101804006865733A2000476573747572653A200001
:101814004E4F5F47455354555245004D4F56455F13
:101824005550004D4F56455F4C454654004D4F565C
:10183400455F444F574E004D4F56455F5249474808
:1018440054005A4F4F4D5F494E005A4F4F4D5F4F12
:10185400555400556E6B6E6F776E206765737475A3
:10186400726500546F75636820002C20783A20005C
:061874002C20793A20004F
:107E0000112484B714BE81FFF0D085E080938100F7
:107E100082E08093C00088E18093C10086E0809377
:107E2000C20080E18093C4008EE0C9D0259A86E02C
:107E300020E33CEF91E0309385002093840096BBD3
:107E4000B09BFECF1D9AA8958150A9F7CC24DD24C4
:107E500088248394B5E0AB2EA1E19A2EF3E0BF2EE7
:107E6000A2D0813461F49FD0082FAFD0023811F036
:107E7000013811F484E001C083E08DD089C08234E0
:107E800011F484E103C0853419F485E0A6D080C0E4
:107E9000853579F488D0E82EFF2485D0082F10E0AE
:107EA000102F00270E291F29000F111F8ED06801E7
:107EB0006FC0863521F484E090D080E0DECF843638
:107EC00009F040C070D06FD0082F6DD080E0C81688
:107ED00080E7D80618F4F601B7BEE895C0E0D1E017
:107EE00062D089930C17E1F7F0E0CF16F0E7DF06D8
:107EF00018F0F601B7BEE89568D007B600FCFDCFD4
:107F0000A601A0E0B1E02C9130E011968C91119780
:107F100090E0982F8827822B932B1296FA010C0160
:107F200087BEE89511244E5F5F4FF1E0A038BF0790
:107F300051F7F601A7BEE89507B600FCFDCF97BE46
:107F4000E89526C08437B1F42ED02DD0F82E2BD052
:107F50003CD0F601EF2C8F010F5F1F4F84911BD097
:107F6000EA94F801C1F70894C11CD11CFA94CF0C13
:107F7000D11C0EC0853739F428D08EE10CD085E9AC
:107F80000AD08FE07ACF813511F488E018D01DD067
:107F900080E101D065CF982F8091C00085FFFCCF94
:107FA0009093C60008958091C00087FFFCCF809118
:107FB000C00084FD01C0A8958091C6000895E0E648
:107FC000F0E098E1908380830895EDDF803219F02E
:107FD00088E0F5DFFFCF84E1DECF1F93182FE3DFCA
:107FE0001150E9F7F2DF1F91089580E0E8DFEE27F6
:047FF000FF270994CA
:027FFE00040479
:0400000300007E007B
:00000001FF
