:1000000000000320D1010000491500000115000087
:100010000115000001150000011500000115000088
:100020000115000001150000011500004915000030
:100030004915000001150000D9280000DD29000045
:100040004915000049150000491500004915000038
:100050004915000049150000491500004915000028
:100060004915000049150000491500004915000018
:100070004915000049150000491500004915000008
:1000800049150000491500004915000049150000F8
:1000900049150000491500004915000049150000E8
:1000A000A9130000B5130000491500004915000010
:1000B000491500004915000049150000F12C000009
:1000C000491500001D2E000049150000492F0000B1
:1000D0004915000041300000491500004915000095
:1000E0004915000049150000491500004915000098
:1000F0004915000049150000491500004915000088
:100100004915000049150000491500004915000077
:1001100049150000711B0000491500004915000039
:100120004915000049150000491500004915000057
:100130004915000049150000491500004915000047
:10014000491500004915000039310000491500002B
:100150004915000049150000491500004915000027
:100160004915000049150000C113000049150000A1
:100170004915000049150000491500004915000007
:1001800049150000491500004915000049150000F7
:1001900049150000491500003132000049150000E2
:1001A00049150000491500004915000049150000D7
:1001B00049150000491500004915000049150000C7
:1001C00049150000491500004915000049150000B7
:1001D0005C4B4CF2205210B51A804DF628121A8052
:1001E00000BF00BF01F0B4F9574B4FF030621A6006
:1001F000564A9A60564ADA60564B4FF470021A60BB
:10020000554B564A1A60564A136813F4807304D14A
:1002100054490B604FF4A8531360534B1A781107DD
:1002200003D51A7842F008021A70504B5049AA229E
:100230001A70504A504B8B4204D252F8040F43F8C4
:10024000040BF8E74D4B4E4900228B4202D243F893
:10025000042BFAE74B494C4A002352F8230041F89B
:1002600023000133742BF8D1484B494A802103F80D
:10027000011B9342FBD1474B424A1A60464B8A22EC
:100280001A70A3F5805324225A70A0221A709A790A
:100290009207FCD59A79D406FCD4404A937903F0AE
:1002A0000C03082BFAD13E4B60221A7002331A78E5
:1002B000802AFCD1394B01221A715D225A719A7938
:1002C0009006FCD59979354A4906FBD5354B364918
:1002D00019600021596020231370937903F00C03F7
:1002E0000C2BFAD1314B324A1A60324B324A1A6027
:1002F00000225A60072243F8042C304AC3F80C2D20
:1003000062B601F0C7FA174B1B68DA0705D52C480F
:1003100001F050FA2B4B2C4A1A602C4B1B785B06D1
:1003200009D5284C284B22689A4204D1244801F070
:1003300041FA0023236003F041F801F00FF902F0C5
:10034000B1FBFEE70E20054030800440823F0400F0
:100350000100002B88ED00E0002008E0030000858C
:1003600010D0034014D0034002D0074000E0074003
:100370000414FF1FCC4100003007FF1F0414FF1FAF
:10038000D418FF1F0002FF1F0000000000E400E07F
:1003900064E400E008ED00E0005006400040064044
:1003A00001E007404480044000000602048004404D
:1003B000C010070014E000E01FBF02000000202072
:1003C000A68DD85B1CE00340A5C3945A00F00740FB
:1003D000FFFFFFFFFFFFFFFFFFFFFFFFFFFFFFFF2D
:1003E000FFFFFFFFFFFFFFFFFFFFFFFFFFFFFFFF1D
:1003F000FFFFFFFFFFFFFFFFFFFFFFFFFFFFFFFF0D
:10040000FFFFFFFFFFFFFFFFFFFFFFFFDEF9FFFF23
:1004100010B5054C237833B9044B13B10448AFF33E
:1004200000800123237010BD0414FF1F0000000092
:10043000D0410000084B10B51BB108490848AFF384
:1004400000800848036803B910BD074B002BFBD0A0
:10045000BDE81040184700BF000000000814FF1F4F
:10046000D04100000414FF1F00000000014800F00C
:1004700029BC00BF2014FF1F01280ED009D3022879
:1004800003D10F21074802F0B3B80E21064802F04D
:10049000AFB80721054802F0ABB80521044802F0C7
:1004A000A7B800BF203D0000303D0000103D000017
:1004B000183D000010B5104C1048282102F098F8A3
:1004C000204602F093FA204602F090FA1B210C48D5
:1004D00002F08EF80B4B0C490C48022200F030FB66
:1004E000FFF7CAFF01210A4802F082F82046BDE862
:1004F000104002F07BBA00BF0C0BFF1F403D000014
:100500006C3D00006D0400007808FF1F2014FF1FE1
:10051000883D0000182808B548D00BD948282AD0B3
:10052000492816D01C282FD00F212548BDE80840A7
:1005300002F05EB8102830D0142813D00028F3D170
:100540000A21204802F054F81F48BDE8084002F094
:100550004DBA08211D4802F04BF81B48BDE8084081
:1005600002F044BA09211A4802F042F81648BDE8E0
:10057000084002F03BBA0721164802F039F8124849
:10058000BDE8084002F032BA0A21134802F030F800
:100590000D48BDE8084002F029BA07210F4802F0D3
:1005A00027F80948BDE8084002F020BA09210C48A4
:1005B00002F01EF80448BDE8084002F017BA00BF78
:1005C000D83D00008C3D00000C0BFF1FCC3D00000F
:1005D000A03D0000C43D0000B83D0000983D000073
:1005E000AC3D000084B010B502AC84E80F001321CC
:1005F0006B489DF8084001F0FBFF0B21694801F0B2
:10060000F7FF0899684802F041FA0321674801F0B2
:10061000EFFF1321664801F0EBFF00230A22214679
:10062000614802F0F3F90321604801F0E1FF09217C
:10063000604801F0DDFF9DF81E00FFF76BFF03210E
:100640005A4801F0D5FF2CB9BDE81040564804B017
:1006500002F0CCB90621584801F0CAFF01215248E6
:1006600002F014FA0521554801F0C2FFBDF90A1045
:100670004D4802F00BFA0521514801F0B9FFBDF9D0
:100680000C10494802F002FA0321484801F0B0FF7B
:10069000012CD9D90621484801F0AAFF022142487D
:1006A00002F0F4F90521454801F0A2FFBDF90E1052
:1006B0003D4802F0EBF90521414801F099FFBDF9F1
:1006C0001010394802F0E2F90321384801F090FF98
:1006D000022CB9D00621384801F08AFF03213248A4
:1006E00002F0D4F90521354801F082FFBDF912105E
:1006F0002D4802F0CBF90521314801F079FFBDF911
:100700001410294802F0C2F90321284801F070FFB3
:10071000032C99D00621284801F06AFF04212248C1
:1007200002F0B4F90521254801F062FFBDF9161069
:100730001D4802F0ABF90521214801F059FFBDF930
:100740001810194802F0A2F90321184801F050FFCF
:10075000042C3FF479AF0621174801F049FF052129
:10076000114802F093F90521144801F041FFBDF949
:100770001A100D4802F08AF90521114801F038FFDE
:10078000BDF91C10084802F081F90321074801F067
:100790002FFFBDE81040044804B002F027B900BFA5
:1007A000E83D0000FC3D00000C0BFF1F083E000070
:1007B0000C3E0000203E00002C3E0000343E0000B5
:1007C0003C3E000030B50F4C94F841308DB00BB971
:1007D0000DB030BD204600F03FFA94F84030002BB9
:1007E000F6D005AD2146284600F0E6F90CAB13E93A
:1007F00007008DE8070095E80F00FFF7F3FE0DB046
:1008000030BD00BF2014FF1F014800F06BBA00BFCD
:100810002014FF1F90F8392090F83800101A704704
:1008200090F8383090F839209A4205D95A1C034480
:1008300080F83820187E70474FF0FF30704700BFB7
:10084000704700BF2DE9F84F046906468846002C22
:1008500049D0038B002B46D09146002A4BD0037F12
:10086000002B38D04FF0000CE646E346858A4FF067
:10087000010A08E01FFA81FEF1453CD0337F0CF1FC
:100880001C0C43B334696B1CB38208EB0C070FCF0D
:10089000C5EBC50504EB85040FC497E8070084E8A1
:1008A0000700738BB58A328B86F81DA001339BB28B
:1008B000AA427383F38A9CBFA6F814B00025AB420A
:1008C0000EF10101D6D10EF1010E1FFA8EFE0023AA
:1008D000F14533770FD99A220B490120AFF30080FD
:1008E0000120BDE8F88FB8E80F0020360FC698E861
:1008F000070086E80700A22203490020AFF300802A
:100900000020BDE8F88F00BF503E000002780B7851
:100910009A4201D000207047B0F90220B1F90230AC
:100920009A42F7D1B0F90420B1F904309A42F1D1DA
:10093000B0F90620B1F906309A42EBD1B0F908209F
:10094000B1F908309A42E5D1B0F90A20B1F90A307C
:100950009A42DFD1B0F90C20B1F90C309A42D9D1CA
:10096000B0F90E20B1F90E309A42D3D1B0F910206F
:10097000B1F910309A42CDD1B0F91220B1F912304C
:100980009A42C7D1B0F91420B1F914309A42C1D1BA
:10099000837D887D1B1A5842584170472DE9F047E6
:1009A00006468AB00F468068317B01231F2200F083
:1009B000E9FB1F2809D0012420467F225C49AFF3C0
:1009C000008020460AB0BDE8F0875A4AB368126832
:1009D0000192019A1C68DFF86081DFF86091BA61CA
:1009E000002520E093F8394093F83830E41A5FFA94
:1009F00085FA14B3B3681C686169494528D193F836
:100A0000381093F839208A4201F1010E03EB0100FE
:100A100024D983F838E0B368007E1C680AAA5244DF
:100A2000013502F8200C22694245DBD01846904778
:100A300004465FFA85FA002CDCD19DF80A309DF857
:100A40000920BA7503F00F033B704BB90024B3E7DC
:100A500018468847B368C0B21C68DFE7FF20DDE7AF
:100A60009DF80B009DF80C1000F00F0002F016F836
:100A70009DF80D3078809DF80E1003F00F0002F005
:100A80000DF83B78B880012BE0D99DF811009DF856
:100A9000121000F00F0002F001F89DF81330F880FA
:100AA0009DF8141003F00F0001F0F8FF3B78388137
:100AB000022BCBD99DF817009DF8181000F00F00FD
:100AC00001F0ECFF9DF8193078819DF81A1003F0C1
:100AD0000F0001F0E3FF3B78B881032BB6D99DF8F6
:100AE0001D009DF81E1000F00F0001F0D7FF9DF8CB
:100AF0001F30F8819DF8201003F00F0001F0CEFFA9
:100B00003B783882042B7FF657AF9DF823009DF881
:100B1000241000F00F0001F0C1FF9DF8253078820D
:100B20009DF8261003F00F0001F0B8FFB88243E7EC
:100B3000503E00006814FF1F150800002108000047
:100B4000FF2A70B504460D4611D01E467BB1002128
:100B50000123427310466171237100F043FE607BF4
:100B60004028314628BFFF20022200F0A7FD28467A
:100B7000A56000F025F9227BA3685200012183F8CB
:100B80003B2083F85E1083F85D10A06803680021A5
:100B90001B689847A068036800211B689847217B61
:100BA000A06800F065FAC92202490020AFF3008076
:100BB000002070BD503E0000F0B50B6989B00C46B6
:100BC0000646002B3AD0B1F818E0BEF1000F35D040
:100BD0004A7F002A32D0CD8A05F1010C1FFA8CFC25
:100BE000C5EBC505A1F816C003EB85050FCD01AF18
:100BF0000FC7E645A38A98BF4FF0000C95E80700A1
:100C000098BFA4F816C0634504BF00236377638BC5
:100C10009BB287E807005A1E92B262830BB984F830
:100C2000403001AD0FCD37460FC795E807000123CF
:100C300087E807003046237709B0F0BD002384F829
:100C4000403020340FCC35460FC594E8070085E8C6
:100C50000700304609B0F0BD30B589B001A904469F
:100C6000FFF79CFE0546F0B9134B84F841001B6862
:100C70000093009BE36304F1200101A8FFF746FE07
:100C800040B140F24D120D490020AFF300802846DC
:100C900009B030BD01A901222046FFF7D3FD012391
:100CA00084F84030EDE74FF4A1720449AFF30080BF
:100CB000284609B030BD00BF6814FF1F503E000039
:100CC000704700BF08B5012380F84130FFF7F8FFF7
:100CD0004FF4B37202490020AFF30080002008BD3A
:100CE000503E000030B401223825FF2442711249E1
:100CF0000573002244730160027182600261828286
:100D0000C2820283428302774277827780F8402052
:100D100080F84120C26380F8202042848284C2840B
:100D2000028542858285C28502864286828680F857
:100D30003620826330BC70474C3E00000020704774
:100D400090F8383090F839209A4286BF1B18187EE8
:100D50004FF0FF30704700BF704700BF38B5054601
:100D6000B0F85E0090B195F85D301446C3F12102F1
:100D700094420CD805F13B001844224600F026FBB3
:100D800095F85D30234485F85D30204638BD01205C
:100D900014462871EEE700BFB0F85E306BB190F8F2
:100DA0005D30202B07D8C218013380F85D30012058
:100DB00082F83B107047012303710020704700BF89
:100DC0000023426980F8383080F8393080F85C3090
:100DD00080F85D3080F85E3080F85F3006CA30B44D
:100DE0000D68046943662A4383660A60A3704269FA
:100DF00090F861301649146813441D7A5B7B01EB4F
:100E0000C5051B026D6803F4E06343F064032B60C7
:100E100090F8623013449D7CDB7D01EBC5011B0221
:100E2000496803F4E06343F064030B60216853688E
:100E3000194205D003692C225A70036904229A7161
:100E4000036920225A71036980229A7030BC70476E
:100E50002C3F000038B50269D478E4B2E1060546BB
:100E600024D51023D37063061FD504F0040404F0C6
:100E7000FF03002C5AD042496A6E00230B7085F89C
:100E80005D30002A66D0904795F85D30002B61D028
:100E90002B69D0229A702B6995F83B201A712B6927
:100EA000012285F85C200222DA7038BD04F040038C
:100EB00003F0FF00002BD8D19379DBB203F060017F
:100EC00060294ED0937803F0100303F0FF01B3B113
:100ED00014F0010437D195F85C3095F85D10994213
:100EE0004BD9591C2B4485F85C1093F83B30137197
:100EF0002B69D0229A702B690222DA70D5E785F827
:100F00006010937943F0200393712B6995F83910A1
:100F10001A791F29D2B2C6D8194800780028C2D041
:100F20006818013185F839100276BCE72A6985F81E
:100F30003930C02393702B69114A1979012111703E
:100F40000222DA70B1E7C02393702B691A7902226A
:100F5000DA70AAE70122002385F85D2085F83B308E
:100F600096E703F0DF039371AB6E23B185F8380089
:100F700095F8390098472A69A4E71471B8E700BFCB
:100F80006414FF1F2DE9F047374FDFF8E0903B680E
:100F9000026982B006460093DDF8008000214FF41C
:100FA0009675D3789B065BD53B680193019BC8EB94
:100FB00003030F2BF5D949B1102BF2D0002090700C
:100FC000336980229A7002B0BDE8F087726996F8A2
:100FD000613013440521187A00F004FC726996F818
:100FE00061301344012193F812A0504600F0FAFB3F
:100FF00009240021504600F0EFFB2B46013BFDD1B8
:101000000121504600F0E8FB2B46013BFDD1013C9D
:10101000EFD1706996F8611001444FF416720C7AA2
:101020004B7B09EBC4011B02496803F4E06343F006
:1010300064030B6096F862300344997CDB7D09EB16
:10104000C1011B02496803F4E06343F064030B60D1
:10105000013AFDD13269D3789B064FF00101A3D448
:10106000012002B0BDE8F0876814FF1F2C3F00008C
:10107000F0B503691222DA700269937803F0200355
:1010800085B004460D46002B5ED0B42393703C49D6
:1010900022690B680093009E05E00B680193019B99
:1010A0009B1B042B42D8D37803F0200303F0FF00EE
:1010B000002BF2D094F85D30002B31D04FF0000EB1
:1010C0004FF0020C04EB0E0393F83B3013710B68E6
:1010D0000393039F206907E09B060DD50B680293DD
:1010E000029BDB1B052B28D8C378DBB203F002027E
:1010F00002F0FF06002AEFD080F803C02669F378DB
:10110000DBB2DF0632462DD49F062BD5DB0731D468
:101110000EF1010E94F85D305FFA8EFE7345D1D862
:1011200000201DBB002384F85E3004E0907023692A
:1011300080229A70042005B0F0BD86702369802259
:1011400004209A7005B0F0BD03F0FF06FFF71AFF08
:1011500010B9042005B0F0BD236984F85F60B022A7
:101160009A7094E78023B3700420DAE7266980231D
:10117000B370D7E7BEF1000F0CBF02200320F6E7E3
:101180006814FF1F2DE9F04106690025122780F839
:10119000385080F83950F770D0F810C09CF802E051
:1011A0000EF0200E88B00446884615461E46BEF155
:1011B000000F49D0B4238CF802307A4B21691A68A9
:1011C0000092DDF800E006E01A6801920198CEEB8B
:1011D0000000042830D8C87800F0200000F0FF0795
:1011E0000028F1D04FEA480242F00102D2B20A715F
:1011F0001A680292DDF808E0206906E01A68039296
:101200000399CEEB010105292AD8C17801F002012A
:1012100001F0FF070029F1D04FF0020C80F803C065
:101220002269D17811F0110722D12DBB002E0CBFFD
:10123000A0238023937003E08F70236980229A702B
:10124000384608B0BDE8F0810EF0FF07FFF79AFEC0
:101250000028F5D0236984F85F70B0229A70ACE75B
:1012600087702369802238469A7008B0BDE8F08103
:10127000802393700027E3E7012D78D0A02191709F
:1012800021690A79BE4667464FF0A80C1A68049295
:10129000049805E01A680592059A121A052A4DD895
:1012A000CA7802F0020202F0FF08002AF2D0CF70E2
:1012B0002169CA78D2B212F0100F08465DD19206A9
:1012C0005BD5013DEDB2012D4CD0BEF11F0F3ED9D3
:1012D0000A79012DDAD11A680692069D05E01A688E
:1012E0000792079A521B052A56D8C27802F00202CA
:1012F00002F0FF01002AF2D00223C3702269D378E2
:10130000DBB2D9063BD49B0637D5B023BEF11F0F05
:10131000937043D8226904EB0E0312791A760EF10A
:10132000010E5FFA8EFE00BF00BF00BF16B1236939
:1013300080229A7084F839E0774681E781F802804C
:10134000236980229A70774684F839E078E704EBC5
:101350000E0291F8048082F818800EF1010E5FFAF7
:101360008EFEB6E781F802C021690846ADE7A821E4
:1013700091702069BE460279ADE7774660E710219B
:101380004FF49673D170013BFDD12269937803F03D
:10139000F7037746937053E78170D1E723691B7990
:1013A000C1E700BF6814FF1F0148FFF753BD00BF2E
:1013B0007808FF1F0148FFF74DBD00BFE408FF1F7D
:1013C0000148FFF747BD00BF0C08FF1F844641EAF4
:1013D000000313F003036DD1403A41D351F8043BAD
:1013E00040F8043B51F8043B40F8043B51F8043BFF
:1013F00040F8043B51F8043B40F8043B51F8043BEF
:1014000040F8043B51F8043B40F8043B51F8043BDE
:1014100040F8043B51F8043B40F8043B51F8043BCE
:1014200040F8043B51F8043B40F8043B51F8043BBE
:1014300040F8043B51F8043B40F8043B51F8043BAE
:1014400040F8043B51F8043B40F8043B51F8043B9E
:1014500040F8043B51F8043B40F8043B403ABDD20D
:10146000303211D351F8043B40F8043B51F8043BAF
:1014700040F8043B51F8043B40F8043B51F8043B6E
:1014800040F8043B103AEDD20C3205D351F8043B3E
:1014900040F8043B043AF9D2043208D0D2071CBF0A
:1014A00011F8013B00F8013B01D30B880380604633
:1014B000704700BF082A13D38B078DD010F00303A9
:1014C0008AD0C3F10403D21ADB071CBF11F8013B19
:1014D00000F8013B80D331F8023B20F8023B7BE768
:1014E000043AD9D3013A11F8013B00F8013BF9D293
:1014F0000B7803704B7843708B788370604670472D
:1015000008B5104C08E0236859050DD423681A0566
:101510000FD42368DB0411D423685803F3D500F0FB
:1015200027FB23685905F1D501F0E2FB23681A0572
:10153000EFD501F073FC2368DB04EDD501F004FD69
:10154000EAE700BF3480044008B5FFF7D9FF00BFC9
:10155000014B10221A80704700200540704700BFE1
:10156000094908B50B6830B16A461844A2F5005223
:10157000904202D20860184608BD01F019FF0C2302
:1015800003604FF0FF3008BD5009FF1F084A137871
:10159000802B01D0002070470649074B07480860A0
:1015A000002119701378802BFCD00120704700BFF8
:1015B00003E007404480044001E007400000282287
:1015C000094A1378012B01D00020704703F18043B2
:1015D00003F5FC23602119701378802BFCD1034B99
:1015E000034A1A600120704703E00740448004402A
:1015F00000000602704700BF10B4114B53F83020B2
:1016000092F8804234B1012379B182F880305DF8DC
:10161000044B704703EBC0035B681A6851B922F0B2
:1016200002021A605DF8044B704782F800315DF8E1
:10163000044B704742F003021A605DF8044B704798
:101640002C3F00001C4A02EBC00301295B6811D04B
:1016500004291BD052F83000002280F8802229B1E2
:10166000022920D0032922D01A6070474FF48072DB
:101670001A60704752F830004FF4A27280F880125E
:101680001A601A6822F020021A60704752F830106F
:101690004FF4A272012081F880021A601A6842F0A9
:1016A00020021A60704740F203121A6070474FF42C
:1016B00081721A60704700BF2C3F00003F2817D886
:1016C000F8B5042A13D8DFE802F0494C4F1446005D
:1016D0002C4872B6236823F4702343F08072C4F35D
:1016E00084011643236040F82150266062B6F8BD9D
:1016F00070474FF41026244B03EBC0030D465C6883
:10170000216811F4E06134D0204B214A2149C3F80B
:101710002C2104F140422048C3F83411A2F5922153
:101720001E4FC3F830017C291D48C3F83871C3F837
:101730003C01CDD9A2F594237C2B18D9A2F5962390
:101740007C2B19D9A2F598237C2B17D9A2F59A22C4
:101750007C2A15D9F8BD4FF43026CCE74FF400268B
:10176000C9E74FF44026C6E74FF42026C3E70D48EB
:10177000AFE7FFF767FFC7E70B48AAE70B48A8E703
:101780000B48A6E75409FF1F2C3F00000002FF1F73
:10179000E107FF1F8907FF1FB507FF1F5D07FF1F39
:1017A0003107FF1FCC09FF1F2C0AFF1F5C0AFF1F18
:1017B0009C0AFF1F30B4054B054D064C002210213A
:1017C0001A602A602060196030BC704714D0034052
:1017D00004D0034000D003403F2801D8FFF70CBFDE
:1017E000704700BF3F2801D8FFF72CBF704700BFEC
:1017F0002DE9F843054672B6224F234B234A1B6856
:101800003C68126862B6520102D5322B88BF01349F
:10181000B5B3C3F52F3303F21F331D4EDFF86890C5
:10182000DFF868809B084FF47A72A6FB031302FB73
:1018300004F404EB930472B6D9F800103A68D8F8AF
:1018400000E062B6C1F52F3303F21F339B08A6FBFD
:1018500003031EF0806FC4EB93034FF47A7002D041
:10186000322988BF013200FB0233B3F57A7F04D3FB
:10187000013D05D004F57A74DDE701F031F9DAE7CE
:10188000BDE8F8836814FF1F18E000E004ED00E0F5
:10189000176CC116F8B54E4B4E48DFF85CC14E4C84
:1018A0004E49DFF858E14E4E4E4D4F4F4FF000621B
:1018B0001A604FF080521A604FF000521A604FF0D9
:1018C00080421A604FF000421A6000220260282312
:1018D0004EF6FF70CCF80000CEF8003023600EF515
:1018E000012E0B6033602B6006F500263B6005F58A
:1018F0000025A36207F500278B6204F5012401F59A
:10190000012106F6E87605F6E87507F57F671031E0
:101910000EF1100E203433602B60CEF800303B60A7
:101920000B602360314CBB618B6109212160A7F5FD
:10193000002704F58054203F08343A602060BB60E3
:10194000E36047F8041C04F5FD2407F5FE2704377F
:1019500004F2FC7422603860A360FB6044F8041C4D
:10196000083404F6FC74C7F8FC2F2060A4F5E124C9
:10197000A4F2DC7433602B60C7F8F81F21681C48A0
:1019800041F40071216001681A4C0EF57F4E0EF192
:10199000E80E07F5883706F5803605F5803541F005
:1019A00000710160CEF8002047F6FF71082239600F
:1019B00033602B60226001F0F5F81920FFF718FF63
:1019C00000F002FD40F21310BDE8F840FFF710BF31
:1019D00004E100E004800340148003401C800340C5
:1019E000248003402C800340348003400080034067
:1019F0000480044000900C40088003400C800340A9
:101A0000431E032B14D872B60A4951F8230068B15B
:101A100070B4094C058834F81320466841F82360F7
:101A2000521B24F8132062B670BC704762B6704730
:101A300000207047C414FF1FBC18FF1F0138032883
:101A40000BD872B6074B53F8203043B100205B68C7
:101A50000130002BFBD162B670470020704718465A
:101A6000F9E700BF1815FF1FF0B472B61A491B4EF4
:101A7000012311F8014B194F9A00240742F0010588
:101A800005D556F8324064B156F83520BAB1013365
:101A9000052BEED162B6124B00221A70F0BC00F09A
:101AA0001BBD0F4C0F4D217847F8325007EB431305
:101AB00008304A1E5860227062B6F0BC7047084970
:101AC000094B0A7847F8353007EBC5030830013A6F
:101AD00058600A7062B6F0E7584100000000FF1F2E
:101AE0004115FF1F88004000C8004000431E032B23
:101AF0001DD81B4A400140F0100030B4104472B6AB
:101B0000184CE25C032A1BD8DFE802F0021215171A
:101B100003220D88E25410F0080F14BFC823882355
:101B200043EA054308310360416062B630BC704748
:101B300008300222EDE70522EBE708300422E8E74F
:101B4000094A52F8230038B1084A52F8230041608C
:101B500042F8231062B6E9E742F82310034AF7E798
:101B60000000FF1F5015FF1F1815FF1F2815FF1F2E
:101B70002DE9F04FDFF804A3DFF804B387B044E0A9
:101B8000A94F4FEA930807EBC809013ED9F8042092
:101B900003F00803F6B2A2F1080003F0FF04002BE3
:101BA00040F0FE8057F838301B0C99B222F8081C20
:101BB000002B00F0EC809D4B22F8064C42F8044CC0
:101BC00053F82620002A00F02B82994D55F8263034
:101BD0005860984C45F8260034F81630194424F81B
:101BE000161000F059FC002800F01382924A934B23
:101BF00019F0080F00F1080018BF1346C9F80400D7
:101C000047F8383008238AF800309AF80040E4B2E8
:101C100060071AD58A4B1B78A3B18A490A7802F06B
:101C2000FF0322B1013BDBB20B7003B900BE864952
:101C30000A7802F0FF032AB1013BDBB20B70002BE4
:101C400000F0BD8104238AF8003004F0080303F09B
:101C5000FF02002B00F0C8809BF80030DBB21E09A9
:101C60008ED19C08704F57F8342007EBC401C2F3A3
:101C70008302013A49680C2A00F28580DFE802F00D
:101C8000797983838383838342838383070008680E
:101C90006E4B6F4D0193684B4A686E4E47F8343077
:101CA00081B240F28164694B6A60286000220120A1
:101CB000A1421A603A61BA61307000F2E380B1F576
:101CC000D06F80F02782B1F5817F00F0E08100F2D3
:101CD000C381802900F03682822940F0DE81A98804
:101CE0005D4B01F07F01042900F2D8815B4C890033
:101CF0000B44227062701A78930740F1228320709F
:101D0000022023E2514B01931A683AB3544B514ECF
:101D10005449188834780D784028864645F00208E2
:101D200028BF4FF0400E002C84F001043470CEEB3D
:101D300000000CBF8824C82407EBC80680B285F0D9
:101D4000010544EA0E447260188047F83840724436
:101D50000D70002800F0B780019B1A603C4B1A8878
:101D6000B2F5A06F0FD100219A7859703E4B1A70CE
:101D700009E0374A108842F22102904200F0A88020
:101D80002D4A47F83420394A012313703AE72A4A8A
:101D90002A4B19F0080F18BF134647F8383031E7BF
:101DA00000F09AFB324A334952F82630002B00F0FB
:101DB0003B8158688C5D42F8260003F10802C9F89F
:101DC0000420032C05D8DFE804F02C022926022287
:101DD0008A551A8819F0080F0CBF8823C82343EAD4
:101DE000024347F838300DE7E00700F1EB802106A9
:101DF00000F12881A20706D51F4A20491378022046
:101E0000DBB213700870E30602D51C4B10221A7067
:101E100007B0BDE8F08F04228A55DAE705228A551B
:101E2000D7E703228A55D4E70000FF1FC414FF1F21
:101E30007014FF1FBC18FF1FC8004000880040003E
:101E40004C15FF1FD514FF1F5415FF1F6C14FF1FE7
:101E50003815FF1FD414FF1FC02007404415FF1F73
:101E60008014FF1F4015FF1F982007409420074053
:101E70001815FF1F5015FF1F8820074080200740BE
:101E80009020074042F22104A14200F0948043D800
:101E9000B1F5086F00F0A881B1F5106F40F0FD803A
:101EA000B84AB94CA978117004F1800503E00834F0
:101EB000AC4200F09E81236A1906F8D5606A0838A2
:101EC00000F00AFBF3E7BEF1400F18BF002243E722
:101ED000AE4ACD1D11F8013B02F8013FA942F9D1EC
:101EE000AB4A1268862A00F01181AA49AA4E0A78E4
:101EF000307882F00105002842F002020D700CBF1C
:101F00008821C82147F8321007EBC20280F0010097
:101F100000213070516033E742F22124A14240F0A9
:101F2000FE81DFF8BCC29D4B9D49AC78DCF80050C7
:101F30001D6081460C700020029080468446044655
:101F400094490D7845F0020E07EBCE03B9F1000F6E
:101F50005C600CBF8824C82444EA080385F00104AF
:101F600047F83E3032700C70DFF81CE28A4BDFF825
:101F70002482002840F09880BCF1400F1BD144F02F
:101F8000020407EBC403029FDFF8FCE15F60002A54
:101F900040F09F80020442F0880207444EF834204B
:101FA00086F800900D703B46402804D100207D4A01
:101FB000019910800B607C4A01231370E3E600F066
:101FC000F7FB3FE6704B784872491A614FF0020EFA
:101FD00080F800E0754F0A70754919609960754E78
:101FE000754D764C9A610D213970FF213170DFF803
:101FF000F4E129702270724D724A8EF800109F270A
:10200000012406F8047C5D600470DA6007B0BDE866
:10201000F08F6D4A47F83800137801331370F1E5FB
:1020200043F82600694DD4E58B5D032B67D801A2E8
:1020300052F823F0051C0000051C00008920000058
:102040008320000059495C4B80220D2008701A70D3
:10205000A2077FF5D8AECFE640F20232914240F0BF
:102060005681A98801F07F01042916D86A88A2B98F
:102070004E4C89000C448146217841F002012170C8
:1020800059E701238B55BDE500238B55BAE5A98897
:1020900001F07F01042940F24781444B0F221A705E
:1020A000414A012313706EE640287FF668AF44F082
:1020B00002040EEBC401029E4E60AAB1444A83F8AA
:1020C00000903346403888F8005040334EF83420B2
:1020D0006DE70204029B86F8009042F0C8020D7082
:1020E00003444EF834205FE783F80090029B304AA7
:1020F00088F80050403840334EF8342057E719F044
:10210000080F0CBF022303238B557BE5314A0F21B7
:102110001170EAE6304A5468002CBED06888B5F8E1
:1021200004E003E00C325468002CB6D013888342DC
:10213000F8D153887345F5D1000A03280CBF2078E5
:10214000108903E0254C022022706270EA888242E6
:1021500080F00C810F490D78402A45F0020E94461C
:1021600007EBCE0028BF4FF0400C04EB0C0344609B
:102170000293CCEB02004FEA0C484FF00109002219
:10218000C824E9E64C15FF1F0000FF1FC318FF1FFE
:10219000C418FF1F4015FF1FD414FF1FCC18FF1FCA
:1021A0006415FF1F8014FF1F94200740C0200740C4
:1021B0008800400088200740802007409820074082
:1021C0008414FF1FD814FF1F4115FF1F7014FF1F39
:1021D000C8004000D514FF1F5C4100004415FF1FDC
:1021E0006814FF1F8C200740684A694C12782270DF
:1021F000ACE76849684B694A02916949694C6A4D84
:10220000039405964FF0000988461C46164604952F
:10221000206828B1456800F05FF92846002DF9D103
:1022200000232360049B30681A46002342F82930BB
:1022300028B1456800F050F92846002DF9D1002258
:102240003260029A98F800301146002241F8042BBF
:10225000039A0291023B4FF0000122F81910032B60
:1022600007D8DFE803F0340234024FF0010388F8A6
:10227000003009F10109B9F1040F04F1040406F179
:10228000040608F10108C3D1484B059EDFF83091E0
:10229000DFF8308100211970012518F8013B09F899
:1022A000043B1A0718D4AC0044F0020244F00304C3
:1022B000002347F8323047F834303D4B994505F15B
:1022C0000105EAD196F8009089F0010233E64FF05B
:1022D000000388F80030CCE700F0DEF8AC0007EB34
:1022E000451300F10802002837D05A60314B47F8F7
:1022F000343000F0D1F844F0010307EBC30200F1E1
:10230000080100B351602C4A47F83320CCE7B1F5FF
:10231000A06F7FF4C2AE00224FF001090BE642F23B
:1023200021329142F7D0B8E66A88002A7FF4B5AE30
:10233000224C89000C448146217821F00201217051
:10234000F9E5022002E7194B44F001021B7847F837
:102350003200164A01331370A6E7144B134A1B7858
:10236000AC00013347F834001370C2E740288446BC
:1023700028BF4FF0400C04EB0C03CCEB00004FEAFD
:102380000C48029300224FF00109D9E54C15FF1FBC
:102390004415FF1F2815FF1FC414FF1F1815FF1F2A
:1023A0005015FF1FBC18FF1F7014FF1F4115FF1FA2
:1023B000D420074088004000C8004000C0200740EB
:1023C000C4200740584100002DE9F041274C00F09F
:1023D000A1FF002204F1880023461A605A600833E6
:1023E00083424FF00001F8D12148224A0368DFF808
:1023F0009CE0214E214D224FDFF894C0DFF89480FD
:1024000043F480230360136843F040731360032395
:102410008EF80030A023337002F5C922C4F30723DD
:1024200000F528302B708030C4F3074310323B7026
:10243000240EFF230470134D8CF80030124888F8E6
:1024400000301370012306F8AC3C4FF400140EF872
:10245000441C7026102107F82C3C2E70046082F872
:10246000F810AEF1440EBDE8F08100BF0000FF1F80
:102470003480044000D80040402107409C200740A1
:10248000B020074035E400E004E100E044210740CB
:10249000802007408820074072B60D480268B2FAD3
:1024A00082F30B2B10DC4FF00041D94022EA0102ED
:1024B000026062B6074803EBC303DB00C2180021C9
:1024C000C15010465160704762B60020704700BF8F
:1024D000080BFF1FD003FF1F0D4B0E4AC31AA2FBB0
:1024E00003231B090B2B0CD80B4A127852B972B676
:1024F0000A484FF00041026821FA03F31A430260D0
:1025000062B67047064A1278002AF0D0FFF7ACBADC
:10251000D003FF1F398EE3384115FF1F080BFF1F43
:102520004C15FF1F38B50F4D286878B143880288D5
:10253000C118013393420C7A02D24380204638BD41
:10254000FFF7CAFF002320462B6038BD064B1B78DF
:102550002BB10320FFF754FA28600028E6D14FF092
:10256000FF3038BD6015FF1F4C15FF1F10B5094C1B
:10257000206818B143881844007A10BD064B1B78B8
:102580002BB10320FFF73CFA20600028F2D14FF076
:10259000FF3010BD6015FF1F4C15FF1F044B054A8F
:1025A0001B6890881BB11A885B88D31A184470473F
:1025B0006015FF1FBC18FF1F0B4B1B789BB110B59C
:1025C0000A4C206848B1FFF787FF002303202360EF
:1025D000FFF716FA30B1FFF77FFF0320FFF710FA7D
:1025E0000028F8D110BD70474C15FF1F6015FF1F64
:1025F0002DE9F04FDFF8F89083B0012289F8002030
:10260000019169B3DFF8EC80354F019E8346D8F81D
:102610000000B0B3334D4488C4F14001B14228BF3B
:10262000314604EB010E00221FFA8EFE2A70761A44
:10263000A0F802E000F1080251B1013C22445944E3
:102640001BF8014B02F8014F8B45F9D1B0F802E0BD
:10265000BEF13F0F0BD8244A05211170002ED6D1B0
:102660000198002389F8003003B0BDE8F08F4022C4
:10267000028001460420FFF739FA0022C8F8002042
:10268000E9E73A7822B3194C164D4FF0010A07E0FA
:10269000013C16D02A78A2B900F022FA3A78BAB1F1
:1026A0000420FFF7CBF90728F2D889F800A0FFF73C
:1026B000F3FEC8F800000028ADD10D4B013C1870A6
:1026C000E8D101234FF0FF302B7003B0BDE8F08F4D
:1026D00000234FF0FF3089F8003003B0BDE8F08FE1
:1026E0004C15FF1F5C15FF1F5415FF1F21480100EB
:1026F0005515FF1F5815FF1F00B583B002AB012110
:1027000003F8010D1846FFF773FF03B05DF804FBF3
:1027100038B50E4D0E4C28680123237028B140882F
:1027200000232370C0F1400038BD0A4B1B7813B959
:102730000020207038BD0420FFF780F90728F7D863
:10274000FFF7AAFE28600028E9D1F1E75815FF1F1E
:102750005515FF1F4C15FF1FF8B5114B1B788BB19A
:10276000104E114D346801272F7064B10F4A6388F1
:1027700000271770214623800420FFF7B7F9376040
:1027800000232B70F8BDFFF787FE084B28B10146E8
:1027900004201C70FFF7AAF9F2E71F70F0E700BFF2
:1027A0004C15FF1F5815FF1F5515FF1F5415FF1F10
:1027B00038B50E4B1B7873B90D4C216861B103F02D
:1027C000FF054B880B800420FFF790F9256038BD8A
:1027D000084B01221A7038BDFFF75EFE0028F7D0C3
:1027E0000146BDE838400420FFF780B95515FF1FAA
:1027F0005815FF1F5415FF1F10B4EFF3108272B667
:10280000437F33B9017F012908D0032910D0012368
:10281000437702B962B65DF8044B7047114C2168EA
:10282000A1B1114943610B68836108605861EEE70B
:102830000E4C216881B10E4943610B6883610860C9
:1028400058610C4B4FF080511960E0E7064B416135
:10285000816120601860DAE7054B41618161206089
:102860001860EEE77815FF1F7415FF1F6815FF1F2E
:102870006C15FF1F04ED00E010B4047F4160022CD2
:10288000C26003D05DF8044BFFF7B6BF83685DF804
:10289000044B184770B5EFF3108272B60C4C2068E9
:1028A00080B10C4E00254369236073B19D6102B96C
:1028B00062B6457783689847EFF3108272B6206856
:1028C0000028F0D102B962B670BD3360EFE700BFF7
:1028D0006815FF1F6C15FF1FFFF7DCBF184A30B4E7
:1028E0001468002C27D0036821688B420ED2CB1AC3
:1028F00000218460C1602360E060106002230375E2
:1029000030BC704711688B42144608D3A2685B1A2A
:102910000360002AF6D18260C460A060EEE7D2684E
:10292000C2608460E060C568CB1A0222A8602360A0
:10293000027530BC70478460C4601060DEE700BF81
:102940007015FF1FF8B5224E34682CB32368002B96
:102950003AD1204F1D4604E03468ECB12368002BC7
:1029600032D1A36803B1DD60206933600368257547
:102970001B68BB4221D1037F4560022BC46020D07D
:10298000FFF73AFF6368002BE6D023602046FFF78D
:10299000A5FF3468002CE1D1EFF3108372B60E4A24
:1029A00000211068116003B962B628B18468FFF78E
:1029B00095FF20460028F9D1F8BD2246002198470E
:1029C000E0E783689847DDE7013B2360E4E700BF69
:1029D0007015FF1F792800008015FF1F024A136839
:1029E00001331360FFF7AEBF6814FF1F00B5064A3E
:1029F000036812885B6883B001A9ADF80420022245
:102A0000984703B05DF804FB2C410000F0B5074681
:102A10008BB0002A33D0012A08BF0A2251B32124E7
:102A200000E0F4B2B1FBF2F502FB1511C8B20929BE
:102A300000F1300198BFC8B20AA988BF37302144DD
:102A400088BFC0B201F8240C661E2946002DE8D1CB
:102A500033B1013CE4B20AAB23442D2203F8242C09
:102A60003B6801AA11195B683846C4F122029847F5
:102A70000BB0F0BD30228DF825202124E8E7036853
:102A8000C9B21B6898470BB0F0BD00BF0029BABFA0
:102A900049422D2300230A22FFF7B8BF41EA002054
:102AA000704700BF08B5FDF705FDFDF78BFE00F090
:102AB00017F8FAE7FFF780BDFFF758BDFFF732BD03
:102AC000FFF76CBDFFF748BEFFF722BE0846114670
:102AD000FFF78EBD0846FFF70FBE00BF704700BF6F
:102AE00038B52C4C237803B138BD01232370FFF790
:102AF00055FD002842D100F0EBF800283BD100F052
:102B00007DF9002834D100F00FFA70BB00F088FA8C
:102B100040BB00F001FB10BB00F07AFBE0B90023E2
:102B20002370EFF30583002BDED1EFF3108172B633
:102B3000194B186828B3194C227812BB45691D60DF
:102B4000012323700DB3AA6101B962B60025457750
:102B5000836898472570C7E700F028FCDFE700F09E
:102B600023FCD9E700F01EFCD3E700F019FCCDE709
:102B700000F014FCC7E700F00FFCC0E7FFF7AEFF62
:102B8000B9E70029B0D162B638BD054B1D600029F8
:102B9000DCD1DAE78415FF1F7815FF1F7C15FF1FB6
:102BA0007415FF1F30B42948294A2A4B2A4D602446
:102BB000E121047011701B78284C082B30D00A2BAF
:102BC0002748284937D00C2B0CBF35225D22122311
:102BD0002A60236002600B60234B24491B78244A3F
:102BE000BBB101230B601360224B23491B78234A9E
:102BF000012B26D9042B0FD9082B1ED9102B94BFDB
:102C0000862387230B6013601D4B01221A7030BC92
:102C100070470B601360E7E784230B601360F3E7F2
:102C200000F58E200F490830212213232A602360EB
:102C300002600B60D0E73922F7E785230B60136051
:102C4000E2E780230B601360DEE700BF004007402F
:102C5000014007401C0BFF1F08B003400CB00340AD
:102C600008B00B400CB00B408615FF1F20B003408E
:102C700020B00B401D0BFF1F24B0034024B00B40BD
:102C80008515FF1FF0B44D1E2E46002400E00134D0
:102C9000B0FBF2F302FB1300092800F130078ABFF2
:102CA0003730F8B2C0B206F8010F1846002BEED14B
:102CB0000A1953704CB1107815F8016F2870013360
:102CC000E01A834202F80169F5DB0846F0BC704760
:102CD000054A064B10781B78C0B2DBB2984238BF69
:102CE0004030C01A704700BF8C15FF1F8D15FF1FA5
:102CF000F0B4384B1A7912F0300F2CD072B6997D9F
:102D000001F0FF0200293DD062B6334F33493878D5
:102D10000D78334E1C46C0B2EDB2431C402BE17916
:102D200028BF0023AB4202F1FF32C9B21CBFF154ED
:102D3000184612F0FF02F0D12A4B1B68C2B23A705B
:102D40004BB1A84236BFC5F14005401B40192728AA
:102D5000C4BF01221A701F49CA78D2B2150616D410
:102D600052060DD51B4B1B795B0609D51E4B1F491F
:102D70001B6800220A7003B11A70164B3C22DA70ED
:102D8000F0BC70474022D9795A7462B6E3E70B79F8
:102D90001C06E5D5164B174E1C783378E4B2DBB22F
:102DA0009C420ED0144D01E0A3420AD00133402BC7
:102DB00028BF00230879E85CC0B2C871087D0728E5
:102DC000F2D9DBB2034933700B79180644BF7C2378
:102DD000CB70C5E700A006408C15FF1F8D15FF1FA7
:102DE000D015FF1F8815FF1F1416FF1F1016FF1F99
:102DF0001816FF1F1116FF1F9015FF1F054A064BDF
:102E000010781B78C0B2DBB2984238BF4030C01A8D
:102E1000704700BF8C16FF1F2116FF1FF0B4384B00
:102E20001A7912F0300F2CD072B6997D01F0FF02A2
:102E300000293DD062B6334F334938780D78334E90
:102E40001C46C0B2EDB2431C402BE17928BF0023E1
:102E5000AB4202F1FF32C9B21CBFF154184612F066
:102E6000FF02F0D12A4B1B68C2B23A704BB1A842A4
:102E700036BFC5F14005401B40192728C4BF0122B9
:102E80001A701F49CA78D2B2150616D452060DD54B
:102E90001B4B1B795B0609D51E4B1F491B68002283
:102EA0000A7003B11A70164B3C22DA70F0BC7047FE
:102EB0004022D9795A7462B6E3E70B791C06E5D54E
:102EC000164B174E1C783378E4B2DBB29C420ED01E
:102ED000144D01E0A3420AD00133282B28BF002360
:102EE0000879E85CC0B2C871087D0728F2D9DBB266
:102EF000034933700B79180644BF7C23CB70C5E7B8
:102F000000B006408C16FF1F2116FF1F4C16FF1F36
:102F10001C16FF1F9016FF1F2016FF1F9416FF1F81
:102F20008D16FF1F2416FF1F054A064B10781B78CD
:102F3000C0B2DBB2984238BF4030C01A704700BF01
:102F40009C16FF1F9D16FF1F30B42B4B1A79940659
:102F50001FD52A48DA790378294901333F2B0978AC
:102F6000C8BF00238B42D2B203D0264CD9B2E25460
:102F70000170254A116861B1244A1278D2B2934295
:102F800036BFC2F140029B1A9B18272BC4BF0123F6
:102F90000B70194AD378DBB2180611D45A060DD536
:102FA000154B1B795B0609D5194B1A491B68002282
:102FB0000A7003B11A70104B2C22DA7030BC7047C3
:102FC00011790906EAD5144910480C780178C9B27C
:102FD0008C420DD04A1C272A84BF00210A460F4D7F
:102FE000054C98BFD1B2AA5CD2B2E2710170D5E7AC
:102FF0006C21D170D2E700BF00C006409C16FF1FB5
:103000009D16FF1FC816FF1F9816FF1F0917FF1FE9
:103010000C17FF1F0817FF1F1017FF1FA016FF1F19
:10302000054A064B10781B78C0B2DBB2984238BF15
:103030004030C01A704700BF1817FF1F1917FF1F35
:1030400030B42B4B1A7994061FD52A48DA790378C5
:10305000294901333F2B0978C8BF00238B42D2B2E4
:1030600003D0264CD9B2E2540170254A116861B1EF
:10307000244A1278D2B2934236BFC2F140029B1A60
:103080009B18272BC4BF01230B70194AD378DBB2DE
:10309000180611D45A060DD5154B1B795B0609D5B8
:1030A000194B1A491B6800220A7003B11A70104BA1
:1030B0002C22DA7030BC704711790906EAD5144920
:1030C00010480C780178C9B28C420DD04A1C272ACE
:1030D00084BF00210A460F4D054C98BFD1B2AA5CAF
:1030E000D2B2E2710170D5E76C21D170D2E700BF96
:1030F00000D006401817FF1F1917FF1F4417FF1FA6
:103100001417FF1F8517FF1F8817FF1F8417FF1F46
:103110008C17FF1F1C17FF1F054A064B10781B78E2
:10312000C0B2DBB2984238BF4030C01A704700BF0F
:103130009417FF1F9517FF1F30B42B4B1A79940675
:103140001FD52A48DA790378294901333F2B0978BA
:10315000C8BF00238B42D2B203D0264CD9B2E2546E
:103160000170254A116861B1244A1278D2B29342A3
:1031700036BFC2F140029B1A9B18272BC4BF012304
:103180000B70194AD378DBB2180611D45A060DD544
:10319000154B1B795B0609D5194B1A491B68002290
:1031A0000A7003B11A70104B2C22DA7030BC7047D1
:1031B00011790906EAD5144910480C780178C9B28A
:1031C0008C420DD04A1C272A84BF00210A460F4D8D
:1031D000054C98BFD1B2AA5CD2B2E2710170D5E7BA
:1031E0006C21D170D2E700BF00A00E409417FF1FE2
:1031F0009517FF1FC017FF1F9017FF1F0118FF1F14
:103200000418FF1F0018FF1F0818FF1F9817FF1F43
:10321000054A064B10781B78C0B2DBB2984238BF23
:103220004030C01A704700BF1018FF1F1118FF1F51
:1032300030B42C4B5A6894021FD52B48DA680378B7
:103240002A4901333F2B0978C8BF00238B4204D0A1
:10325000274CD2B2D9B2E2540170264A116861B14A
:10326000254A1278D2B2934236BFC2F140029B1A6D
:103270009B18272BC4BF01230B701A4A93681802AE
:1032800002D55268110211D45A020DD5154B5B6854
:103290005B0209D5194B1A491B6800220A7003B159
:1032A0001A70184B00221A6030BC7047164A124937
:1032B00010780A78D2B290420DD00132272A84BF0A
:1032C00000200246114D074C98BFD0B2AA5CD2B282
:1032D000E2600870D8E70E480A4A00240121046021
:1032E0001160D1E700400C401018FF1F1118FF1F9C
:1032F0003C18FF1F0C18FF1F7D18FF1F8018FF1FB1
:103300007C18FF1F580188438418FF1F1418FF1FE3
:103310005C01884310B584B072B6FEF737F9184ADD
:10332000184B19491160702280211A701A461970C1
:1033300013781B06FCD5154B1C68FEF741F962B6E5
:10334000134B9C429CBF04EB840464002046114C48
:1033500001A90A22FFF796FC01A92046002311F8D3
:10336000012B01333AB10A2B20F8022FF7D1162393
:10337000237004B010BD5B00DBB2237004B010BD3D
:103380000400024000000240000007410C0002401F
:103390007F969800AC0BFF1F704700BF704700BFBF
:1033A000704700BF704700BF704700BF704700BF45
:1033B000014B1868704700BFF00FFF1F70B50F4E2C
:1033C0000F4D761BB61018BF002405D0013455F8F8
:1033D000043B9847A642F9D10A4E0B4D761B00F0EC
:1033E000E9FEB61018BF002406D0013455F8043B9E
:1033F0009847A642F9D170BD70BD00BFC041000022
:10340000C0410000CC410000C0410000024B014619
:10341000186800F003B800BFF00FFF1F2DE9F04F50
:1034200001F10B05162D83B0064640F29F8035F062
:10343000070500F1BF80A94200F2BC8000F0A6FAA7
:10344000B5F5FC7FC0F09C826B0A00F0BA80042BBB
:1034500000F28381A80900F1390E4FEA4E0338309B
:10346000C44F07EB8303A3F108015C68A14207D1B5
:10347000ACE0002A80F2AC80E468A14200F0A680B3
:10348000636823F003035A1B0F2AF2DDB9493C6934
:1034900001F1080E744500F0B381636823F0030363
:1034A0005A1B0F2A00F39981002AC1F814E0C1F8D1
:1034B00010E080F29E80B3F5007F80F06781DB082A
:1034C00003F1010C01229B1002FA03F34A6851F840
:1034D0003C80C4F8088001EBCC091A43A9F1080329
:1034E000E3604A6041F83C40C8F80C408310012476
:1034F0009C40944200F28A80144206D120F00300DE
:103500006400144200F10400FAD007EBC009CC4675
:103510008046DCF80C108C4507D173E1002A80F25C
:103520008181C9688C4500F06D814B6823F00303ED
:103530005A1B0F2AF2DD0C46D1F80CC054F8088F44
:103540004B1945F001054D6042F00101C8F80CC06F
:103550003046CCF808807B613B61C3F80CE0C3F8CF
:1035600008E059609A5000F013FA1FE0102921D8A2
:1035700000F00CFA1025062302207E4F07EB830390
:10358000A3F108025C68944200F045816368E16839
:10359000A56823F00303234430465A68E96042F0EB
:1035A00001028D605A6000F0F3F90834204603B040
:1035B000BDE8F08F00240C232046336003B0BDE843
:1035C000F08F80234FF0400E3F2049E770465DE7C3
:1035D0002344E1685A68A56842F00102E960304678
:1035E0008D605A6000F0D4F90834204603B0BDE87D
:1035F000F08F234430465A6842F001025A6000F0CE
:10360000C7F90834204603B0BDE8F08FBC68636892
:1036100023F00308A84504D3C5EB08030F2B00F3E0
:103620008C80554BDFF860911A68D9F8003001336F
:103630002A4404EB080A00F0608102F580520F3240
:1036400022F47F6222F00F0211463046019200F010
:10365000A1F9B0F1FF3F8346019A00F058818245FD
:1036600000F2FC80454B1968DA451144196000F0FE
:103670005381D9F80000DFF810E101301BBFCAEB1D
:103680000B0A5144CEF800B019601BF0070100F09E
:103690001781C1F10800C1F58051834408315A44B3
:1036A000C2F30B02C2EB010949463046019300F018
:1036B00071F9431C019B00F03F81CBEB00024A44AF
:1036C00042F001021968C7F808B04944BC42CBF87F
:1036D00004201960DFF8A49016D0B8F10F0F40F263
:1036E000FD806268A8F10C0323F00703E01802F0E4
:1036F00001024FF0050E1A430F2B6260C0F804E080
:10370000C0F808E000F21C811D4BBC681A689142A9
:1037100088BF19601B4B1A689142626888BF1960A4
:1037200022F003029542A2EB050301D80F2B04DC23
:10373000304600F02DF9002438E7621943F0010308
:1037400045F0010565603046BA60536000F020F92D
:103750000834204603B0BDE8F08F142B71D9542BE8
:1037600000F2A480280B00F16F0E4FEA4E036E307A
:1037700076E600BFF40FFF1F9018FF1F9418FF1F7D
:103780008C18FF1F8818FF1F0014FF1F5A0A042AF5
:103790005ED9142A00F2B38002F15C0149005B3269
:1037A00007EB810C57F82110DFF8DC81ACF1080C35
:1037B0008C4500F088804A6822F00302934202D2CE
:1037C00089688C45F7D1D1F80CC07A68C4F80CC070
:1037D000A160CCF80840CC6088E6631942F001078C
:1037E00045F00105656030464B610B61C3F80CE0A4
:1037F000C3F808E05F609A50083400F0C9F8D5E6D5
:103800004A6873E608F1010818F0030F0CF1080C80
:103810007FF47FAE30E0DC68A34208BF02303FF4A3
:1038200035AEB3E60B440C465A68C96854F8085FD5
:1038300042F001025A603046E9608D6000F0A8F85D
:10384000B4E603F15C0E03F15B004FEA4E0307E6BA
:103850009A0902F1390149003832A1E7BC424A4BCA
:103860003FF400AF9C68626822F003025AE759F8FF
:103870000839994540F0828010F0030F00F1FF30C5
:10388000F5D17B6823EA04037B6064009C423FF629
:10389000BDAE002C3FF4BAAE1C4240467FF435AEBC
:1038A00064001C4200F10400FAD02EE6B3F5AA7FB2
:1038B00018D8E80B00F1780E4FEA4E037730CFE5C9
:1038C0004FF48051EBE60121D8F80430921001FA50
:1038D00002F21A43C8F80420614677E70123CBF8C7
:1038E000043025E740F25452934220D8A80C00F14E
:1038F0007D0E4FEA4E037C30B2E51032A4E6542A26
:1039000026D81A0B02F16F0149006E3248E7BC68F5
:10391000626822F0030205E7CAF30B0000287FF477
:10392000A8AE4244BB6842F001025A60ECE6FE23B6
:103930004FF07F0E7E2093E501224FF00009C1E693
:1039400004F10801304600F0A9F8D9F80010DBE6D0
:10395000B2F5AA7F05D8DA0B02F178014900773277
:103960001EE740F254518A4205D89A0C02F17D01BB
:1039700049007C3214E7FE217E2211E77B6884E750
:10398000E808431C5B00F8E5F40FFF1F704700BF19
:10399000704700BF38B5074C002305460846236032
:1039A000FDF7DEFD431C00D038BD2368002BFBD0A3
:1039B0002B6038BDD018FF1F024B13B1024800F036
:1039C00005B8704700000000D93900000023014607
:1039D0001A46184600F04AB938B5074D074C2C1B5B
:1039E000A41005D0013C55F8043D9847002CF9D1AE
:1039F000BDE8384000F0EABB000000000000000015
:103A0000F8B5234F0C460646FFF7C0FFBB685D685C
:103A100025F00305291B01F6EF7121F47F6121F0E8
:103A20000F01A1F58054B4F5805F07DB002130461B
:103A3000FFF7B0FFBB682B44984204D03046FFF735
:103A4000A7FF0020F8BD61423046FFF7A3FF013019
:103A50000DD0104BBA6819682D1B45F00105304692
:103A6000091B55601960FFF793FF0120F8BD002185
:103A70003046FFF78FFFBA68831A0F2BDEDD064C46
:103A80000449246843F00103001B53600860D5E734
:103A9000F40FFF1F9418FF1F0014FF1F002945D0CB
:103AA0002DE9F0410D468046FFF770FF55F8047C84
:103AB0006A4927F00103A5F10804E2188E685068EE
:103AC000B24220F0030062D0FE0750600BD455F8DC
:103AD000087CE41B01F1080EA56875453B446FD0D6
:103AE000E768EF60BD6015186D68ED0742D543F0DB
:103AF00001026260E350B3F5007F18D2DB085A1C64
:103B00004D6851F83270A76001209B1000FA03F352
:103B100001EBC2001D430838E0604D6041F83240BF
:103B2000FC604046BDE8F041FFF732BF70475A0ADB
:103B3000042A53D89A0902F139077F0002F13805A7
:103B400001EB870051F827204449083890424DD0B6
:103B5000516821F003018B4202D292689042F7D162
:103B6000D068E060A2608460D4604046BDE8F04167
:103B7000FFF70EBF95683A4FBD4203443FD0D0686F
:103B8000E86043F0010285606260E350B3E7FF073D
:103B9000034407D455F8082CA41A1344A068E2681B
:103BA000C26090602F4A126843F001009342606047
:103BB0008C60B6D32C4B40461968FFF721FFB0E765
:103BC00011184968C90744D49168D268CA6003448F
:103BD00043F0010091606060E350A2E7142A17D817
:103BE00002F15C077F0002F15B05A9E7AA104B68B0
:103BF000012505FA02F213434B600246B1E743F098
:103C000001024C610C61E560A5606260E35088E7E9
:103C1000542A06D81A0B02F16F077F0002F16E05D5
:103C20008EE7B2F5AA7F06D8DA0B02F178077F009B
:103C300002F1770584E740F25450824206D89A0C8C
:103C400002F17D077F0002F17C0579E7FE277E25E2
:103C500076E743F001026260E35062E7F40FFF1F72
:103C6000FC0FFF1FFC13FF1F9018FF1F2DE9F047EB
:103C7000254C2568D5F8484106468846924699461F
:103C8000C4B360681F2817DC431C76B104EB8005C1
:103C90000122C5F888A0D4F8881182401143022E71
:103CA000C4F88811C5F808911ED00230636044F84A
:103CB00020800020BDE8F087144B03B34FF4C87098
:103CC000FFF7A4FB0446D0B1D5F84831002780E8BF
:103CD0008800C5F8484138460123C4F88871C4F803
:103CE0008C71002EE1D0D1E7D4F88C110A43C4F8CE
:103CF0008C21DAE705F5A674C5F84841C1E74FF015
:103D0000FF30BDE8F08700BFB04100000D34000077
:103D10004E6F6D696E616C004572726F72000000CB
:103D20004E6F7420456E6F75676820436F72650033
:103D3000556E6B6E6F776E207374617475730000CF
:103D40004578616D706C65393939202D2054657363
:103D500074696E67202D2046543533313620435424
:103D60005020447269766572000000004265676900
:103D70006E6E696E6720746865204354502E205320
:103D800074617475733A20000A0000004E4F5F475B
:103D900045535455524500004D4F56455F55500010
:103DA0004D4F56455F4C4546540000004D4F56451B
:103DB0005F444F574E0000004D4F56455F524947F4
:103DC000485400005A4F4F4D5F494E005A4F4F4DD7
:103DD0005F4F555400000000556E6B6E6F776E207C
:103DE0006765737475726500546F756368207265DA
:103DF000636F726420696E666F3A200054696D6566
:103E00007374616D703A2000203A20004E756D6227
:103E10006572206F6620746F75636865733A200061
:103E2000476573747572653A20000000546F7563BE
:103E3000682000002C20783A200000002C20793ADD
:103E40002000FFFF0000000000000000410800000B
:103E5000433A5C55736572735C6F77656E2E6C794F
:103E60006B655C446F63756D656E74735C41726401
:103E700075696E6F5C6C69627261726965735C53BF
:103E80007061726B46756E5F4654357878365C7338
:103E900072635C537061726B46756E5F4654357821
:103EA00078362E63707000003480044040000000BB
:103EB00012112208300202050702131021072F02F7
:103EC0000205070218000000348004408000000052
:103ED000263AFFFFFF0206000000253BFFFFFF021E
:103EE0000600000019000000288004404000000087
:103EF00004FFFFFFFF0500000000031AFFFFFF059E
:103F0000050000004A000000000000000000000062
:103F1000990D00005D0D00003D0D0000590D0000E1
:103F20001508000021080000410D00004008FE4374
:103F300040A004404408FE4344A004400018FE434F
:103F400000C004403000FE43309004403400FE4383
:103F5000349004401C18FE431CC004401018FE435B
:103F600010C004400818FE4308C004400C18FE436B
:103F70000CC004400C10FE430CB004401010FE4373
:103F800010B004401810FE4318B004401C10FE434B
:103F90001CB004401410FE4314B004400418FE4347
:103FA00004C004400010FE4300B004400008FE437B
:103FB00000A004400408FE4304A004400C08FE4393
:103FC0000CA004400808FE4308A004401418FE4357
:103FD00014C004401818FE4318C004400410FE43E7
:103FE00004B004400810FE4308B004406820FE43BB
:103FF00068D004401400FE43149004403800FE438F
:10400000389004403C00FE433C9004404000FE4396
:10401000409004404808FE4348A004404C08FE433A
:104020004CA004402808FE4328A004402C08FE436E
:104030002CA004406020FE4360D004406420FE4376
:1040400064D004402010FE4320B004402410FE43FE
:1040500024B004402810FE4328B004402C10FE4336
:104060002CB004404400FE43449004407000FE43E2
:10407000709004407400FE43749004406800FE4356
:10408000689004405008FE4350A004405808FE4386
:1040900058A004405C08FE435CA004405408FE4362
:1040A00054A004402018FE4320C004402418FE43BE
:1040B00024C004401008FE4310A004401408FE432E
:1040C00014A004403818FE4338C004403418FE439E
:1040D00034C004403018FE4330C004403C18FE4356
:1040E0003CC004402C18FE432CC004402820FE4352
:1040F00028D004402C20FE432CD004400020FE4356
:1041000000D004400420FE4304D004400820FE43B5
:1041100008D004400C20FE430CD004401020FE4385
:1041200010D004401420FE4314D004400D0AFFFFB9
:104130000000000000000000D52A0000CD2A000089
:10414000C92A0000C52A0000C12A0000BD2A0000BB
:10415000B92A0000B52A0000001519150001000059
:10416000200BFF1F12000000000200004C0BFF1F7D
:104170004300000000030000A80BFF1F0000000028
:1041800001030904340BFF1F0000000002030904AF
:10419000900BFF1F0000000003030904AC0BFF1F7E
:1041A000000000000000000000000000000000000F
:1041B000C80BFF1FF8B500BFF8BC08BC9E4670478F
:0C41C000B93900003504000009080000B7
:0441CC00F8B500BF83
:1041D00038B5084B1C681C6054B1074D94FAA4F321
:1041E000B3FA83F355F823309847631E1C40F5D18A
:1041F00038BD00BFA0D004409C0AFF1F38B5084B53
:104200001C681C6054B1074D94FAA4F3B3FA83F30D
:1042100055F823309847631E1C40F5D138BD00BFC8
:10422000A0C004405C0AFF1F38B5084B1C681C6026
:1042300054B1074D94FAA4F3B3FA83F355F823303D
:104240009847631E1C40F5D138BD00BFA0B00440A4
:104250002C0AFF1F38B5084B1C681C6054B1074D71
:1042600094FAA4F3B3FA83F355F823309847631E06
:104270001C40F5D138BD00BFA0A00440CC09FF1FF1
:1042800038B5084B1C681C6054B1074D94FAA4F370
:10429000B3FA83F355F823309847631E1C40F5D1D9
:1042A00038BD00BFA09004405409FF1F103F00001C
:1042B00000000000E80300000000000000600E4065
:1042C000E83E0000000000000000000000000000C8
:1042D00000000000000000000000000000000000DE
:1042E00000000000000000000000000000000000CE
:1042F00000000000000000000000000000000000BE
:1043000000000000000000000000000000000000AD
:104310000000000000000000103F0000000000004E
:10432000E80300000000000000600640A83E000016
:10433000000000000000000000000000000000007D
:10434000000000000000000000000000000000006D
:10435000000000000000000000000000000000005D
:10436000000000000000000000000000000000004D
:10437000000000000000000000000000000000003D
:1043800000000000103F000000000000E8030000F3
:104390000000000000700640C83E00000000000061
:1043A000000000000000000000000000000000000D
:1043B00000000000000000000000000000000000FD
:1043C00000000000000000000000000000000000ED
:1043D00000000000000000000000000000000000DD
:1043E00000000000000000000000000000000000CD
:1043F000D418FF1FF5150000F5150000F515000095
:10440000F5150000F5150000F5150000F515000084
:10441000F5150000F5150000F5150000F515000074
:10442000F5150000F5150000F5150000F515000064
:10443000F5150000F5150000F5150000F515000054
:10444000F5150000F5150000F5150000F515000044
:10445000F5150000F5150000F5150000F515000034
:10446000F5150000F5150000F5150000F515000024
:10447000F5150000F5150000F5150000F515000014
:10448000F5150000F5150000F5150000F515000004
:10449000F5150000F5150000F5150000F5150000F4
:1044A000F5150000F5150000F5150000F5150000E4
:1044B000F5150000F5150000F5150000F5150000D4
:1044C000F5150000F5150000F5150000F5150000C4
:1044D000F5150000F5150000F5150000F5150000B4
:1044E000F5150000F5150000F5150000F5150000A4
:1044F000F5150000F5150000F5150000F515000094
:10450000F5150000F5150000F5150000F515000083
:10451000F5150000F5150000F5150000F515000073
:10452000F5150000F5150000F5150000F515000063
:10453000F5150000F5150000F5150000F515000053
:10454000F5150000F5150000F5150000F515000043
:10455000F5150000F5150000F5150000F515000033
:10456000F5150000F5150000F5150000F515000023
:10457000F5150000F5150000F5150000F515000013
:10458000F5150000F5150000F5150000F515000003
:10459000F5150000F5150000F5150000F5150000F3
:1045A000F5150000F5150000FFFFFFFF3841000082
:1045B00000000000E8030000000000000A04000002
:1045C0001201100102000040C016830477020102AC
:1045D0000301000018035400650065006E007300BD
:1045E00079006400750069006E006F0009024300E5
:1045F000020100C03209040000010202010005248A
:10460000001001052401010104240206052406000E
:10461000010705820310004009040100020A00009E
:104620000007050302400000070584024000000067
:10463000160355005300420020005300650072002D
:10464000690061006C000000040309040C03000011
:10465000000000000000000000000000000000005A
:10466000000000000000000000000000B40EFF1F6A
:104670001C0FFF1F840FFF1F000000000000000040
:10468000000000000000000000000000000000002A
:10469000000000000000000000000000000000001A
:1046A000000000000000000000000000000000000A
:1046B00000000000000000000000000000000000FA
:1046C00000000000000000000000000000000000EA
:1046D00000000000000000000000000000000000DA
:1046E00000000000000000000000000000000000CA
:1046F00000000000000000000000000000000000BA
:1047000000000000000000000000000000000000A9
:1047100001000000000000000E33CDAB34126DE646
:10472000ECDE05000B0000000000000000000000AF
:104730000000000000000000000000000000000079
:104740000000000000000000000000000000000069
:104750000000000000000000000000000000000059
:104760000000000000000000000000000000000049
:104A9000C80BFF1F0000000000000000F40FFF1F04
:104AA000F40FFF1FFC0FFF1FFC0FFF1F0410FF1F61
:104AB0000410FF1F0C10FF1F0C10FF1F1410FF1F0E
:104AC0001410FF1F1C10FF1F1C10FF1F2410FF1FBE
:104AD0002410FF1F2C10FF1F2C10FF1F3410FF1F6E
:104AE0003410FF1F3C10FF1F3C10FF1F4410FF1F1E
:104AF0004410FF1F4C10FF1F4C10FF1F5410FF1FCE
:104B00005410FF1F5C10FF1F5C10FF1F6410FF1F7D
:104B10006410FF1F6C10FF1F6C10FF1F7410FF1F2D
:104B20007410FF1F7C10FF1F7C10FF1F8410FF1FDD
:104B30008410FF1F8C10FF1F8C10FF1F9410FF1F8D
:104B40009410FF1F9C10FF1F9C10FF1FA410FF1F3D
:104B5000A410FF1FAC10FF1FAC10FF1FB410FF1FED
:104B6000B410FF1FBC10FF1FBC10FF1FC410FF1F9D
:104B7000C410FF1FCC10FF1FCC10FF1FD410FF1F4D
:104B8000D410FF1FDC10FF1FDC10FF1FE410FF1FFD
:104B9000E410FF1FEC10FF1FEC10FF1FF410FF1FAD
:104BA000F410FF1FFC10FF1FFC10FF1F0411FF1F5C
:104BB0000411FF1F0C11FF1F0C11FF1F1411FF1F09
:104BC0001411FF1F1C11FF1F1C11FF1F2411FF1FB9
:104BD0002411FF1F2C11FF1F2C11FF1F3411FF1F69
:104BE0003411FF1F3C11FF1F3C11FF1F4411FF1F19
:104BF0004411FF1F4C11FF1F4C11FF1F5411FF1FC9
:104C00005411FF1F5C11FF1F5C11FF1F6411FF1F78
:104C10006411FF1F6C11FF1F6C11FF1F7411FF1F28
:104C20007411FF1F7C11FF1F7C11FF1F8411FF1FD8
:104C30008411FF1F8C11FF1F8C11FF1F9411FF1F88
:104C40009411FF1F9C11FF1F9C11FF1FA411FF1F38
:104C5000A411FF1FAC11FF1FAC11FF1FB411FF1FE8
:104C6000B411FF1FBC11FF1FBC11FF1FC411FF1F98
:104C7000C411FF1FCC11FF1FCC11FF1FD411FF1F48
:104C8000D411FF1FDC11FF1FDC11FF1FE411FF1FF8
:104C9000E411FF1FEC11FF1FEC11FF1FF411FF1FA8
:104CA000F411FF1FFC11FF1FFC11FF1F0412FF1F57
:104CB0000412FF1F0C12FF1F0C12FF1F1412FF1F04
:104CC0001412FF1F1C12FF1F1C12FF1F2412FF1FB4
:104CD0002412FF1F2C12FF1F2C12FF1F3412FF1F64
:104CE0003412FF1F3C12FF1F3C12FF1F4412FF1F14
:104CF0004412FF1F4C12FF1F4C12FF1F5412FF1FC4
:104D00005412FF1F5C12FF1F5C12FF1F6412FF1F73
:104D10006412FF1F6C12FF1F6C12FF1F7412FF1F23
:104D20007412FF1F7C12FF1F7C12FF1F8412FF1FD3
:104D30008412FF1F8C12FF1F8C12FF1F9412FF1F83
:104D40009412FF1F9C12FF1F9C12FF1FA412FF1F33
:104D5000A412FF1FAC12FF1FAC12FF1FB412FF1FE3
:104D6000B412FF1FBC12FF1FBC12FF1FC412FF1F93
:104D7000C412FF1FCC12FF1FCC12FF1FD412FF1F43
:104D8000D412FF1FDC12FF1FDC12FF1FE412FF1FF3
:104D9000E412FF1FEC12FF1FEC12FF1FF412FF1FA3
:104DA000F412FF1FFC12FF1FFC12FF1F0413FF1F52
:104DB0000413FF1F0C13FF1F0C13FF1F1413FF1FFF
:104DC0001413FF1F1C13FF1F1C13FF1F2413FF1FAF
:104DD0002413FF1F2C13FF1F2C13FF1F3413FF1F5F
:104DE0003413FF1F3C13FF1F3C13FF1F4413FF1F0F
:104DF0004413FF1F4C13FF1F4C13FF1F5413FF1FBF
:104E00005413FF1F5C13FF1F5C13FF1F6413FF1F6E
:104E10006413FF1F6C13FF1F6C13FF1F7413FF1F1E
:104E20007413FF1F7C13FF1F7C13FF1F8413FF1FCE
:104E30008413FF1F8C13FF1F8C13FF1F9413FF1F7E
:104E40009413FF1F9C13FF1F9C13FF1FA413FF1F2E
:104E5000A413FF1FAC13FF1FAC13FF1FB413FF1FDE
:104E6000B413FF1FBC13FF1FBC13FF1FC413FF1F8E
:104E7000C413FF1FCC13FF1FCC13FF1FD413FF1F3E
:104E8000D413FF1FDC13FF1FDC13FF1FE413FF1FEE
:104E9000E413FF1FEC13FF1FEC13FF1F00000200C1
:044EA000FFFFFFFF12
:00000001FF
